:020000040800F2
:100000002005002001010008C71B00088D1700080B
:10001000C51B0008D5020008411F000800000000B1
:10002000000000000000000000000000091E0008A1
:100030000F03000800000000071E00080B1E000848
:100040001B0100081B0100081B0100081B01000820
:100050001B0100081B0100081B0100081B01000810
:100060001B0100081B0100081B010008D902000841
:100070001B0100081B0100081B0100081B010008F0
:100080001B0100081B0100081B0100081B010008E0
:100090001B0100081B0100081B0100081B010008D0
:1000A0001B0100081B0100081B0100081B010008C0
:1000B0001B0100081B0100081B0100081B010008B0
:1000C0001B0100081B0100081B0100081B010008A0
:1000D0001B0100081B0100081B0100081B01000890
:1000E0001B0100081B0100081B010008DFF80CD0F1
:1000F00000F03CF800480047811F00082005002060
:100100000648804706480047FEE7FEE7FEE7FEE7B1
:10011000FEE7FEE7FEE7FEE7FEE7FEE7871E0008D4
:10012000ED00000840EA01039B0703D009E008C97D
:10013000121F08C0042AFAD203E011F8013B00F8AC
:10014000013B521EF9D27047D2B201E000F8012BF8
:10015000491EFBD270470022F6E710B513460A4647
:1001600004461946FFF7F0FF204610BD064C074D28
:1001700006E0E06840F0010394E807009847103477
:10018000AC42F6D3FFF7B6FF382600085826000821
:1001900070B5044600688168C943C90717D18168F2
:1001A00021F00101816000F017FD05460AE000BF63
:1001B00000F012FD401B022804D920688068C0436B
:1001C000C00706D020688068C043C007F0D0002078
:1001D00070BDA06A40F01000A062E06A40F001002B
:1001E000E062012070BD10B50146406A826A12F0DB
:1001F000500F05D0006A026BBDE81040084610475A
:10020000816A41F40071816201688968C1F34241E9
:1002100007290CD1017B51B9816A21F48071816277
:10022000816AC90403D4816A41F00101816200F04E
:100230005BF910BD10B5406A816A41F040018162EE
:10024000C16A41F00401C16200F050F910BD10B55F
:10025000406A00F04AF910BDF8B500260446009641
:1002600000688168C943C9072DD0816841F0010148
:100270008160164816490068B0FBF1F000E0401EAE
:1002800000900028FBD100F0A7FC054616E000BF57
:1002900000F0A2FC401B022810D920688068C043EF
:1002A000C0070BD0A06A40F01000A062E06A40F0E6
:1002B0000100E06284F824600120F8BD20688068B5
:1002C000C043C007E4D10020F8BD00000C000020AE
:1002D00040420F00FEE70000014800F065BA000050
:1002E0004000002030B590F840500124AC40C56B70
:1002F0006C60046863604368102B036803D09960E6
:100300000068C26030BD9A600068C16030BD70474F
:1003100072B6FEE7F8B500250446009590F8240073
:1003200001280BD0012084F824002046FFF730FF7D
:100330002046FFF791FF060002D050E00220F8BDF2
:10034000A06A20F4885040F00200A062022000F071
:100350006BFE25490968B1FBF0F0400000E0401E4B
:1003600000900028FBD12068816841F0080181607D
:1003700000F032FC074608E000F02EFCC01B0A2803
:1003800003D920688068000715D4206880680007BA
:10039000F2D42068816841F00401816000F01CFC07
:1003A000074612E000F018FCC01B0A280DD920688F
:1003B0008068400709D5A06A20F0020040F01000D4
:1003C000A06284F824500120F8BD206880684007AE
:1003D000E8D4A06A20F0020040F00100A06284F896
:1003E00024503046F8BD00000C000020F8B5002471
:1003F000009490F824202546012A12D0012280F88A
:1004000024204A681F23072A0DD20668776B521EE4
:1004100002EB820293409F430B6893401F43776334
:1004200019E00220F8BD06680D2A0AD2376BD21FE8
:1004300002EB820293409F430B6893401F43376354
:1004400009E0F76A0D3A02EB820293409F430B6882
:1004500093401F43F7620A68072306680A2A0AD3F3
:10046000F7680A3A02EB420293409F438B6893403D
:100470001F43F76008E0376902EB420293409F4355
:100480008B6893401F4337610A68102A01D0112AF4
:1004900020D1124B02689A4217D193681B0219D4DB
:1004A000936843F4000393600968102912D10C4942
:1004B0000C4A0968B1FBF2F101EB8101490000E04F
:1004C000491E00910029FBD104E0816A41F020011E
:1004D0008162012480F824502046F8BD00240140A8
:1004E0000C00002040420F0070477047704700002A
:1004F0002DE9F0414FF0000704003D467ED0A06A90
:10050000002628B9E66284F82460204600F07EF8D0
:100510002046FFF73DFEA16AC90600D420B1A06ABB
:1005200040F01000A06269E0A16A21F4885141F016
:100530000201A1626268E169237B0A4347EA430141
:100540000A43A1684FF48077B94209D0012907D046
:100550005FF0000194F814C0BCF1010F02D00AE072
:100560003946F7E7F3B1A36A43F02003A362E36AD5
:1005700043F00103E3622368D3F804C02CF4694C10
:100580004CEA010CC3F804C021688B68DFF870C026
:1005900003EA0C0313438B60A168B9420BD0012915
:1005A00009D00CE0DFF85CC0A3690CEB43330B43CC
:1005B00043F40061DFE7218A0D05A5F58015216868
:1005C000CB6A23F470032B43CB62216889680E4BFE
:1005D0001940914208D1E662A16A21F0020141F07E
:1005E0000101A162BDE8F081A06A20F0020040F0A4
:1005F0001000A062E06A40F00100E0620120F1E733
:10060000FDF7E1FF00E0FFFFFE0E1FFF70B586B0B3
:1006100000250646009501950295039500681A4944
:1006200088422ED11949886940F400708861886930
:1006300000F400700490886940F0040088618869C3
:10064000694600F004000490C0200090032001904F
:100650000F4800F0CBF9104C0E48C4E9000580208B
:10066000C4E9025040002061800060612020C4E99C
:100670000605204600F042F908B1FFF749FE346252
:10068000666206B070BD0000002401400010024008
:100690000008014008000240400000202DE9F0471A
:1006A000894604463B4900683B4F0E1D90468842F0
:1006B00001D0B84207D1306810F4702F03D0012563
:1006C0002846BDE8F08794F8240001280CD00120CA
:1006D00084F824002046FFF7BFFD05004FF000001E
:1006E00004D084F82400EBE70220EAE7A16A40F690
:1006F0000162914341F48071A1622168B94218D12D
:10070000326812F4702F14D0A16A41F48011A162F2
:100710003168490505D5A16A21F4005141F48051A1
:10072000A162A16AC9040AD5E16A21F00601E16269
:1007300006E0A26A22F48012A2624968E9E7E06258
:1007400084F82400216A15488862216A1448C86226
:10075000216A1448086321686FF00200086020686D
:10076000816841F480718160216843464A464C317A
:10077000206A00F0F1F820688168C1F3424107293E
:10078000816803D041F48011816099E741F4A001B0
:10079000FAE700000024014000280140E7010008BA
:1007A0004F020008350200082DE9F05FC16B0C68AC
:1007B00001680B68D0F840C0042202FA0CF2494DDF
:1007C000DFF824A1494E4A4FDFF828B1DFF828E1CD
:1007D00022422CD05A072AD50A68920603D40A6806
:1007E00022F004020A600168A94201D1042219E042
:1007F000514501D1402215E0B14202D14FF480624F
:1008000010E0B94202D14FF480420BE0594502D1C9
:100810004FF4802206E0714502D14FF4800201E0DE
:100820004FF080622F4908394A60C16A3BE04FF0BF
:10083000020808FA0CF818EA040F4FF000094FF00C
:10084000010235D05FEA837832D50B689B0605D468
:100850000B6823F00A030B6080F821200168A9428D
:1008600001D1022219E0514501D1202215E0B14207
:1008700002D14FF4007210E0B94202D14FF400529D
:100880000BE0594502D14FF4003206E0714502D128
:100890004FF4001201E04FF00072124908394A602B
:1008A00080F82090816A00291AD0BDE8F05F0847DF
:1008B000082505FA0CF5254212D01B0710D50B6848
:1008C00023F00E030B6090F84010C36B02FA01F1A5
:1008D0005960826380F8212080F82090016BE2E764
:1008E000BDE8F09F080002401C00024030000240BA
:1008F00044000240580002406C00024030B528B36A
:1009000008C8134914221944B1FBF2F18900C163EC
:1009100010498163022141771A6843F6F0718A43D6
:10092000D0E900142143D0E902452C432143046956
:100930002143446921438469214311431960002103
:100940004163012242770177084630BD012030BD66
:10095000F8FFFDBF0000024070B5044690F820008B
:10096000002501280CD0012084F8200094F8216093
:100970000020012E06D084F820000225284670BDF4
:10098000022070BD022684F82160A06320680668FA
:1009900026F0010606602046FFF7A4FCE06A002866
:1009A0002068016802D041F00E0106E021F0040148
:1009B00001602068016841F00A0101602068016857
:1009C00041F001010160D9E770B5044600F004F977
:1009D0000546601C02D004480078044400F0FCF88E
:1009E000401BA042FAD370BD000000202DE9F84F53
:1009F000DFF8B8910024A9F1040B23460F2709F171
:100A0000040AABF1040EC9E00125A5402A40AA4220
:100A10007DD1674ED1F804C0ACEB0608B44532D0A6
:100A200014DCBCF1030F3AD009DCBCF1000F2AD072
:100A3000BCF1010F1CD0BCF1020F31D11DE0BCF1A3
:100A4000110F17D0BCF1120F2AD119E0B8F5881F89
:100A500019D006DCB8F5803F15D0B8F5801F1FD13E
:100A600011E0B8F5001F0ED0B8F5041F18D10AE048
:100A7000CB6815E0CB681B1D12E0CB6808330FE094
:100A8000CB680C330CE08B682BB1012B4FF00803C3
:100A900003D0456104E0042302E0056100E0002387
:100AA000FF2A01D8064601E000F104064FEA84055A
:100AB00001D9A5F12005D6F8008007FA05FC28EA3F
:100AC0000C0803FA05F548EA0508C6F800804D68E9
:100AD000ED0062D5374DAE6946F00106AE61AD69F5
:100AE00024F0030605F001050095334D06EB050CD7
:100AF000DCF80850A607360F07FA06F825EA0805BD
:100B0000DFF8B880404503D14FF0000817E044E01B
:100B1000DFF8AC80404502D14FF001080FE0DFF86C
:100B2000A480404502D14FF0020808E0DFF8988029
:100B3000404502D14FF0030801E04FF0040808FAE5
:100B400006F848EA0508CCF808804D68D9F8006036
:100B5000ED024D4601D5164300E096432E604D68E8
:100B6000DAF80060AD02554601D5164300E0964321
:100B70002E604D68DBF80060AD035D4601D516437D
:100B800000E096432E604D68DEF80060ED03754688
:100B900001D5164300E096432E60641C0D682A467A
:100BA000E5407FF431AFBDE8F88F00000804014054
:100BB0000000111000100240000001400008014038
:100BC000000C014000100140001401408068084002
:100BD00000D0012070470000014880687047000085
:100BE0000000002070B5040025D094F83D000025D9
:100BF00020B984F83C50204600F050F9242084F8B5
:100C00003D002068016821F0010101602068016851
:100C100041F4004101602068016821F40041016055
:100C200000F060FB4D4A6168914201D84C4900E0F8
:100C30004C49884201D2012070BD4B492368B0FB6A
:100C4000F1F15E6826F03F060E435E6063689342F2
:100C500006D94FF4967359434FF47A73B1FBF3F10D
:100C60002368491C1E6A26F03F06314319626168F9
:100C7000914210D84900401EB0FBF1F2521CC2F361
:100C80000B02042A01D2042022E0B0FBF1F0401C48
:100C9000C0F30B001CE0A268F2B301EBC10303EB4D
:100CA0000116431EB3FBF6F35B1C43F480431B05A4
:100CB00049D092B301EBC10202EB0111401EB0FB1F
:100CC000F1F0401CC0F30B0040F4804040F40040C1
:100CD0002168CA694CF6FF739A431043C861D4E98E
:100CE000071001432068026822F0C002114301602E
:100CF000D4E9030101432068826848F2FF339A4334
:100D000011438160D4E9050108432168CA6822F0D3
:100D1000FF021043C86001E00EE016E020680168A1
:100D200041F0010101602564202084F83D00256325
:100D300084F83E50002070BD01EB4106431EB3FB1A
:100D4000F6F35B1CB3E70120C2E701EB4101401E53
:100D5000B0FBF1F0401CC0F30B00B7E7A086010028
:100D600080841E0000093D0040420F002DE9FF4F26
:100D700083B09A46DDE9119793460446DDF840803A
:100D8000FFF72AFF054694F83D0020287FD119235C
:100D9000012240492046009500F090FD002876D1C0
:100DA00094F83C00012872D0012084F83C002068AF
:100DB0000168C90703D1016841F0010101602068A1
:100DC000016821F400610160212084F83D00402089
:100DD00084F83E0000262664C4F82480A4F82A90F3
:100DE000608D20852C48E062CDE9007553465A4657
:100DF0002046049900F0E2FC70B930E02A463946FA
:100E0000204600F001FE58B1206C042804D120686F
:100E1000016841F400710160012007B0BDE8F08F66
:100E2000606A216800780861606A401C6062218DF8
:100E3000491E89B22185628D521E628522685369DE
:100E4000DB435B070BD469B100781061606A401C1A
:100E50006062208D401E2085608D401E6085208D43
:100E60000028CBD12A463946204600F0FBFC00285A
:100E7000CAD154F83D0B016841F400710160202093
:100E800004F81E09E67766770020C6E7FFE7022030
:100E9000C3E70000020010000000FFFF10B586B09D
:100EA0000021009101910291039100680F4988424D
:100EB0001AD10F4CA06940F00800A061A0696946F2
:100EC00000F008000490C020009012200190032040
:100ED00003900848FFF78AFDE06940F40010E061E4
:100EE000E06900F40010049006B010BD005400400A
:100EF00000100240000C0140024881680278114451
:100F00008160704700000020074810B5016841F07B
:100F100010010160032000F075F80F2000F006F8C2
:100F200000F024F8002010BD0020024070B50D4DE7
:100F300004464FF47A712878B1FBF0F00A49096849
:100F4000B1FBF0F000F0A4FB48B9102C07D200224E
:100F50002146501E00F036F800206C6070BD012064
:100F600070BD0000000000200C0000200C4808B5F7
:100F7000816941F001018161816901F00101009104
:100F8000C16941F08051C161C06900F0805000909A
:100F90000448416821F0E06141F00071416008BD02
:100FA0000010024000000140002809DB00F01F0291
:100FB000012191404009800000F1E020C0F80011BB
:100FC00070470000F0B40E4B1B680C46C3F30223BD
:100FD000C3F10705042D00D90425191D072901D2E5
:100FE000002300E0DB1E012606FA05F1491E214020
:100FF00099409E40761E16403143F0BC00F0A1BFE0
:101000000CED00E0064900F0070208684FF6FF0308
:10101000184040EA0220034A10430860704700006D
:101020000CED00E00000FA0510B501460020234C4D
:10103000012922D0022939D010291DD161682268E6
:10104000D20119D51E48C1F38342C903805C0AD579
:1010500061681B4AC1F34041921E515C194AB2FBC0
:10106000F1F1484301E0184948436168490203D45B
:1010700040000321B0FBF1F010BD226AC2F3012150
:10108000012903D1920701D5C80310BD022905D15A
:10109000626A920702D549F6404010BD0329FCD18F
:1010A00021688903F9D54FF2244010BD00F02AF9D8
:1010B0006168C1F38131491C4900DBE7001002403F
:1010C0001020000800127A0000093D002DE9F843C5
:1010D00005460078354CC00754D0E0690026C000B2
:1010E00008D4E06940F08050E061E069012600F03A
:1010F000805000902E480168C90512D401688046CE
:1011000041F480710160FFF767FD074605E000BF0D
:10111000FFF762FDC01B642823D8D8F80000C00583
:10112000F6D5206A10F4407021D0A98801F44071EE
:1011300081421CD0206A1F49012220F440700A60BD
:1011400000220A602062C00711D0FFF745FD074664
:1011500041F2883808E000BFFFF73EFDC11B414562
:1011600002D90320BDE8F883206A8007F4D5206AFD
:10117000696820F44070084320621EB1E06920F0E5
:101180008050E0612878800705D56068A96820F460
:101190004040084360602878C00605D56068E9686B
:1011A00020F48000084360600020DBE7001002406C
:1011B00000700040400442422DE9F0470F46050010
:1011C00061D0434E306800F00700B84209D2306861
:1011D00020F0070038433060306800F00700B84264
:1011E00051D128683B4C810712D5400703D5606870
:1011F00040F4E06060602878000703D5606840F440
:10120000605060606068A96820F0F000084360608A
:101210002878C00728D06868012810D021680228E3
:1012200010D0890700292EDA616821F003010143FB
:101230006160FFF7D1FC804641F288390DE02168FA
:101240008903EFE78901EDE7FFF7C6FCA0EB080192
:10125000494502D90320BDE8F0876068696800F05D
:101260000C00B0EB810FEFD1306800F00700B842FE
:101270000BD9306820F0070038433060306800F048
:101280000700B84201D00120E5E72878400705D5DE
:101290006068E96820F4E06008436060287800072F
:1012A00006D56068296920F4605040EAC10060609A
:1012B00000F038F86168084AC1F30311515CC84076
:1012C0000649086006480068FFF730FE0020C2E7C4
:1012D0000020024000100240202000080C000020E6
:1012E000040000200448054900684968044AC1F325
:1012F0000221515CC84070470C00002000100240E1
:10130000302000080448054900684968044AC1F3D0
:10131000C221515CC84070470C0000200010024000
:10132000302000080E4A51680E4801F00C03042BCF
:1013300011D0082B0FD10C48C1F38343C903C05C03
:101340000AD55168084AC1F34041921E515C054AD2
:101350005043B0FBF1F07047044948437047000028
:101360000010024000127A00FE1F000800093D0034
:101370002DE9F84F040070D02078C04DC00749D047
:101380006868C0F38100012807D06868C0F3810055
:10139000022809D16868C00306D52868800339D5BA
:1013A00060680028E7D035E06068B0F5803F0BD07A
:1013B00010B1B0F5A02F11D0286820F4803028603B
:1013C000286820F4802002E0286840F480302860FB
:1013D000606890B1FFF700FC06460AE0286840F418
:1013E00080202860F0E700BFFFF7F6FB801B642831
:1013F00073D828688003F7D50CE0FFF7EDFB0646AD
:1014000005E000BFFFF7E8FB801B6428F0D82868E0
:101410008003F7D420789A4E80074FF001094FF0EF
:10142000000839D5686810F00C0F07D06868C0F361
:101430008100022809D16868C00306D428688007A3
:1014400014D52069012808D110E02069B0B1C6F890
:101450000090FFF7C1FB074605E00AE1FFF7BCFB80
:10146000C01B0228C4D828688007F7D5286861699E
:1014700020F0F80040EAC10028600DE0C6F80080C6
:10148000FFF7AAFB074604E0FFF7A6FBC01B0228F4
:1014900023D828688007F7D4207800072CD579480E
:1014A000A169D9B1C0F80090FFF796FB074604E0A8
:1014B000FFF792FBC01B02280FD8686A8007F7D598
:1014C00071484FF4FA510068B0FBF1F0009000BF92
:1014D0000098411E0091FAD20EE080E0C0F8008032
:1014E000FFF77AFB074604E0FFF776FBC01B0228F4
:1014F00075D8686A8007F7D42078400760D5E86916
:101500000027C00008D4E86940F08050E861E8692D
:10151000012700F0805000905C480168C90513D491
:101520000168834641F480710160FFF755FB8246F4
:1015300006E000BFFFF750FBA0EB0A0064284ED87E
:10154000DBF80000C005F5D5E06801280AD008B135
:10155000052813D0286A20F001002862286A20F0AC
:10156000040002E0286A40F001002862E06841F2CD
:10157000883B98B1FFF730FB82460BE0286A40F0C9
:1015800004002862EEE700BFFFF726FBA0EB0A018C
:1015900059455AD8286A8007F6D50CE0FFF71CFB9E
:1015A000824605E0FFF718FBA0EB0A0159454CD82D
:1015B000286A8007F6D41FB1E86920F08050E861FE
:1015C000E06988B36968C1F38101022944D0022827
:1015D000C6F8608004D0FFF7FFFA044638E034E034
:1015E000FFF7FAFA074604E0FFF7F6FAC01B0228F5
:1015F0002BD828688001F7D4206AB0F5803F05D148
:101600006868A16820F4003008436860D4E90801E4
:101610000843696821F4741108436860C6F8609053
:10162000FFF7DAFA044606E025E000BFFFF7D4FA38
:10163000001B022809D828688001F7D51BE000BFED
:10164000FFF7CAFA001B022802D90320BDE8F88F71
:1016500028688001F4D40EE00128F7D06868226A77
:1016600000F48031914204D1616A00F47010884224
:1016700001D00120EAE70020E8E700000010024066
:1016800000004242800442420C00002000700040F2
:1016900010B5401EB0F1807F01D3012010BD4FF086
:1016A000E02460610F21601700F04BFC0020A06176
:1016B00007202061002010BD70B5040004D094F80C
:1016C0004100002510B106E0012070BD84F84050B3
:1016D000204600F023F8242084F841002068C168E7
:1016E00021F40051C160204600F0CEFB2068016962
:1016F00021F4904101612068416921F02A01416192
:101700002068C16841F40051C1606564202084F8FC
:10171000410084F842006563002070BD30B585B09B
:1017200000240094019402940394006814498842B0
:1017300024D11448816941F480418161816901F4B7
:1017400080410491816941F00401816180690E4DFD
:1017500000F0040004904FF400700090022001900B
:101760000320039069462846FFF740F92815CDE984
:101770000004694628460294FFF738F905B030BDE9
:10178000003801400010024000080140FEE70168F7
:101790004A69D24352050FD46FF480624A61002136
:1017A00040F8301F202242738173026942F0040224
:1017B0000261017301207047002070472DE9F84352
:1017C000044600680D46DDE908970168984616460C
:1017D00041F4807101604B4600224FF00111204618
:1017E000009700F06BF848B120680068C00502D58A
:1017F0004FF4007020640320BDE8F883216805F0F1
:10180000FE0008613B464A461549204600F09EF816
:1018100088B920684169806900903A464946204667
:1018200000F0F2F848B1206C042804D12068016867
:1018300041F4007101600120DEE7F5B2B8F1010F5B
:1018400009D02168300A08613A464946204600F02E
:10185000DBF80028E7D1206805610020CCE7000014
:101860000200010070B516460D4604461EE02046F3
:10187000FFF78DFF08B1012070BD681C16D0FFF77F
:10188000ABF9801BA84200D885B920684069C043E5
:1018900040070BD5002044F8300F20216173A0735E
:1018A000216941F0200121612073E4E7206840694B
:1018B000C0434007DBD4002070BD00002DE9F04795
:1018C000984617460D460446C1F30746DDF82090BA
:1018D0002AE000BFB8F1FF3F26D0FFF77DF9A0EB6B
:1018E0000901414502D8B8F1000F1DD12068012E31
:1018F00016D0806925EA00000004000C12D00020F8
:10190000B84211D1002044F8300F20216173A07338
:10191000216941F02001216120730120BDE8F08799
:101920004069E7E70120EBE72068012E0AD08069D3
:1019300025EA00000004000C06D00020B842C9D0FF
:101940000020EBE74069F3E70120F7E72DE9F047D6
:10195000984616460D4604464FF000094FF0200AFF
:10196000C1F3074723E020684069C043400515D410
:101970002068016841F40071016021686FF48060A3
:101980004861C4F8309084F83DA084F83E90216C02
:1019900041F00401216484F83C9021E0701C06D0E1
:1019A000FFF71AF9A0EB0800B04203D816B1012FD7
:1019B0001FD021E02068012F15D0806925EA0000A2
:1019C0000004000C18D000BF44F8309F84F80DA02C
:1019D00084F80E90216941F02001216184F80C9077
:1019E0000120BDE8F087406925EA00000004000CF2
:1019F000EAD12068406901E02068806925EA00009A
:101A00000004000CAFD1ECE770B516460D46044655
:101A10001EE02046FFF7BBFE08B1012070BD681C28
:101A200016D0FFF7D9F8801BA84200D885B92068E6
:101A30004069C04300060BD5002044F8300F202138
:101A40006173A073216941F0200121612073E4E7F3
:101A500020684069C0430006DBD4002070BD000050
:101A60003EB50021174800910191154A029102608C
:101A70009215826001240473017502254FF46022DF
:101A80000561C2614160FEF733FD08B1FEF740FC1D
:101A90000620CDE90004029069460A48FEF7A6FC3C
:101AA00008B1FEF735FC0720CDE900056946054879
:101AB000FEF79CFC002801D0FEF72AFC3EBD00008A
:101AC0000024014010000020094808B5416941F098
:101AD000010141614069002200F0010000901146BF
:101AE0000B20FFF76FFABDE808400B20FFF75CBA48
:101AF0000010024000B585B000200190039011480D
:101B0000816941F020018161816901F02001049126
:101B1000816941F004018161816901F0040104914E
:101B2000816941F0080181618069694600F008001F
:101B3000049004200090012002900348FEF756FF15
:101B400005B000BD00100240000C01400D4810B56A
:101B50000B4901600C49416000214FF480428160D3
:101B6000C0E9031241618161C1610162FFF73AF886
:101B7000002803D0BDE81040FEF7CABB10BD00002E
:101B80000054004084000020A08601000C4810B5DD
:101B90000A4901604FF4E1314160002181600C226B
:101BA000C160C0E904128161C161FFF785FD0028B1
:101BB00003D0BDE81040FEF7ABBB10BD00380140BC
:101BC000D8000020FEE7FEE72DE9F74F0446891C08
:101BD000C8B2102188B001EB101100F00F00CDE960
:101BE000060100260DF10D000590401CDFF8B0B095
:101BF00037464FF47A7A4FF001080DF10F0904903F
:101C000004F1B0008DF80C0007988DF80D000698CF
:101C100003A9CDE900188DF80E00554601230022D6
:101C2000CDF808A078211F48FFF7A0F80599CDE965
:101C3000001801230022029578211A48FFF796F830
:101C40000499CDE900180123002202957821154856
:101C5000FFF78CF800250A98012306EB001101EB31
:101C60000B00A0F58050402290F8000ECDE90098BE
:101C70008DF80F0078210B48CDF808A0FFF776F813
:101C8000761C6D1CEDB2F6B2082DE4D3641C7F1CEB
:101C9000FFB2E4B2022FB3D30BB0BDE8F08F000067
:101CA00038200008840000202DE9F04186B021A0F2
:101CB0000DF1100800680490B0208DF80C004FF46E
:101CC0007A7501240DF1110703A88DE83100012375
:101CD000002278211848FFF749F8CDF80080012349
:101CE000002278211448CDE90145FFF73FF800971D
:101CF0000123002278211048CDE90145FFF736F88D
:101D0000002600970123402278210B48CDE90145A8
:101D1000FFF72CF8761CF6B2842EF2D39DF80C0057
:101D2000401CC0B28DF80C00B828CDD306B0BDE879
:101D3000F081000010000000840000202DE9F04731
:101D40001E460024814615464FF00A088F190FE001
:101D5000B5FBF8F108FB1152381BC0000838C1B2BE
:101D600048463032FFF730FFB5FBF8F5641CE4B2AB
:101D7000B442EDD3BDE8F0871FB508A04FF47A72E6
:101D800000680390032103A88DE8070001230022C7
:101D900078210348FEF7EAFF1FBD0000AE8D10005A
:101DA0008400002000B58BB01C2209A103A8FEF717
:101DB000B9F94FF47A721C2103A88DE807000123BA
:101DC000002278210948FEF7D1FF0BB000BD0000CA
:101DD000AE0010D580A83FD300B0408D14A1C8DA62
:101DE0001281FFD9F1DB302000A4A6AF84000020CF
:101DF00010B5FFF7C1FFFFF757FFFFF7D3FFBDE8AF
:101E00001040FFF751BF70477047FFF775B830B506
:101E100093B028216846FEF79EF914210AA8FEF720
:101E20009AF9002501200F9510951195010412953E
:101E30008DE8230004904FF4E010CDE9081002244F
:101E400007946846FFF794FA08B172B6FEE70AA94C
:101E50000F2081E831004FF48060CDE90D050221AB
:101E60000AA8FFF7A9F908B172B6FEE74FF40040DF
:101E700011900F940FA8FFF729F9002801D072B62E
:101E8000FEE713B030BD704770B5044600680169C5
:101E9000E26821F44051114301612169A0680843BF
:101EA000616908432168CA6841F20C639A4302439E
:101EB000CA6020684169A26921F4407111434161FF
:101EC0001E492068884202D1FFF71CFA01E0FFF7A3
:101ED00009FA00EBC00101EB001260686421800088
:101EE000B2FBF0F3B3FBF1F36FF018067343B2FBF0
:101EF000F0F5B2FBF0F605EB8305322303EB051595
:101F0000B5FBF1F5B6FBF1F605F0F00505EB0615AE
:101F1000B2FBF0F6B2FBF0F0B0FBF1F06FF018029C
:101F2000504306EB800003EB0010B0FBF1F021689A
:101F300000F00F002844886070BD000000380140A8
:101F4000FEE70907090E002804DB00F1E02080F815
:101F50000014704700F00F0000F1E02080F8141D1D
:101F6000704702E008C8121F08C1002AFAD1704762
:101F70007047002001E001C1121F002AFBD1704709
:101F800008B500200090FEF7BFFFFFF740FFFFF706
:101F9000B1FDFFF799FDFFF763FDFFF7D7FDFFF7F1
:101FA000F5FDFFF725FF1348FEF7B4F90222694655
:101FB0001048FEF773FB104CBDF8002000210423ED
:101FC0000846FFF7BBFEBDF80220042300210220D3
:101FD000FFF7B4FE04212046FEF7F8FD30B90421D6
:101FE0002046FEF7F3FD08B9FFF75EFE6420FEF71A
:101FF000EBFCE1E710000020000C014001020203AD
:102000000405060708090A0B0C0D0E0F101001023B
:1020100002030405060708090A0B0C0D0E0F101029
:102020000000000000000000010203040607080988
:102030000000000001020304000000000000000096
:102040000000000000000000000038FCFC38000028
:102050000000000D0D000000000E1E00001E0E000E
:10206000000000000000000020F8F820F8F8200030
:10207000020F0F020F0F0200387C444747CC980034
:102080000306041C1C07030030300080C0603000D1
:102090000C060301000C0C0080D87CE4BCD8400086
:1020A000070F0808070F080000101E0E00000000B0
:1020B00000000000000000000000F0F80C04000028
:1020C000000003070C0800000000040CF8F00000FA
:1020D0000000080C0703000080A0E0C0C0E0A08062
:1020E0000002030101030200008080E0E080800024
:1020F00000000003030000000000000000000000DA
:102100000000101E0E000000808080808080800013
:1021100000000000000000000000000000000000BF
:102120000000000C0C00000000000080C0603000C7
:102130000C06030100000000F8FC04C424FCF800B5
:10214000070F0908080F0700001018FCFC0000002A
:102150000008080F0F080800080C84C4643C18002D
:102160000E0F0908080C0C00080C444444FCB8008D
:10217000040C0808080F0700C0E0B098FCFC8000C1
:10218000000000080F0F08007C7C4444C4C4840095
:10219000040C0808080F0700F0F84C4444C0800005
:1021A000070F0808080F07000C0C0484C47C3C00CF
:1021B00000000F0F00000000B8FC444444FCB800CD
:1021C000070F0808080F0700387C444444FCF80057
:1021D000000808080C070300000000303000000071
:1021E0000000000606000000000000303000000083
:1021F0000000080E060000000080C06030180800D3
:1022000000000103060C08004040404040404000F0
:1022100002020202020202000008183060C08000C0
:1022200000080C0603010000181C04C4E43C18005C
:102230000000000D0D000000F0F808C8C8F8F0001C
:10224000070F080B0B0B0100E0F0988C98F0E000F2
:102250000F0F0000000F0F0004FCFC4444FCB8000A
:10226000080F0F08080F0700F0F80C04040C180002
:1022700003070C08080C060004FCFC040CF8F00032
:10228000080F0F080C07030004FCFC44E40C1C00BE
:10229000080F0F08080C0E0004FCFC44E40C1C00A2
:1022A000080F0F0800000000F0F80C84848C9800E0
:1022B00003070C0808070F00FCFC404040FCFC0032
:1022C0000F0F0000000F0F00000004FCFC040000D2
:1022D0000000080F0F08000000000004FCFC0400D0
:1022E000070F08080F07000004FCFCC0F03C0C00BE
:1022F000080F0F00010F0E0004FCFC04000000009A
:10230000080F0F08080C0E00FCFC387038FCFC00AD
:102310000F0F0000000F0F00FCFC3870E0FCFC0009
:102320000F0F0000000F0F00F0F80C040CF8F00085
:1023300003070C080C07030004FCFC44447C380031
:10234000080F0F0800000000F8FC040404FCF8006B
:10235000070F080E3C3F270004FCFC44C4FC380077
:10236000080F0F00000F0F00183C6444C49C1800B5
:10237000060E0808080F0700001C0CFCFC0C1C00D3
:102380000000080F0F080000FCFC000000FCFC002F
:10239000070F0808080F0700FCFC000000FCFC0009
:1023A0000103060C06030100FCFC008000FCFC009D
:1023B000030F0E030E0F03000C3CF0C0F03C0C00AA
:1023C0000C0F0300030F0C00003C7CC0C07C3C00E1
:1023D0000000080F0F0800001C0C84C4643C1C00A3
:1023E0000E0F0908080C0E000000FCFC040400009D
:1023F00000000F0F080800003870E0C080000000E7
:102400000000000103070E0000000404FCFC0000B3
:10241000000008080F0F0000080C0603060C080057
:1024200000000000000000000000000000000000AC
:10243000202020202020202000000307040000008E
:10244000000000000000000000A0A0A0E0C000000C
:10245000070F0808070F080004FCFC2060C080007C
:10246000080F0708080F0700C0E020202060400088
:10247000070F0808080C040080C06024FCFC000062
:10248000070F0808070F0800C0E0A0A0A0E0C000E8
:10249000070F0808080C040040F8FC440C18000062
:1024A000080F0F0800000000C0E02020C0E020005E
:1024B000276F48487F3F000004FCFC4020E0C0003C
:1024C000080F0F00000F0F00000020ECEC000000D0
:1024D0000000080F0F0800000000000020ECEC00D6
:1024E00000307040407F3F0004FCFC80C060200052
:1024F000080F0F01030E0C00000004FCFC0000009C
:102500000000080F0F080000E0E060C060E0C000BD
:102510000F0F000F000F0F0020E0C02020E0C000D0
:10252000000F0F00000F0F00C0E0202020E0C000CF
:10253000070F0808080F070020E0C02020E0C000B7
:10254000407F7F48080F0700C0E02020C0E0200047
:10255000070F08487F7F400020E0C0602060C00077
:10256000080F0F080000000040E0A020206040009D
:10257000040C09090B0E04002020F8FC20200000A8
:102580000000070F080C0400E0E00000E0E000009D
:10259000070F0808070F080000E0E00000E0E00077
:1025A0000003070C0C070300E0E0000000E0E0007F
:1025B000070F0C070C0F07002060C080C0602000D0
:1025C000080C0703070C0800E0E0000000E0E00052
:1025D000474F4848683F1F00606020A0E06020002F
:1025E0000C0E0B09080C0C00004040F8BC04040061
:1025F000000000070F080800000000BCBC0000003D
:102600000000000F0F000000000404BCF840400070
:102610000008080F07000000080C040C080C040058
:10262000000000000000000080C0603060C080003A
:1026300007070404040707005826000800000020CC
:1026400010000000621F000868260008100000202B
:1026500010050000721F00080100000010000000BB
:08266000000000000024F4005A
:04000005080000ED02
:00000001FF
