:020000040800F2
:10000000F0070020AD010008FD2B0008372700088D
:10001000F92B0008B90200082D3600080000000086
:10002000000000000000000000000000292C000873
:10003000F703000800000000012C00082B2C00082A
:10004000C7010008C7010008C7010008C701000870
:10005000C7010008C7010008C7010008C701000860
:10006000C7010008C7010008C7010008C701000850
:10007000C7010008BD020008C7010008C701000849
:10008000C7010008C7010008C70100080000000000
:10009000000000000000000000000000C701000890
:1000A000F92C0008112D0008C7010008C70100083D
:1000B000212D0008C7010008312D0008C7010008E4
:1000C000C7010008C7010008C7010008052C000887
:1000D000C70100081D360008C70100080000000025
:1000E000C7010008C7010008C701000800000000A0
:1000F000000000000000000000000000C701000830
:1001000000000000C7010008412D0008C7010008D9
:1001100000000000000000000000000000000000DF
:10012000C7010008C7010008CD020008C701000888
:10013000C7010008000000000000000000000000EF
:10014000000000000000000000000000C7010008DF
:10015000C7010008C7010008DD020008C701000848
:10016000C7010008C70100080000000000000000EF
:10017000000000000000000000000000000000007F
:1001800000000000C701000800000000000000009F
:10019000C7010008C7010008DFF80CD000F07AF8AA
:1001A0000048004789360008F007002006488047CD
:1001B00006480047FEE7FEE7FEE7FEE7FEE7FEE74C
:1001C000FEE7FEE7FEE7FEE7E52C000899010008E0
:1001D0002DE9F05F0546002092469B46884606467C
:1001E000814640241BE0284641464746224600F00F
:1001F00041F853465A46C01A914110D31146184649
:10020000224600F028F82D1A67EB01084F462246D7
:100210000120002100F01FF817EB00094E41201EBD
:10022000A4F10104DFDC484631462A464346BDE8D6
:10023000F09FD2B201E000F8012B491EFBD27047BB
:100240000022F6E710B513460A4604461946FFF7A2
:10025000F0FF204610BD202A04DB203A00FA02F10C
:10026000002070479140C2F1200320FA03F31943A4
:1002700090407047202A04DB203A21FA02F0002146
:10028000704721FA02F3D040C2F1200291400843A6
:1002900019467047064C074D06E0E06840F0010340
:1002A00094E8070098471034AC42F6D3FFF778FF84
:1002B0001C3700083C37000800BFFEE710B50248B5
:1002C00000F008F910BD0000CC00002010B5024875
:1002D00000F000F910BD00003003002010B5024806
:1002E00000F0F8F810BD00009003002001460878E7
:1002F00010381823B0FBF3F20848805CC865032A65
:1003000005D908686FF30900001D886503E00868D7
:100310006FF309008865886D70470000FC3600089F
:10032000014600208A6A8B69CBB932B1012A0DD00F
:10033000022A03D0032A10D10EE000BFCB6A03F0DB
:100340008073B3F1807F00D1012007E0CB6AB3F165
:10035000C07F00D1012001E000E000BF34E08B69E4
:10036000B3F5005F1AD132B1012A07D0022A03D0B7
:10037000032A11D10AE000BF01200EE0CB6A03F08E
:100380008073B3F1807F00D1012006E0CB6AB3F126
:10039000C07F00D1012000E000BF15E032B1012A8A
:1003A00005D0022A04D0032A0CD103E000BF00BF0D
:1003B000012008E0CB6A03F08073B3F1807F00D1A5
:1003C000012000E000BF00BF704730B5046824681A
:1003D00024F4802405682C60046863608468402CE1
:1003E00004D10468A2600468E16003E00468A160CD
:1003F0000468E26030BD704772B600BFFEE770B5BA
:100400000446A56D00F030FB064694F8350002283E
:1004100008D08020606500BF002084F8340000BF51
:10042000012070BD2068006820F016002168086077
:100430002068406920F0800021684861206C08B97C
:10044000A06C28B12068006820F0080021680860CE
:100450002068006820F001002168086010E000F0CA
:1004600003FB801B05280BD920206065032084F83E
:10047000350000BF002084F8340000BF0320D0E71F
:100480002068006800F001000028E8D194F85C10B2
:100490003F208840A860012084F8350000BF00207C
:1004A00084F8340000BF00BFBBE7014691F8350077
:1004B000022803D08020486501207047052081F87C
:1004C00035000868006820F001000A68106000200C
:1004D000F3E70000F8B50446002000908C4800685F
:1004E0004FF41651B0FBF1F7A56D2E6894F85C102F
:1004F00008208840304098B12068006800F004006F
:1005000070B12068006820F004002168086094F849
:100510005C1008208840A860606D40F001006065B4
:1005200094F85C1001208840304068B12068406930
:1005300000F0800040B194F85C1001208840A86071
:10054000606D40F00200606594F85C100420884003
:10055000304068B12068006800F0020040B194F8B3
:100560005C1004208840A860606D40F00400606565
:1005700094F85C1010208840304078B32068006800
:1005800000F0080050B394F85C1010208840A86078
:100590002068006800F4802080B12068006800F4C2
:1005A000002028B9206CC8B12046216C884715E08E
:1005B000A06C98B12046A16C88470FE020680068C5
:1005C00000F4807028B92068006820F008002168D5
:1005D0000860206C10B12046216C884794F85C10AC
:1005E000202088403040002865D02068006800F056
:1005F000100000285FD094F85C1020208840A8608C
:1006000094F83500052828D12068006820F01600ED
:10061000216808602068406920F0800021684861F6
:10062000206C08B9A06C28B12068006820F0080090
:100630002168086094F85C103F208840A860012081
:1006400084F8350000BF002084F8340000BF206D1E
:1006500010B12046216D8847F8BD2068006800F47D
:10066000802080B12068006800F4002028B9606C08
:1006700010B12046616C88471DE0E06BD8B1204680
:10068000E16B884717E02068006800F4807068B963
:100690002068006820F0100021680860012084F8BC
:1006A000350000BF002084F8340000BFE06B10B1BB
:1006B0002046E16B8847606D38B3606D00F0010043
:1006C000F0B1052084F835002068006820F00100B2
:1006D0002168086000BF0098401C0090B84200D913
:1006E00005E02068006800F001000028F3D100BF99
:1006F000012084F8350000BF002084F8340000BFDA
:10070000E06C10B12046E16C884700BFA4E7000010
:100710000C0000202DE9F0410446002500F0A4F96A
:10072000074614B90120BDE8F081606A00B100BF3E
:10073000022084F8350000BF002084F8340000BF98
:100740002068006820F00100216808600AE000F0DD
:100750008BF9C01B052805D920206065032084F88B
:100760003500E0E72068006800F001000028EED1C5
:100770002068056821480540D4E901010843E16883
:1007800008432169084361690843A1690843E16995
:100790000843216A08430543606A042803D1D4E969
:1007A0000B0108430543206805602068456925F072
:1007B0000705606A0543606A04280DD1A06A0543F5
:1007C000E06A48B12046FFF7ABFD28B140206065E4
:1007D000012084F83500A6E7206845612046FFF730
:1007E00085FD064694F85C103F208840B0600020EC
:1007F0006065012084F83500002094E73F8010F008
:100800002DE9F04704460D4616461F464FF00008F6
:10081000D4F8589000BF94F83400012802D1022087
:10082000BDE8F087012084F8340000BF94F835005B
:10083000012825D1022084F83500002060653B4660
:10084000324629462046FFF7C0FD94F85C103F2051
:100850008840C9F808002068006840F01600216848
:100860000860206C28B12068006840F0080021680A
:1008700008602068006840F001002168086006E018
:1008800000BF002084F8340000BF4FF0020840464B
:10089000C6E70000F8B502460B46002500240020FC
:1008A0000021C7E0012606FA01F51E6806EA0504E4
:1008B000AC4274D11E7906F00306012E04D01E79D5
:1008C00006F00306022E13D190684F000326BE40A7
:1008D000B0434F00DE68BE40304390605068012650
:1008E0008E40B0431E79C6F300168E4030435060F0
:1008F0001E7906F00306032E09D0D0684F000326A8
:10090000BE40B0434F009E68BE403043D0601E7969
:1009100006F00306022E13D1CF0802F1200656F886
:1009200027004E07F70E0F26BE40B0434F07FF0EBD
:100930001E69BE403043CF0802F1200646F827006A
:1009400010684F000326BE40B0431E7906F0030630
:100950004F00BE40304310605E6806F44036002E03
:1009600067D000BF00260096344E366846F48046B5
:10097000324F3E603E46366806F48046009600BF21
:1009800000BF2F4E8F0856F827008E07370F0F260F
:10099000BE40B0432B4EB24202D1002615E048E0E3
:1009A000294EB24201D101260FE0284EB24201D1B8
:1009B00002260AE0264EB24201D1032605E0254E6A
:1009C000B24201D1042600E007268F073F0FBE4048
:1009D00030431B4E8F0846F827001F4E3068A04357
:1009E0005E6806F4801606B120431B4E3060361D4B
:1009F0003068A0435E6806F4001606B12043164E28
:100A0000361D3060144E361F3068A0435E6806F411
:100A1000003606B12043104E361F3060361F306856
:100A2000A0435E6806F4803606B120430A4E083EB5
:100A30003060491C1029FFF435AFF8BD443802403E
:100A40000838014000000240000402400008024053
:100A5000000C024000100240083C01400AB18161D4
:100A600001E00B0483617047014800687047000093
:100A70000000002070B504460CB9012070BD94F848
:100A80003D0028B9002084F83C00204600F0DAF848
:100A9000242084F83D002068006820F001002168CF
:100AA00008602068006840F4004021680860206801
:100AB000006820F400402168086000F00FFB054644
:100AC0005C496068884206D85B48854201D20120B3
:100AD00007E0002005E05948854201D2012000E0EE
:100AE0000020012800D1C9E75548B5FBF0F6206881
:100AF000406820F03F003043216848604D496068FD
:100B0000884201D8701C07E04FF4967070434FF490
:100B10007A71B0FBF1F0401C2168096A21F03F01B5
:100B200008432168086243496068884214D8681EF7
:100B300061684900B0FBF1F0401CC0F30B000428D1
:100B400001D204203DE0681E61684900B0FBF1F06D
:100B5000401CC0F30B0034E0A06838B9681E61681F
:100B600001EB4101B0FBF1F0401C0AE0681E616836
:100B700001EBC10202EB0111B0FBF1F0401C40F4AB
:100B80008040C0F30B0008B901201AE0A06848B902
:100B9000681E616801EB4101B0FBF1F0401CC0F33D
:100BA0000B000CE0681E616801EBC10202EB011151
:100BB000B0FBF1F0401CC0F30B0040F4804040F467
:100BC00000402168C9694CF6FF72914308432168CF
:100BD000C861D4E9070108432168096821F0C00110
:100BE000084321680860D4E9031008432168896834
:100BF00048F2FF329143084321688860D4E9050137
:100C000008432168C96821F0FF0108432168C860D2
:100C10002068006840F0010021680860002020641E
:100C2000202084F83D000020206384F83E0000BFAF
:100C300024E70000A086010080841E0000093D001A
:100C400040420F0010B586B00446142101A8FFF7FA
:100C5000F7FA4D492068884230D100BF002000904B
:100C60004A48006840F002004849086008460068A9
:100C700000F00200009000BF00BF4FF4C070019070
:100C8000122002900020039003200490042005907D
:100C900001A93F48FFF7FEFD00BF002000903B4840
:100CA0001030006840F400103849103108600846E0
:100CB000006800F40010009000BF62E03549206831
:100CC00088425ED100BF002000903048006840F0AC
:100CD00002002E4908600846006800F002000090FB
:100CE00000BF00BF08150190122002900020039061
:100CF000032004900420059001A92548FFF7CAFDB0
:100D00004FF4007001901220029000200390032005
:100D100004900920059001A91D48FFF7BBFD00BF05
:100D20000020009019481030006840F480001749F6
:100D3000103108600846006800F48000009000BF91
:100D400000BF1548154908604FF0606048600021F9
:100D500012488160C1604FF48061016100214161EE
:100D600081614FF48071C161002101624162FFF72E
:100D7000D1FC08B1FFF740FB00BF0848A0638463C3
:100D800000BF06B010BD00000054004030380240E3
:100D9000000402400058004040600240CC000020A7
:100DA000034800680349097808440149086070470E
:100DB000000000200800002010B50D48006840F435
:100DC00000700B4908600846006840F480600860C5
:100DD0000846006840F480700860032000F0A2F824
:100DE000002000F007F800F02BF8002010BD0000F4
:100DF000003C024070B504460E4800784FF47A710A
:100E0000B1FBF0F00C490968B1FBF0F5284600F0A1
:100E100099FD08B1012070BD102C07D20022214697
:100E2000501E00F041F80548046001E00120F2E79F
:100E30000020F0E7080000200C0000200400002043
:100E400008B500BF002000900E48006840F48040C4
:100E50000C4908600846006800F48040009000BF1C
:100E600000BF00BF00200090081F006840F08050C5
:100E7000091F08600846006800F08050009000BF1D
:100E800000BF08BD4438024001460846002809DB7F
:100E900000F01F0301229A4043099B0003F1E02365
:100EA000C3F8002100BF70472DE9F05F80460D4672
:100EB0001646002702F0BCFB074639462A46334651
:100EC00001F00700C0F1070ABAF1040F02D94FF090
:100ED000040A01E0C0F1070AD14600F1040ABAF1A0
:100EE000070F02D24FF0000A01E0A0F1030AD44636
:100EF0004FF0010A0AFA09FAAAF1010A0AEA020AFB
:100F00000AFA0CFA4FF0010B0BFA0CFBABF1010BD8
:100F10000BEA030B4AEA0B042146404602F090FB21
:100F2000BDE8F09F00BF00F00702064B19684FF6BE
:100F3000FF031940044B0B4343EA0221014B1960A4
:100F400000BF70470CED00E00000FA0570B50446E4
:100F50000D460CB9012070BD5848006800F007002C
:100F6000A84209D255490D700846006800F00700F4
:100F7000A84201D00120EEE7207800F0020002280C
:100F80001DD1207800F00400042805D14C480068E9
:100F900040F4E0504A490860207800F00800082832
:100FA00005D14748006840F460404549086044481E
:100FB000006820F0F000A1680843414908602078EB
:100FC00000F00100A8B36068012807D13C48083848
:100FD0000068C0F34040B8B90120BCE7606802284F
:100FE00002D06068032807D1354808380068C0F38C
:100FF000406048B90120AEE7314808380068C0F3C6
:10100000400008B90120A6E72D48006820F0030041
:10101000616808432A490860FFF726FD064609E093
:10102000FFF722FD801B41F28831884202D903205C
:1010300091E707E02248006800F00C006168B0EB1F
:10104000810FEDD11D48006800F00700A84209D9C2
:101050001A490D700846006800F00700A84201D048
:10106000012078E7207800F00400042807D1144814
:10107000006820F4E050E1680843114908602078D6
:1010800000F00800082808D10D48006820F46040EE
:10109000216940EAC1000A49086000F03FF80849A8
:1010A0000968C1F30311074A515CC840064908604A
:1010B00006480068FFF79EFE00204CE7003C024017
:1010C00008380240043700080C000020040000200B
:1010D00001480068704700000C00002000B5FFF7D1
:1010E000F7FF04490968C1F38221034A515CC840F3
:1010F00000BD0000083802401437000800B5FFF7B3
:10110000E7FF04490968C1F34231034A515CC84012
:1011100000BD000008380240143700082DE9F047F0
:10112000002400250026A1462548006800F00C0098
:1011300020B1042805D008283AD105E0DFF88490D2
:1011400039E0DFF8849036E01D48001F006800F0A9
:101150003F041B48001F006800F4800078B11A4863
:101160001749091F0968C1F38811A0FB01700146E6
:10117000224600233846FFF72BF805460EE01148BB
:101180000F49091F0968C1F38811A0FB01700146CE
:10119000224600233846FFF71BF805460848001F83
:1011A0000068C0F30140401C4600B5FBF6F902E0C0
:1011B000DFF8109000BF00BF4846BDE8F087000090
:1011C000083802400024F40040787D01F8B5044658
:1011D0000CB90120F8BD207800F00100002874D07F
:1011E000F948006800F00C0004280DD0F6480068AB
:1011F00000F00C00082813D1F348001F006800F429
:101200008000B0F5800F0BD1EF4808380068C0F3BC
:101210004040002859D06068002856D10120D9E705
:1012200000BF6068B0F5803F08D1E7480838006823
:1012300040F48030E449083908601EE06068B0F589
:10124000A02F0DD1E0480838006840F48020DE4926
:10125000083908600846006840F4803008600CE0F7
:10126000D9480838006820F48030D7490839086028
:101270000846006820F48020086000BF606890B1D4
:10128000FFF7F2FB054606E0FFF7EEFB401B642884
:1012900001D903209EE7CC4808380068C0F34040DD
:1012A0000028F1D011E0FFF7DFFB054606E0FFF76D
:1012B000DBFB401B642801D903208BE7C2480838B8
:1012C0000068C0F340400028F1D1207800F002000F
:1012D00002285FD1BC48006800F00C0058B1BA4841
:1012E000006800F00C0008281CD1B748001F0068F7
:1012F00000F48000B0B9B44808380068C0F340007A
:1013000020B1E068012801D0012063E7AE48083829
:10131000006820F0F800216940EAC100AA490839B4
:10132000086037E0E06800B30120A8490860FFF7D3
:101330009BFB054606E0FFF797FB401B022801D9FF
:10134000032047E7A04808380068C0F340000028A1
:10135000F1D09D480838006820F0F800216940EA83
:10136000C10099490839086014E0002097490860D5
:10137000FFF77AFB054606E0FFF776FB401B0228E5
:1013800001D9032026E7904808380068C0F34000E0
:101390000028F1D1207800F0080008282CD16069DD
:1013A000A8B101208A490860FFF75EFB054606E008
:1013B000FFF75AFB401B022801D903200AE78248A5
:1013C0006C300068C0F340000028F1D014E0002029
:1013D0007F490860FFF748FB054606E0FFF744FB3E
:1013E000401B022801D90320F4E677486C300068DE
:1013F000C0F340000028F1D1207800F00400042858
:1014000070D1002770483830006800F0805090B9E3
:1014100000BF002000906C483830006840F08050D9
:101420006949383108600846006800F08050009033
:1014300000BF00BF01276748006800F48070B0B9A2
:101440006448006840F4807062490860FFF70CFB54
:10145000054606E0FFF708FB401B022801D90320E0
:10146000B8E65C48006800F480700028F2D000BF45
:10147000A068012808D154486830006840F0010095
:101480005149683108601DE0A06805280DD14E481B
:101490006830006840F004004B4968310860084635
:1014A000006840F0010008600CE0474868300068C0
:1014B00020F001004449683108600846006820F0C7
:1014C0000400086000BFA068A8B1FFF7CDFA054688
:1014D00009E0FFF7C9FA401B41F28831884202D97E
:1014E000032077E626E0384868300068C0F3400003
:1014F0000028EED013E0FFF7B7FA054608E0FFF743
:10150000B3FA401B41F28831884201D9032061E6D9
:101510002D4868300068C0F340000028EFD1012F4B
:1015200007D129483830006820F0805026493831EA
:10153000086000BFA069002845D02348006800F07B
:101540000C0008285DD0A069022845D100201F4961
:101550000866FFF789FA054606E0FFF785FA401BA3
:10156000022801D9032035E6174808380068C0F37F
:1015700040600028F1D1D4E907010843616A40EADC
:1015800081110122A06AC2EB500041EA00412C20E7
:10159000005D41EA00600C49091F086001200B4909
:1015A0000866FFF761FA054606E0FFF75DFA401BA3
:1015B000022801D903200DE6034808380068C0F36B
:1015C00040600028F1D049E008380240000047425E
:1015D000800E474200700040002021490866FFF756
:1015E00043FA054606E0FFF73FFA401B022801D9FF
:1015F0000320EFE51B480068C0F340600028F2D1EB
:101600002CE0A069012800D1E4E51648001D066819
:10161000A069012820D006F48001E06981421BD135
:1016200006F03F01206A814216D147F6C070304073
:10163000616AB0EB811F0FD106F440310122A06A2C
:10164000C2EB5000B1EB004F06D106F070612C20C8
:10165000005DB1EB006F01D00120BBE50020B9E5D2
:10166000000047420038024070470000F8B50446C9
:101670002068466820688568C5F3801048B905F081
:10168000010030B1C6F3801018B12046216C8847A4
:10169000F8BDC5F3400030B1C6F3C01018B1204604
:1016A000616C8847F4E7C5F3401030B9C5F380108A
:1016B00018B9C5F3002000287CD0C6F340100028DC
:1016C0007DD0C5F38010F0B194F8510003280ED0FE
:1016D000606D40F00400606500BF0020009020684D
:1016E000C068009020688068009000BF0BE000BFD9
:1016F000002000902068C0680090206880680090FA
:1017000000BF00BFC4E7C5F3401088B1606D40F072
:101710000100606500BF0020009020688068009094
:101720002068006820F040002168086000BF00BF0A
:10173000C5F3002058B1606D40F00800606500BF3F
:101740000020009020688068009000BF00BF606D9E
:1017500078B32068406820F0E000216848600120EC
:1017600084F8510006F00200022802D006F00100C1
:1017700008B32068406820F0030021684860E06CEE
:1017800050B11048E16C0865E06CFEF78EFE18B1B0
:10179000606D40F040006065A06C50B10948A16CDC
:1017A0000865A06CFEF781FE18B1606D40F0400046
:1017B000606503E003E02046FFF756FF68E700BFDF
:1017C00066E70000152C000810B504460CB901208E
:1017D00010BD606A38B96068B0F5827F00D105E05D
:1017E0000021E16102E00021216161610021A1622B
:1017F00094F8510028B9002084F85000204600F0E9
:1018000047F8022084F851002068006820F040006A
:1018100021680860A08800F48270218901F40441E5
:101820000843A18901F400610843217C01F0020111
:101830000843217D01F001010843218B01F400716F
:101840000843217F01F0380108432021095D01F0A0
:1018500080010843218D01F400510843216808608C
:101860000421A06901EA104094F8241001F010014D
:101870000843216848602068C06920F4006021683E
:10188000C86100206065012084F8510000209FE7B6
:1018900010B586B00446142101A8FEF7D1FC2649F4
:1018A0002068884245D100BF00200090234800688E
:1018B00040F48050214908600846006800F48050D8
:1018C000009000BF00BF00BF002000901B481438EC
:1018D000006840F0010019491439086008460068A2
:1018E00000F00100009000BF00BF10200190022016
:1018F000029001200390022004900520059001A988
:101900000F48FEF7C7FFE020019002200290002060
:101910000390032004900520059001A90848FEF7D4
:10192000B9FF002202212320FFF7BEFA2320FFF790
:10193000ABFA06B010BD0000003001404438024050
:101940000000024070B504462546681EB0F1807F55
:1019500001D301200FE0681E4FF0E02148610F2104
:101960004FF0FF3001F06CFE00204FF0E021886165
:1019700007200861002070BD7047704730B50246EF
:101980000B4600BF92F83C00012801D1022030BD77
:10199000012082F83C0000BF022082F83D00106860
:1019A00044681068816824F0700418680443106863
:1019B0004460144D1068A84213D01068B0F1804FF5
:1019C0000FD0114D1068A8420BD0104D1068A842DE
:1019D00007D00F4D1068A84203D00E4D1068A842E2
:1019E00005D121F080015868014310688160012011
:1019F00082F83D0000BF002082F83C0000BF00BF1D
:101A0000C5E700000000014000040040000800405D
:101A1000000C00400040014010B504460CB9012004
:101A200010BD94F83D0028B9002084F83C00204601
:101A300000F026F8022084F83D00211D206801F006
:101A400087F9012084F8460000BF84F83E00012198
:101A50003F200155402001554120015500BF00BFE6
:101A6000012084F8420043200155442001554520BF
:101A7000015500BF012084F83D000020D0E70000A0
:101A800038B504461D492068884218D100BF00209F
:101A900000901B48006840F004001949086008469F
:101AA000006800F00400009000BF00BF0022114653
:101AB0001E20FFF7F9F91E20FFF7E6F91DE0114996
:101AC0002068884219D100BF002000900C48001DFA
:101AD000006840F480300A49091D08600846006823
:101AE00000F48030009000BF00BF00221146182093
:101AF000FFF7DAF91820FFF7C7F938BD00080040F2
:101B000040380240004001402DE9F04104460D46B6
:101B1000002700BF94F83C00012802D10220BDE854
:101B2000F081012084F83C0000BF022084F83D00D1
:101B30002068866826F0770626F47F46206886604F
:101B40002868502833D00CDC202850D004DC002832
:101B50004BD0102851D149E0302849D040284CD1F1
:101B600039E060282DD0702807D0B0F5805F03D011
:101B7000B0F5005F41D10DE041E0D5E902136A689C
:101B8000206801F037F92068866846F077062068FB
:101B9000866034E0D5E902136A68206801F02AF90A
:101BA0002068806840F480402168886027E0EA6807
:101BB0006968206801F0EEF95021206801F025F9EC
:101BC0001DE0EA686968206801F0F7F96021206883
:101BD00001F01BF913E0EA686968206801F0DAF99E
:101BE0004021206801F011F909E000BF00BF00BFEB
:101BF0002968206801F009F901E0012700BF00BF52
:101C0000012084F83D0000BF002084F83C0000BFA4
:101C1000384684E72DE9F04104460D4614B9012009
:101C2000BDE8F08194F83D0028B9002084F83C001C
:101C3000204600F053F8022084F83D0020688068B8
:101C400044F20701884321688860211D206801F063
:101C50007FF82068D0F80880206886692068076AC5
:101C6000286840EA080840F203308643A969A8685A
:101C700040EA0120064340F60C4086434FF2F00054
:101C80008643E969E86840EA0120064328690001C3
:101C9000296A40EA0130064327F0220727F0880727
:101CA0006969686840EA011007432068C0F8088045
:101CB0002068866120680762012084F8460084F865
:101CC0003E0001213F200155012084F842004320BD
:101CD0000155012084F83D000020A1E710B586B031
:101CE0000446142101A8FEF7ABFA50492068884247
:101CF00040D100BF002000904D48006840F0010036
:101D00004B4908600846006800F00100009000BFE1
:101D100000BF00BF0020009045481438006840F024
:101D200001004349143908600846006800F00100CA
:101D3000009000BF00BF4FF440700190022002905D
:101D40000020039004900120059001A93948FEF776
:101D5000A1FD002211461820FFF7A6F81820FFF772
:101D600093F8002211461920FFF79EF81920FFF77B
:101D70008BF859E02068B0F1804F55D100BF0020AA
:101D800000902B48001F006840F001002849091FFF
:101D900008600846006800F00100009000BF00BF26
:101DA00000BF0020009022481438006840F0010075
:101DB0001F49143908600846006800F001000090CF
:101DC00000BF00BF00BF002000900846006840F040
:101DD000020008600846006800F00200009000BFA2
:101DE00000BF4FF4004001900220029000200390B9
:101DF00004900120059001A90E48FEF74BFD082034
:101E00000190022002900020039004900120059090
:101E100001A90948FEF73EFD002211461C20FFF7EC
:101E200043F81C20FFF730F806B010BD0000014059
:101E3000443802400000024000040240704710B5E0
:101E4000044620680069C0F34000D8B12068C0682B
:101E5000C0F34000B0B16FF00200216808610120BA
:101E600020772068806900F0030018B12046FFF752
:101E7000E5FF05E0204600F0DDF8204600F0B4F96B
:101E80000020207720680069C0F38000D8B1206866
:101E9000C068C0F38000B0B16FF004002168086131
:101EA000022020772068806900F4407018B1204635
:101EB000FFF7C4FF05E0204600F0BCF8204600F024
:101EC00093F90020207720680069C0F3C000D8B1E2
:101ED0002068C068C0F3C000B0B16FF0080021688E
:101EE0000861042020772068C06900F0030018B161
:101EF0002046FFF7A3FF05E0204600F09BF82046B0
:101F000000F072F90020207720680069C0F300100B
:101F1000D8B12068C068C0F30010B0B16FF01000F5
:101F200021680861082020772068C06900F44070AB
:101F300018B12046FFF782FF05E0204600F07AF84E
:101F4000204600F051F9002020772068006900F059
:101F5000010058B12068C06800F0010030B16FF096
:101F6000010021680861204600F03FF920680069FF
:101F7000C0F3C01058B12068C068C0F3C01030B1C1
:101F80006FF08000216808612046FFF7F5FC2068AB
:101F90000069C0F3801058B12068C068C0F3801099
:101FA00030B16FF0400021680861204600F01EF952
:101FB00020680069C0F3401058B12068C068C0F3C1
:101FC000401030B16FF02000216808612046FFF713
:101FD000D4FC10BD10B586B00446142101A8FEF74C
:101FE0002FF91149206888421CD100BF00200090C1
:101FF0000E48006840F001000C490860084600687F
:1020000000F00100009000BF00BF032001900220FB
:1020100002900020039004900220059001A904483A
:10202000FEF738FC06B010BD000C0040303802400E
:102030000000024070472DE9F04104460D46164667
:10204000002700BF94F83C00012802D10220BDE81F
:10205000F081012084F83C0000BF36B1042E1BD073
:10206000082E31D00C2E5ED145E02946206800F0C4
:10207000D5FE2068806940F00800216888612068EA
:10208000806920F0040021688861206880692969DE
:1020900008432168886148E02946206800F0EEFE88
:1020A0002068806940F40060216888612068806948
:1020B00020F480602168886120688069296940EA8D
:1020C00001202168886130E02946206800F00AFF7D
:1020D0002068C06940F008002168C8612068C069B4
:1020E00020F004002168C8612068C069296908439C
:1020F0002168C86119E02946206800F027FF2068A0
:10210000C06940F400602168C8612068C06920F49B
:1021100080602168C8612068C069296940EA01209F
:102120002168C86101E0012700BF00BF00BF002097
:1021300084F83C0000BF384689E710B504460CB966
:10214000012010BD94F83D0028B9002084F83C001F
:10215000204600F025F8022084F83D00211D20686B
:1021600000F0F6FD012084F8460000BF84F83E0030
:1021700001213F200155402001554120015500BF5C
:1021800000BF012084F8420043200155442001553E
:102190004520015500BF012084F83D000020D0E714
:1021A00038B504460E492068884217D100BF002088
:1021B00000900C48006840F008000A490860084692
:1021C000006800F00800009000BF00BF0022114628
:1021D0003220FEF769FE3220FEF756FE38BD0000C1
:1021E000000C004040380240704770477047F8B517
:1021F00004460E46174694F83E00202836D106B114
:102200000FB90120F8BD00BF94F83C00012801D1AE
:102210000220F7E7012084F83C0000BF20633A4623
:102220003146204601F062F90546EDB9206B0128E0
:1022300019D100BF0020009020680068009020683D
:102240004068009000BF00BF00BF00BF21680C3194
:1022500051E8001F41F0100021680C3141E80002F4
:10226000002AF3D100E001252846CBE70220C9E788
:10227000704770472DE9F84F0446206805682068CC
:10228000C668206847694FF00009CA4605F00F0983
:10229000B9F1000F0AD105F0200038B106F0200096
:1022A00020B1204600F090FFBDE8F88FB9F1000F93
:1022B0007CD007F0010018B906F49070002875D0A2
:1022C00005F0010030B106F4807018B1206C40F0C8
:1022D0000100206405F0040030B107F0010018B1DE
:1022E000206C40F00200206405F0020030B107F0DD
:1022F000010018B1206C40F00400206405F00800D3
:1023000048B106F0200010B907F0010018B1206CA8
:1023100040F008002064206C002846D005F0200022
:1023200028B106F0200010B1204600F04DFF2068D3
:102330004069C0F3801A206C00F0080010B9BAF1AF
:10234000000F2DD0204600F0E6FE2068406900F026
:102350004000402820D100BF00BF2168143151E85F
:10236000001F21F040002168143141E80002002ADA
:10237000F3D100BFA06B50B17548A16B0865A06B8D
:10238000FEF793F888B1A06B016D88470DE02046F9
:10239000FFF76FFF09E009E02046FFF76AFF04E05E
:1023A0002046FFF766FF002020647DE7206B0128B0
:1023B00076D105F01000002872D006F01000002839
:1023C000FAD000BF002000902068006800902068CC
:1023D0004068009000BF00BF2068406900F04000E6
:1023E00040285ED1A06B006840681FFA80F8B8F101
:1023F000000F54D0A08D404551DDA4F82E80A06B75
:10240000C069B0F5807F43D000BF00BF21680C31A8
:1024100051E8001F21F4807021680C3141E800026E
:10242000002AF3D100BF00BF00BF2168143151E87A
:10243000001F21F001002168143141E80002002A48
:10244000F3D100BF00BF00BF2168143151E8001F65
:1024500021F040002168143141E80002002AF3D144
:1024600000BF202084F83E000020206300BF00BF92
:1024700021680C3151E8001F21F0100021680C3157
:1024800041E80002002AF3D100BFA06BFDF7B7FFBF
:10249000A08DE28D801A81B22046FFF7E9FE03E7A6
:1024A00040E0A08DE18D401A1FFA80F8E08DC0B3A6
:1024B000B8F1000F35D000BF00BF21680C3151E8E2
:1024C000001F21F4907021680C3141E80002002ABD
:1024D000F3D100BF00BF00BF2168143151E8001FD5
:1024E00021F001002168143141E80002002AF3D1F3
:1024F00000BF202084F83E000020206300BF00BF02
:1025000021680C3151E8001F21F0100021680C31C6
:1025100041E80002002AF3D100BF41462046FFF700
:10252000A7FEC1E605F0800030B106F0800018B1CA
:10253000204601F043F8B7E605F0400030B106F060
:10254000400018B1204600F01CFEADE600BFABE62F
:10255000E32F000810B504460CB9012010BDA06996
:1025600000B100E000BF94F83D0028B9002084F8D5
:102570003C00204600F028F8242084F83D00206824
:10258000C06820F400502168C860204600F098FE22
:102590002068006920F49040216808612068406943
:1025A00020F02A00216848612068C06840F400508B
:1025B0002168C86000202064202084F83D0084F851
:1025C0003E000020CAE7000010B586B00446142182
:1025D00001A8FDF735FE4F49206888427ED100BF33
:1025E000002000904C48006840F010004A49086004
:1025F0000846006800F01000009000BF00BF00BF58
:102600000020009044481438006840F0010042491E
:10261000143908600846006800F00100009000BF0F
:1026200000BF00BF002000900846006840F0020094
:1026300008600846006800F00200009000BF00BF7C
:1026400008150190022002900020039003200490BE
:102650000720059001A93148FEF71CF940200190A0
:102660000220029000200390032004900720059090
:1026700001A92B48FEF70EF92A482B4908604FF0B4
:1026800000604860002128488160C1604FF480618B
:102690000161002141618161C1614FF480310162BA
:1026A00000214162FEF736F808B1FDF7A5FE00BF34
:1026B0001D48A063846300BF1A4878301B49086036
:1026C0004FF0006048604021184881600021C160DF
:1026D0004FF4806101610021416100E018E08161F7
:1026E000C1614FF48031016200214162FEF712F8AE
:1026F00008B1FDF781FE00BF0C486063846300BF32
:10270000002202212520FEF7CFFB2520FEF7BCFB8F
:1027100006B010BD001001404438024000000240E5
:102720000004024040640240300300209003002077
:1027300070477047704700BFFEE7000008B500BF54
:10274000002000901A48006840F480001849086092
:102750000846006800F48000009000BF00BF00BF82
:10276000002000900846006840F400100860084609
:10277000006800F40010009000BF00BF0022114666
:102780000D20FEF791FB0D20FEF77EFB0022114687
:102790003A20FEF789FB3A20FEF776FB002211462D
:1027A0004620FEF781FB4620FEF76EFB08BD0000C9
:1027B0003038024000B587B0142102A8FDF740FD73
:1027C00000BF002001903648006840F00400344902
:1027D00008600846006800F00400019000BF00BFD8
:1027E00000BF002001900846006840F080000860AB
:1027F0000846006800F08000019000BF00BF00BFE5
:10280000002001900846006840F00100086008467A
:10281000006800F00100019000BF00BF00BF002071
:1028200001900846006840F0020008600846006811
:1028300000F00200019000BF00BF00224FF4704181
:102840001848FEF70BF900224FF480511648FEF7A6
:1028500005F94FF4304002900120039004900220CB
:10286000059002A90F48FEF715F84FF4804002903A
:1028700001200390002004900220059002A909483D
:10288000FEF708F84FF48050029001200390049066
:102890000020059002A90448FDF7FCFF07B000BD29
:1028A00030380240000402400000024010B50B48DE
:1028B0000B4908600B484860002109488160C160ED
:1028C0004FF480410161002141618161C161016278
:1028D000FEF7D0F808B1FDF78FFD10BD00540040A1
:1028E00024000020A086010010B50B480B490860A9
:1028F0000B484860002109488160C1604FF4804165
:102900000161002141618161C1610162FEF7B2F89C
:1029100008B1FDF771FD10BD00580040780000209F
:10292000801A060010B50E480E4908604FF48270F8
:10293000486000210B488160C160016141614FF432
:10294000007181610021C1610162416281620A21DD
:10295000C162FEF739FF08B1FDF74EFD10BD000062
:10296000003001402C01002000B58BB0242102A8CA
:10297000FDF766FC00200090019018481849086097
:10298000002048600021164881604FF6FF71C16049
:1029900000210161416181610120029000200390CA
:1029A00001200490002005900690079001200890D7
:1029B000002009900A9002A90948FFF72BF908B1F5
:1029C000FDF71AFD00200090019069460448FEF7CB
:1029D000D5FF08B1FDF710FD0BB000BD00000140B0
:1029E0008401002000B58BB0242102A8FDF728FC4B
:1029F0000020009001904FF08040174908600020AF
:102A000048600021144881604FF6FF71C1600021C9
:102A10000161816103200290002003900120049055
:102A20000020059006900790012008900020099052
:102A30000A9002A90848FFF7EDF808B1FDF7DCFCA1
:102A400000200090019069460348FEF797FF08B107
:102A5000FDF7D2FC0BB000BDCC01002000B587B063
:102A60000020039004900590069001900290144875
:102A7000144908606320486000211248816042F2D6
:102A80001071C160002101618161FEF7C5FF08B1CD
:102A9000FDF7B2FC4FF48050039003A90948FFF7FB
:102AA00033F808B1FDF7A8FC00200190029001A9BD
:102AB0000448FEF763FF08B1FDF79EFC07B000BDB8
:102AC000000800401402002000B589B000200790E3
:102AD00008901C216846FDF7B3FB1B481B490860A2
:102AE000632048600021194881606321C160002192
:102AF00001618161FFF721FB08B1FDF77DFC00203A
:102B00000790089007A91148FEF738FF08B1FDF7B4
:102B100073FC60200090002001900290049000223D
:102B200069460A48FFF787FA08B1FDF765FC0422F9
:102B300069460648FFF77FFA08B1FDF75DFC0348D8
:102B4000FFF748FA09B000BD000C00405C0200200D
:102B50001FB5002000900190029003900E480F498D
:102B600008606320486000210C48816041F2883190
:102B7000C160002101618161FEF74EFF08B1FDF7E0
:102B80003BFC4FF48050009069460448FEF7BCFFC0
:102B900008B1FDF731FC1FBD00400140A402002038
:102BA00010B51148114908604FF4E1304860002128
:102BB0000E488160C16001610C2141610021816189
:102BC000C161FFF7C7FC08B1FDF716FC14220849E4
:102BD0000648FFF70CFB07480068006820F0080073
:102BE00004490968086010BD00100140EC02002093
:102BF000100000203003002000BFFEE700BFFEE70A
:102C00007047000010B50248FEF730FD10BD00000F
:102C10002C01002070B50546AC6B0020E087E086F3
:102C20002046FEF721FD70BD704710B5FEF7B8F8DD
:102C300010BD000000B593B0302107A8FDF700FBE0
:102C4000142102A8FDF7FCFA00BF002001902348E0
:102C5000006840F08050214908600846006800F094
:102C60008050019000BF00BF00BF002001901C48B1
:102C7000006840F440401A4908600846006800F4C3
:102C80004040019000BF00BF012007900004089061
:102C900002200D9041050E910C210F9160211091A1
:102CA000022111910421129107A8FEF78FFA08B1B1
:102CB000FDF7A2FB0F200290022003900020049059
:102CC0004FF48050059000200690032102A8FEF7E3
:102CD0003DF908B1FDF790FB13B000BD403802404C
:102CE000007000400348006840F47000014908602B
:102CF0007047000088ED00E010B50348FFF79FF82B
:102D00000248FFF79CF810BD84010020A4020020B7
:102D100010B50248FFF793F810BD000084010020B1
:102D200010B50248FFF78BF810BD0000CC01002061
:102D300010B50248FFF783F810BD00001402002010
:102D400010B50248FFF77BF810BD00005C020020C0
:102D500010B50268204B98420BD0B0F1804F08D0DC
:102D60001E4B984205D01E4B984202D01D4B9842F4
:102D700003D122F070024B681A43174B984214D0CB
:102D8000B0F1804F11D0154B98420ED0144B9842A1
:102D90000BD0144B984208D0134B984205D0134BDC
:102DA000984202D0124B984203D122F44072CB6871
:102DB0001A4322F080034C6943EA040202608B68E4
:102DC000C3620B688362044B984201D10B690363B1
:102DD0000123436110BD00000000014000040040D9
:102DE00000080040000C0040004001400044014049
:102DF0000048014030B50C46816821F47F4142EA29
:102E0000032525432943816030BD0A46816821F0AE
:102E1000700142F0070319438160704730B5056ABD
:102E200025F001050562026A4368846924F0700494
:102E300024F003040D682C4322F002028D682A431B
:102E40000D4DA84206D100BF22F00802CD682A43EA
:102E500022F00402084DA84207D123F4807323F422
:102E600000734D692B438D692B43436084614D682A
:102E70004563026230BD00000000014030B5056AC4
:102E800025F010050562026A4368846924F4E04471
:102E900024F440740D6844EA052422F020028D6871
:102EA00042EA05120E4DA84207D100BF22F080026F
:102EB000CD6842EA051222F04002094DA84209D12C
:102EC00023F4806323F400634D6943EA85038D692D
:102ED00043EA8503436084614D688563026230BDC7
:102EE0000000014030B5056A25F480750562026A6C
:102EF0004368C46924F0700424F003040D682C4373
:102F000022F400728D6842EA05220F4DA84207D1D3
:102F100000BF22F40062CD6842EA052222F48062FA
:102F2000094DA84209D123F4805323F400534D697D
:102F300043EA05138D6943EA05134360C4614D6894
:102F4000C563026230BD00000000014030B5056A73
:102F500025F480550562036A4468C26922F4E042A0
:102F600022F440720D6842EA052223F400538D6872
:102F700043EA0533064DA84204D124F480444D6948
:102F800044EA85144460C2614D680564036230BD43
:102F90000000014030B50B461446026A056A25F070
:102FA00001050562816921F0F00141EA041122F076
:102FB0000A021A438161026230BD30B50B461446E5
:102FC000056A25F0100505628169026A21F47041E5
:102FD00041EA043122F0A00242EA03128161026256
:102FE00030BD70B50546AC6B0020E085E08420461E
:102FF000FFF73FF970BD70B506460025B46B206839
:103000004069C0F3C01594F83D00212805D125B1D1
:103010000020E084204600F0C4F820684069C0F336
:10302000801594F83E00222805D125B10020E085C6
:10303000204600F070F8206C40F01000206420461C
:10304000FFF717F970BD70B50546AC6B28680068CE
:1030500000F48070002842D1E08500BF00BF2168E5
:103060000C3151E8001F21F4807021680C3141E8D7
:103070000002002AF3D100BF00BF00BF2168143155
:1030800051E8001F21F001002168143141E80002DD
:10309000002AF3D100BF00BF00BF2168143151E8FE
:1030A000001F21F040002168143141E80002002A8D
:1030B000F3D100BF202084F83E00206B01280ED100
:1030C00000BF00BF21680C3151E8001F21F0100043
:1030D00021680C3141E80002002AF3D100BF206BC7
:1030E000012804D1A18D2046FFF7C2F802E0204656
:1030F000FFF71EFB70BD70B50546AC6B206B012859
:1031000005D1A08D41082046FFF7B2F802E0204625
:10311000FFF70FFB70BD00BF00BF02680C3252E822
:10312000002F22F4907102680C3242E80013002B49
:10313000F3D100BF00BF00BF0268143252E8002F75
:1031400022F001010268143242E80013002BF3D18F
:1031500000BF016B01290ED100BF00BF02680C3215
:1031600052E8002F22F0100102680C3242E80013EE
:10317000002BF3D100BF202180F83E100021016315
:10318000704710B504462068C06820F040002168F0
:10319000C860202084F83D002046FFF7CBFA0020CD
:1031A00010BD00BF00BF02680C3252E8002F22F0B1
:1031B000C00102680C3242E80013002BF3D100BFBB
:1031C000202180F83D107047F8B5044694F83E0081
:1031D000222873D1A068B0F5805F0CD1206950B966
:1031E0000025A66A20684068C0F308003080A06A05
:1031F000801CA06215E0A56A0026A068B0F5805F7B
:1032000003D0A06828B9206918B9206840682870E0
:1032100004E02068406800F07F002870A06A401C2D
:10322000A062E08D401E80B2E085002844D1206875
:10323000C06820F020002168C8602068C06820F4C1
:1032400080702168C8602068406920F00100216812
:103250004861202084F83E00206B012826D1002000
:10326000206300BF00BF21680C3151E8001F21F02E
:10327000100021680C3141E80002002AF3D100BFA0
:103280002068006800F0100010280AD100BF00205C
:10329000009020680068009020684068009000BF9F
:1032A00000BFA18D2046FEF7E3FF02E02046FFF7B6
:1032B0003FFA0020F8BD01E00020FBE70220F9E71B
:1032C0002DE9F84F04462068006920F44050E16879
:1032D0000843216808612169A068084361690843BF
:1032E000E169084300902068C06849F20C61884396
:1032F000009908432168C8602068406920F4407044
:10330000A16908432168486176492068884203D052
:1033100075492068884203D1FDF7F0FE814602E03E
:10332000FDF7DCFE8146E069B0F5004F6CD102206C
:103330006168A0FB015003461920A9FB00700146FB
:103340002A463846FCF744FF6421B0FBF1F04FEA0F
:10335000001A02206168A0FB01510B461920A9FB4D
:1033600000712A463846FCF733FF83460220616825
:10337000A0FB015003461920A9FB00712A463846DC
:10338000FCF726FF6421B0FBF1F000EBC00101EB7C
:103390000010ABEB8000322101EBC0006421B0FBD8
:1033A000F1F000F0F8000AEB400A02206168A0FB8F
:1033B000015003461920A9FB007001462A463846F1
:1033C000FCF706FF834602206168A0FB015003461C
:1033D0001920A9FB00712A463846FCF7F9FE642142
:1033E000B0FBF1F000EBC00101EB0010ABEB800093
:1033F000322101EBC0006421B0FBF1F000F00700C6
:103400005044216888606AE004206168A0FB015094
:1034100003461920A9FB007001462A463846FCF7EE
:10342000D7FE824604206168A0FB015003461920A4
:10343000A9FB007001462A463846FCF7C9FE642104
:10344000B0FBF1F000EBC00101EB0010AAEB800033
:10345000322101EB00106421B0FBF1F000F0F00A22
:1034600004206168A0FB017003461920A9FB0051EC
:103470003A462846FCF7ACFE6421B0FBF1F00AEBBB
:10348000001A04206168A0FB01510B461920A9FB1A
:1034900000712A463846FCF79BFE8346042061688B
:1034A000A0FB015003461920A9FB007001462A46E3
:1034B0003846FCF78DFE6421B0FBF1F000EBC00153
:1034C00001EB0010ABEB8000322101EB0010642116
:1034D000B0FBF1F000F00F00504421688860BDE8B7
:1034E000F88F0000001001400014014077B581B052
:1034F000044615460298A062A5850020206422207B
:1035000084F83E002A48A16BC8632A48A16B08646E
:103510002948A16BC8640020A16B086502AE32681F
:103520002368191D2B46A06BFDF76AF900BF002028
:10353000009020680068009020684068009000BFFC
:1035400000BF00BF002084F83C0000BF206970B1BC
:1035500000BF00BF21680C3151E8001F41F48070AA
:1035600021680C3141E80002002AF3D100BF00BFFE
:1035700000BF2168143151E8001F41F001002168AB
:10358000143141E80002002AF3D100BF00BF00BFA0
:103590002168143151E8001F41F0400021681431C6
:1035A00041E80002002AF3D100BF002004B070BD42
:1035B00047300008F7300008F72F0008014691F85F
:1035C0003D00212828D18868B0F5805F0BD10869BB
:1035D00048B90A6A1088C0F308000B685860086A86
:1035E000801C086205E00B6A581C086218780B689A
:1035F0005860C88C401E80B2C88458B90868C0683A
:1036000020F080000B68D8600868C06840F0400077
:103610000B68D860002070470220FCE710B5024814
:10362000FEF728FE10BD0000EC02002000BFFEE700
:1036300002480068C0F30220704700000CED00E073
:1036400010B5002804DB0A07130E054A135406E0E0
:103650000A07140E034A00F00F031B1FD45410BDB9
:1036600000E400E018ED00E002E008C8121F08C105
:10367000002AFAD170477047002001E001C1121FF3
:10368000002AFBD170470000FDF796FBFFF7D2FA46
:10369000FFF790F8FFF752F8FFF744F9FFF764F9E6
:1036A000FFF7A0F9FFF77CFAFFF700F9FFF71CF925
:1036B000FFF70AFAFFF7D2F9FFF74AFA0C48FEF7CC
:1036C0003CFD012211030B48FDF7C8F9012211034B
:1036D0000948FDF7C3F900224FF400510648FDF7F1
:1036E000BDF9632002490968486300BFFEE7000096
:1036F0005C02002000000240000402400006101698
:103700000006101600000000000000000102030483
:103710000607080900000000010203043C37000806
:103720000000002010000000683600084C37000838
:1037300010000020E00700007836000800000000BC
:0C37400010000000010000000024F40054
:040000050800019955
:00000001FF
