:020000040800F2
:1000000068040020010100080F110008690D0008B4
:100010000D11000891010008DD1300080000000028
:10002000000000000000000000000000791300083C
:100030009301000800000000771300087B130008FC
:100040001B0100081B0100081B0100081B01000820
:100050001B0100081B0100081B0100081B01000810
:100060001B0100081B0100081B0100081B01000800
:100070001B0100081B0100081B0100081B010008F0
:100080001B0100081B0100081B0100081B010008E0
:100090001B0100081B0100081B0100089501000856
:1000A0001B0100081B0100081B0100081B010008C0
:1000B0001B0100081B0100081B0100081B010008B0
:1000C0001B0100081B0100081B0100081B010008A0
:1000D0001B0100081B0100081B0100081B01000890
:1000E0001B0100081B0100081B010008DFF80CD0F1
:1000F00000F03CF800480047351400086804002070
:100100000648804706480047FEE7FEE7FEE7FEE7B1
:10011000FEE7FEE7FEE7FEE7FEE7FEE7DB1300088B
:10012000ED00000840EA01039B0703D009E008C97D
:10013000121F08C0042AFAD203E011F8013B00F8AC
:10014000013B521EF9D27047D2B201E000F8012BF8
:10015000491EFBD270470022F6E710B513460A4647
:1001600004461946FFF7F0FF204610BD064C074D28
:1001700006E0E06840F0010394E807009847103477
:10018000AC42F6D3FFF7B6FF981A0008B81A000879
:10019000FEE7704710B5402000F05AF8BDE8104067
:1001A000802000F055B872B6FEE7000070B5044636
:1001B00000F048F90546601C02D004480078044469
:1001C00000F040F9401BA042FAD370BD04000020AB
:1001D00070B50025194E1A4C402802D0802819D03D
:1001E0001EE0322001F01AF94021304600F024F9D7
:1001F000B0B90421134800F01FF90028207803D07B
:1002000030B1401E20700BE0632808D0401CF9E795
:100210006320F7E78021304600F00EF900B9257021
:10022000002109A2084600F0E3FF2278BDE87040F3
:1002300002230521002001F039B800000008014028
:1002400000000020000C01404E756D3D20000000B4
:1002500070B5054D04462868204203D02046FFF7BC
:10026000B7FF2C6070BD0000140401402DE9F84F69
:10027000DFF8A4910024A9F1040B23464FF00F08E6
:1002800009F1040AABF1040EBEE00127A7403A4091
:10029000BA4272D1DFF884C14D68A5EB0C06654502
:1002A0002BD00DDC032D34D005DC35B3012D19D056
:1002B000022D2FD11BE0112D16D0122D2AD119E0BD
:1002C000B6F5881F19D006DCB6F5803F15D0B6F517
:1002D000801F1FD111E0B6F5001F0ED0B6F5041F28
:1002E00018D10AE0CB6815E0CB681B1D12E0CB6883
:1002F00008330FE0CB680C330CE08B682BB1012B7B
:100300004FF0080303D0476104E0042302E00761D3
:1003100000E00023FF2A01D8064601E000F10406B0
:100320004FEA840501D9A5F12005376808FA05FCD4
:1003300027EA0C0703FA05F547EA050737604D6819
:10034000ED0060D5364DAE6946F00106AE61AD698F
:1003500024F0030605F001050095324D7719BE68BB
:10036000A5072D0F08FA05FC26EA0C06DFF8B8C031
:10037000604503D14FF0000C17E044E0DFF8ACC05B
:10038000604502D14FF0010C0FE0DFF8A4C06045DA
:1003900002D14FF0020C08E0DFF898C0604502D1AE
:1003A0004FF0030C01E04FF0040C0CFA05FC4CEA92
:1003B000060CC7F808C04D68D9F80060ED024D463C
:1003C00001D5164300E096432E604D68DAF80060D0
:1003D000AD02554601D5164300E096432E604D68A8
:1003E000DBF80060AD035D4601D5164300E096439F
:1003F0002E604D68DEF80060ED03754601D51643AA
:1004000000E096432E60641C0A6832FA04F57FF41B
:100410003CAFBDE8F88F0000080401400000111057
:10042000001002400000014000080140000C0140A3
:1004300000100140001401408068084000D00120F5
:1004400070470000014880687047000004000020E9
:1004500070B5040025D094F83D00002520B984F83B
:100460003C50204600F050F9242084F83D002068DC
:10047000016821F0010101602068016841F4004138
:1004800001602068016821F40041016000F096FAE3
:100490004D4B6168994201D84C4900E04C49884273
:1004A00001D2012070BD4B492268B0FBF1F15668C2
:1004B00026F03F060E43566062689A4206D94FF412
:1004C000967251434FF47A72B1FBF2F12268491CE3
:1004D000166A26F03F06314311626168994210D8CE
:1004E0004900401EB0FBF1F2521CC2F30B02042A79
:1004F00001D2042022E0B0FBF1F0401CC0F30B005D
:100500001CE0A268F2B301EBC10303EB0116431E2A
:10051000B3FBF6F35B1C43F480431B0549D092B355
:1005200001EBC10202EB0111401EB0FBF1F0401CD7
:10053000C0F30B0040F4804040F400402168CA69D9
:100540004CF6FF739A431043C861D4E90710014386
:100550002068026822F0C00211430160D4E903015F
:1005600001432068826848F2FF339A431143816057
:10057000D4E9051001432068C26822F0FF0211434C
:10058000C16001E00EE016E02068016841F0010161
:1005900001602564202084F83D00256384F83E50E6
:1005A000002070BD01EB4106431EB3FBF6F35B1C5C
:1005B000B3E70120C2E701EB4101401EB0FBF1F0BF
:1005C000401CC0F30B00B7E7A086010080841E002A
:1005D00000093D0040420F002DE9FF4F83B09A46CD
:1005E000DDE9119793460446DDF84080FFF72AFFC6
:1005F000054694F83D0020287FD119230122404967
:100600002046009500F047FC002876D194F83C0085
:10061000012872D0012084F83C0020680168C907D5
:1006200003D1016841F0010101602068016821F4F3
:1006300000610160212084F83D00402084F83E00E4
:1006400000262664C4F82480A4F82A90608D2085B2
:100650002C48E062CDE9007553465A46204604997D
:1006600000F09AFB70B930E02A463946204600F087
:10067000B3FC58B1206C042804D12068016841F40F
:1006800000710160012007B0BDE8F08F606A216849
:1006900000780861626A521C6262208D401E80B23E
:1006A0002085618D491E618521684B69DB435B07AD
:1006B0000BD468B110780861606A401C6062208DBC
:1006C000401E2085608D401E6085208D0028CBD186
:1006D0002A463946204600F0B3FB0028CAD154F818
:1006E0003D0B016841F400710160202004F81E09EF
:1006F000E67766770020C6E7FFE70220C3E7000041
:10070000020010000000FFFF10B586B0002100912C
:1007100001910291039100680F4988421AD10F4C50
:10072000A06940F00800A061A069694600F00800D7
:100730000490C020009012200190032003900848EC
:10074000FFF794FDE06940F40010E061E06900F417
:100750000010049006B010BD00540040001002408C
:10076000000C0140024881680278114481607047A2
:1007700004000020074810B5016841F01001016035
:10078000032000F06DF80F2000F006F800F024F8C8
:10079000002010BD0020024070B50D4D04464FF4FE
:1007A0007A712878B1FBF0F00A490968B1FBF0F0E2
:1007B00000F0C6FA48B9102C07D200222146501E7C
:1007C00000F02EF800206C6070BD012070BD0000AC
:1007D0000400002010000020094808B5816941F09C
:1007E00001018161816901F001010091C16941F05C
:1007F0008051C161C06900F08050009008BD0000C8
:1008000000100240002809DB00F01F020121914086
:100810004009800000F1E020C0F80011704700009E
:10082000F0B40E4B1B68C3F30223C3F10704042C7E
:1008300000D904241D1D072D01D2002300E0DB1E7A
:10084000012606FA04F56D1E0D409D409E40761E61
:10085000164045EA0601F0BC00F0C1BD0CED00E019
:10086000064A00F0070110684FF6FF03184040EAFF
:100870000120034908431060704700000CED00E0C0
:100880000000FA052DE9F0470D46040067D0DFF8B7
:100890001881D8F8000000F00700A8420CD2D8F860
:1008A000001021F007012943C8F80010D8F8000013
:1008B00000F00700A84252D120683C4E810712D5B3
:1008C000400703D5706840F4E0607060207800074E
:1008D00003D5706840F4605070607068A16820F0C3
:1008E000F000084370602078C00727D060680128B6
:1008F00010D03168022810D0890700292FDA7168DA
:1009000021F0030101437160FFF79CFD074641F2AE
:1009100088390CE031688903EFE78901EDE7FFF7DB
:1009200091FDC11B494502D90320BDE8F0877068DD
:10093000616800F00C00B0EB810FF0D1D8F8001026
:10094000404601F00701A9420BD9016821F00701D7
:1009500029430160006800F00700A84201D001208F
:10096000E3E72078400705D57068E16820F4E0608F
:10097000084370602078000706D57068216920F46C
:10098000605040EAC100706000F028F87168084AC1
:10099000C1F30311515CC84006490860064800686D
:1009A000FFF7FAFE0020C0E70020024000100240DE
:1009B0007E140008100000200800002004480549AB
:1009C00000684968044AC1F30221515CC84070477D
:1009D00010000020001002408E1400080E4B5968D1
:1009E0000E4801F00C02042A11D0082A0FD10C483D
:1009F000C1F38342C903805C0AD55968084AC1F330
:100A00004041921E515C054A5043B0FBF1F07047E3
:100A100004494843704700000010024000127A0069
:100A20006E14000800093D002DE9F84F04006FD056
:100A30002078BE4DC00747D06868C0F38100012808
:100A400007D06868C0F38100022809D16868C00334
:100A500006D52868800337D560680028E7D033E0E2
:100A60006068B0F5803F0BD010B1B0F5A02F11D069
:100A7000286820F480302860286820F4802002E074
:100A8000286840F480302860606888B1FFF7DAFC9D
:100A9000064609E0286840F480202860F0E7FFF768
:100AA000D1FC801B642873D828688003F7D50BE03D
:100AB000FFF7C8FC064604E0FFF7C4FC801B64286F
:100AC000F1D828688003F7D42078DFF864828007A3
:100AD0004FF0010A4FF0000939D5686810F00C0F8B
:100AE00007D06868C0F38100022809D16868C00394
:100AF00006D42868800714D52069012808D110E0A1
:100B00002069B0B1C8F800A0FFF79CFC064605E0DC
:100B100007E1FFF797FC801B0228C4D828688007EC
:100B2000F7D52868616920F0F80040EAC100286024
:100B30000DE0C8F80090FFF785FC064604E0FFF7DB
:100B400081FC801B022823D828688007F7D42078EE
:100B500000072CD57748A169D9B1C0F800A0FFF7EC
:100B600071FC064604E0FFF76DFC801B02280FD8DD
:100B7000686A8007F7D570484FF4FA510068B0FBF7
:100B8000F1F0009000BF0098411E0091FAD20EE0F3
:100B90007CE0C0F80090FFF755FC064604E0FFF744
:100BA00051FC801B022871D8686A8007F7D420782E
:100BB00040075BD5E8690027C00008D4E86940F029
:100BC0008050E861E869012700F0805000905B48A0
:100BD0000168C90511D40168834641F48071016040
:100BE000FFF730FC064604E0FFF72CFC801B64286E
:100BF0004CD8DBF80000C005F6D5E06801280AD023
:100C000008B1052813D0286A20F001002862286A5C
:100C100020F0040002E0286A40F001002862E06849
:100C200041F2883B88B1FFF70DFC064609E0286ACF
:100C300040F004002862EEE7FFF704FC811B5945F1
:100C40005BD8286A8007F7D50BE0FFF7FBFB064669
:100C500004E0FFF7F7FB811B59454ED8286A80074F
:100C6000F7D41FB1E86920F08050E861E069A8B3CB
:100C70006968C1F38101022946D00228484606D09E
:100C8000C8F86000FFF7DEFB044639E035E0474670
:100C9000C8F86000FFF7D6FB064604E0FFF7D2FB7A
:100CA000801B022829D828688001F7D4206AB0F573
:100CB000803F05D16868A16820F40030084368606F
:100CC000D4E908010843696821F474110843686095
:100CD000C7F860A0FFF7B6FB044605E023E0FFF786
:100CE000B1FB001B022808D828688001F7D51AE05C
:100CF000FFF7A8FB001B022802D90320BDE8F88FEC
:100D000028688001F4D40EE00128F7D06868226AD0
:100D100000F48031914204D1616A00F4701088427D
:100D200001D00120EAE70020E8E7000000100240BF
:100D30000000424280044242100000200070004047
:100D400010B5401EB0F1807F01D3012010BD4FF0DF
:100D5000E02460610F21601700F041FB0020A061DA
:100D600007202061002010BDFEE701684A69D243D8
:100D700052050FD46FF480624A61002140F8301FA1
:100D8000202242738173026942F0040202610173FE
:100D900001207047002070472DE9F84304460068A1
:100DA0000D46DDE9089701689846164641F48071C2
:100DB00001604B4600224FF001112046009700F0E1
:100DC0006AF848B120680068C00502D54FF4007089
:100DD00020640320BDE8F883216805F0FE00086167
:100DE0003B464A461549204600F099F888B92068E4
:100DF0004169806900903A464946204600F0ECF887
:100E000048B1206C042804D12068016841F40071C5
:100E100001600120DEE7F5B2B8F1010F09D02168C9
:100E2000300A08613A464946204600F0D5F80028C5
:100E3000E7D1206805610020CCE700000200010036
:100E400070B516460D4604461EE02046FFF78DFF9E
:100E500008B1012070BD681C16D0FFF7F3FA801BA3
:100E6000A84200D885B920684069C04340070BD527
:100E7000002044F8300F20216173A073216941F0F4
:100E8000200121612073E4E720684069C0434007E6
:100E9000DBD4002070BD2DE9F0471E4690460D467C
:100EA0000446C1F30747DDF8209026E0701C24D0EB
:100EB000FFF7C8FAA0EB0900B04200D8EEB92068ED
:100EC000012F16D0806925EA00000004000C12D022
:100ED0000020404511D1002044F8300F20216173DB
:100EE000A073216941F02001216120730120BDE838
:100EF000F0874069E7E70120EBE72068012F0AD07F
:100F0000806925EA00000004000C06D0002040455E
:100F1000CCD00020EBE74069F3E70120F7E72DE9AB
:100F2000F047984616460D4604464FF000094FF02C
:100F3000200AC1F3074723E020684069C043400509
:100F400015D42068016841F40071016021686FF4D4
:100F500080604861C4F8309084F83DA084F83E90E9
:100F6000216C41F00401216484F83C9020E0701C65
:100F700006D0FFF767FAA0EB0800B04203D816B11D
:100F8000012F1ED020E02068012F14D0806925EAAF
:100F900000000004000C17D044F8309F84F80DA026
:100FA00084F80E90216941F02001216184F80C90B1
:100FB0000120BDE8F087406925EA00000004000C2C
:100FC000EAD12068406901E02068806925EA0000D4
:100FD0000004000CB0D1ECE770B516460D4604468F
:100FE0001EE02046FFF7C1FE08B1012070BD681C5D
:100FF00016D0FFF727FA801BA84200D885B92068D1
:101000004069C04300060BD5002044F8300F202172
:101010006173A073216941F0200121612073E4E72D
:1010200020684069C0430006DBD4002070BD00008A
:1010300070B586B0204800250395816941F02001F4
:101040008161816901F020010491816941F004010D
:101050008161816901F004010491816941F0080115
:1010600081618069012400F0080004904020009014
:101070001248CDE90104124E69463046FFF7F6F8F2
:10108000802000900F48CDE9010469463046FFF703
:10109000EDF80420CDE90005694602940A48FFF7FF
:1010A000E5F8002211461720FFF7BAFB1720FFF7DB
:1010B000A9FB06B070BD0000001002400000211026
:1010C0000008014000001110000C01400D4810B54F
:1010D0000B4901600C49416000214FF4804281605E
:1010E000C0E9031241618161C1610162FFF7B0F99A
:1010F000002803D0BDE81040FFF755B810BD000030
:101100000054004014000020A0860100FEE7FEE726
:101110002DE9F74F0746891CC8B2102188B001EBB2
:10112000101100F00F00CDE9060100250DF10D00B2
:101130000590401CDFF8B0B02E464FF47A7A4FF09D
:1011400001080DF10F09049007F1B0008DF80C00B3
:1011500007988DF80D00069803A9CDE900188DF8C1
:101160000E00544601230022CDF808A078211F4824
:10117000FFF732FA0599CDE9001801230022029405
:1011800078211A48FFF728FA0499CDE900180123BD
:101190000022029478211548FFF71EFA00240A98CD
:1011A000012305EB001101EB0B00A0F5805040225C
:1011B00090F8000ECDE900988DF80F0078210B48CB
:1011C000CDF808A0FFF708FA6D1C641CE4B2EDB27C
:1011D000082CE4D37F1C761CF6B2FFB2022EB3D3E8
:1011E0000BB0BDE8F08F000096140008140000203A
:1011F0002DE9F04115460E460746002408E0301957
:10120000C006010E38466D1CFFF782FF641CE4B275
:101210002A78002AF3D1BDE8F08100002DE9F041E1
:1012200086B020A00DF1100800680490B0208DF861
:101230000C004FF47A7701260DF1110503A88DE813
:10124000C1000123002278211748FFF7C5F9CDF826
:1012500000800123002278211348CDE90167FFF7C0
:10126000BBF98DE8E0000123002278210E48FFF74A
:10127000B3F900248DE8E0000123402278210A48D8
:10128000FFF7AAF9641CE4B2842CF3D39DF80C0098
:10129000401CC0B28DF80C00B828CFD306B0BDE812
:1012A000F081000010000000140000202DE9F0473C
:1012B0001F460024154681460A2601EB070810E068
:1012C000B5FBF6F006FB1052A8EB0400C00008388E
:1012D000C1B248463032FFF71BFFB5FBF6F5641C80
:1012E000E4B2BC42ECD3BDE8F08700001FB508A013
:1012F0004FF47A7200680390032103A88DE8070079
:101300000123002278210348FFF766F91FBD000082
:10131000AE8D10001400002000B58BB01C2209A176
:1013200003A8FEF7FFFE4FF47A721C2103A88DE894
:1013300007000123002278210948FFF74DF90BB07F
:1013400000BD0000AE0010D580A83FD300B0408D96
:1013500014A1C8DA1281FFD9F1DB302000A4A6AFB6
:101360001400002010B5FFF7C1FFFFF757FFBDE8DD
:101370001040FFF7D1BF70477047FFF7F3B930B5A2
:101380008FB028216846FEF7E6FE14210AA8FEF772
:10139000E2FE0120010400248DE8130004904FF4C4
:1013A000E010CDE90810022507956846FFF73CFBE1
:1013B00008B172B6FEE70F20CDE90A054FF4806050
:1013C000CDE90C4002210AA80E94FFF75BFA002831
:1013D00001D072B6FEE70FB030BD7047FEE70907D7
:1013E000090E002804DB00F1E02080F800147047AB
:1013F00000F00F0000F1E02080F8141D704702E0BB
:1014000008C8121F08C1002AFAD17047704700208F
:1014100001E001C1121F002AFBD17047002206E043
:101420000021491CC9B27B29FBD3521CD2B2824293
:10143000F6D37047FFF79EF9FFF7A1FFFFF7F8FD1E
:10144000FFF744FEFFF78EFF002105A20846FFF7D5
:10145000CFFE6420FEF7AAFEFFF7E0FEFEE70000E5
:101460006974206973206F6B210000000102020380
:101470000405060708090A0B0C0D0E0F10100000DA
:101480000000000000000102030406070809000034
:101490000000010203040000000000000000000042
:1014A000000000000000000038FCFC3800000000D4
:1014B000000D0D000000000E1E00001E0E000000BA
:1014C00000000000000020F8F820F8F82000020FCB
:1014D0000F020F0F0200387C444747CC98000306E8
:1014E000041C1C07030030300080C06030000C0674
:1014F0000301000C0C0080D87CE4BCD84000070F2E
:101500000808070F080000101E0E00000000000071
:101510000000000000000000F0F80C0400000000D3
:1015200003070C0800000000040CF8F000000000A5
:10153000080C0703000080A0E0C0C0E0A08000020B
:10154000030101030200008080E0E08080000000D1
:101550000003030000000000000000000000000085
:10156000101E0E00000080808080808080000000BF
:10157000000000000000000000000000000000006B
:10158000000C0C00000000000080C06030000C0661
:10159000030100000000F8FC04C424FCF800070F5D
:1015A0000908080F0700001018FCFC0000000008E4
:1015B000080F0F080800080C84C4643C18000E0FC4
:1015C0000908080C0C00080C444444FCB800040C46
:1015D0000808080F0700C0E0B098FCFC800000007D
:1015E00000080F0F08007C7C4444C4C48400040C31
:1015F0000808080F0700F0F84C4444C08000070FAB
:101600000808080F07000C0C0484C47C3C00000090
:101610000F0F00000000B8FC444444FCB800070F62
:101620000808080F0700387C444444FCF800000810
:1016300008080C0703000000003030000000000024
:10164000000606000000000000303000000000002E
:10165000080E060000000080C0603018080000007E
:101660000103060C08004040404040404000020298
:101670000202020202000008183060C08000000868
:101680000C0603010000181C04C4E43C1800000010
:10169000000D0D000000F0F808C8C8F8F000070FB2
:1016A000080B0B0B0100E0F0988C98F0E0000F0F96
:1016B0000000000F0F0004FCFC4444FCB800080FBD
:1016C0000F08080F0700F0F80C04040C18000307BB
:1016D0000C08080C060004FCFC040CF8F000080FD1
:1016E0000F080C07030004FCFC44E40C1C00080F6A
:1016F0000F08080C0E0004FCFC44E40C1C00080F4E
:101700000F0800000000F0F80C84848C9800030798
:101710000C0808070F00FCFC404040FCFC000F0FC9
:101720000000000F0F00000004FCFC04000000009B
:10173000080F0F08000000000004FCFC0400070F65
:1017400008080F07000004FCFCC0F03C0C00080F68
:101750000F00010F0E0004FCFC0400000000080F45
:101760000F08080C0E00FCFC387038FCFC000F0F52
:101770000000000F0F00FCFC3870E0FCFC000F0FB5
:101780000000000F0F00F0F80C040CF8F000030745
:101790000C080C07030004FCFC44447C3800080FD0
:1017A0000F0800000000F8FC040404FCF800070F18
:1017B000080E3C3F270004FCFC44C4FC3800080F22
:1017C0000F00000F0F00183C6444C49C1800060E64
:1017D0000808080F0700001C0CFCFC0C1C00000093
:1017E000080F0F080000FCFC000000FCFC00070FC5
:1017F0000808080F0700FCFC000000FCFC000103C7
:10180000060C06030100FCFC008000FCFC00030F3A
:101810000E030E0F03000C3CF0C0F03C0C000C0F4C
:101820000300030F0C00003C7CC0C07C3C000000A7
:10183000080F0F0800001C0C84C4643C1C000E0F31
:101840000908080C0E000000FCFC04040000000065
:101850000F0F080800003870E0C080000000000092
:10186000000103070E0000000404FCFC000000005F
:1018700008080F0F0000080C0603060C0800000003
:101880000000000000000000000000000000202018
:10189000202020202020000003070400000000007A
:1018A00000000000000000A0A0A0E0C00000070FA2
:1018B0000808070F080004FCFC2060C08000080F27
:1018C0000708080F0700C0E0202020604000070F35
:1018D0000808080C040080C06024FCFC0000070F0E
:1018E0000808070F0800C0E0A0A0A0E0C000070F94
:1018F0000808080C040040F8FC440C180000080F0D
:101900000F0800000000C0E02020C0E02000276F8A
:1019100048487F3F000004FCFC4020E0C000080F66
:101920000F00000F0F00000020ECEC000000000092
:10193000080F0F0800000000000020ECEC00003051
:101940007040407F3F0004FCFC80C0602000080F16
:101950000F01030E0C00000004FCFC00000000005E
:10196000080F0F080000E0E060C060E0C0000F0F4B
:10197000000F000F0F0020E0C02020E0C000000F8B
:101980000F00000F0F00C0E0202020E0C000070F74
:101990000808080F070020E0C02020E0C000407FBA
:1019A0007F48080F0700C0E02020C0E02000070F9C
:1019B00008487F7F400020E0C0602060C000080F22
:1019C0000F080000000040E0A02020604000040C50
:1019D00009090B0E04002020F8FC20200000000064
:1019E000070F080C0400E0E00000E0E00000070F33
:1019F0000808070F080000E0E00000E0E000000336
:101A0000070C0C070300E0E0000000E0E000070F17
:101A10000C070C0F07002060C080C0602000080C7D
:101A20000703070C0800E0E0000000E0E000474F7B
:101A30004848683F1F00606020A0E06020000C0E56
:101A40000B09080C0C00004040F8BC040400000026
:101A500000070F080800000000BCBC0000000000E8
:101A6000000F0F000000000404BCF8404000000814
:101A7000080F07000000080C040C080C040000000C
:101A800000000000000080C0603060C080000707D8
:101A90000404040707000000B81A00080000002032
:101AA00014000000FE130008CC1A000814000020E7
:101AB000540400000E140008630000000100000040
:0C1AC00010000000000000000024F400F2
:04000005080000ED02
:00000001FF
