:020000040800F2
:10000000980600200101000845360008252E00084A
:1000100065350008310900080143000800000000B0
:10002000000000000000000000000000253A000869
:100030008109000800000000FB390008273A000889
:100040001B0100081B0100081B0100081B01000820
:100050001B0100081B0100081B0100081B01000810
:100060001B0100081B0100081B0100081B01000800
:100070001B0100081B0100081B0100081B010008F0
:1000800035090008450900081B0100081B0100088C
:100090001B0100081B0100081B0100081B010008D0
:1000A0001B010008993A00081B0100081B01000809
:1000B000A93A0008B93A00081B0100081B01000812
:1000C0001B0100081B0100081B0100081B010008A0
:1000D0001B0100081B010008F14200081B01000879
:1000E0001B0100081B0100081B010008DFF80CD0F1
:1000F00000F08EFB004800474D4C00089806002099
:100100000648804706480047FEE7FEE7FEE7FEE7B1
:10011000FEE7FEE7FEE7FEE7FEE7FEE7953A0008AA
:10012000ED000008202A04DB203A21FA02F0002129
:10013000704721FA02F3D040C2F1200291400843F7
:100140001946704740EA01039B0703D009E008C93C
:10015000121F08C0042AFAD203E011F8013B00F88C
:10016000013B521EF9D27047D2B201E000F8012BD8
:10017000491EFBD270470022F6E710B513460A4627
:1001800004461946FFF7F0FF204610BDF0B480EAA0
:100190000102D40F4200B2EB410F02D202460846E0
:1001A00011464A0042D0C30DDDB2C1F3C752AD1AA9
:1001B000202D35DAC1F3160141F4000204B1524298
:1001C000C5F1200602FA06F12A411044B3EBD05FD4
:1001D00023D0C4B1012DA0EBC35009DCF0BC4FF01B
:1001E000004202EAC352DBB200F5000000F02AB977
:1001F000400000F1807000EBC350A0F1807040EA35
:10020000D170490009E0490841EAC071A0EBC35030
:1002100000F50000400800EBC350F0BC00F009B945
:100220006142012202EB4101001BF6E7F0BC70477E
:1002300081F00041AAE780F00040A7E780EA0102D0
:1002400010B502F00043400022D04A001FD0010E3A
:1002500001EB1261C0F35600C2F3560240F40000F5
:1002600042F40002A0FB022000047F39140400D0F5
:10027000401C50EA124001D44000491EC2B20C0694
:1002800004EBD010401C4008802A02D003E000207C
:1002900010BD20F00100002900DA0020184310BD35
:1002A00030B480EA010202F0004530F0004221F053
:1002B000004013D090B1C30DD40DC2F31601C0F3AA
:1002C0001600E41A41F4000140F400027D3491422A
:1002D00001D3641C00E04900002C02DA30BC00208D
:1002E00070474FF400000023914201D3891A034361
:1002F00040084FEA4101F7D151B1914202D14FF08C
:10030000004105E002D24FF0010101E06FF0010170
:1003100003EBC450284430BC00F08BB8C10F80EA16
:10032000E0700844CA079623002100F08BB820F043
:100330000040C10DC0F3160040F400007F2901DA2F
:1003400000207047962903DCC1F19601C840704730
:1003500096398840704700F0004230F000400AD0E3
:10036000C10D01F56071C0F3160042EA0151C208E7
:10037000400711437047002001467047002801DB09
:10038000C0F10040002901DBC1F10041814270470A
:10039000002801DBC0F10040002901DBC1F1004170
:1003A0008842704730B50B460146002020220124C8
:1003B00009E021FA02F59D4205D303FA02F5491B33
:1003C00004FA02F52844151EA2F10102F1DC30BD49
:1003D0002DE9F05F0546002092469B46884606467A
:1003E000814640241BE02846414647462246FFF707
:1003F00099FE53465A46C01A914110D311461846E9
:10040000224600F017FA2D1A67EB01084F462246E4
:100410000120002100F00EFA17EB00094E41201ECA
:10042000A4F10104DFDC484631462A464346BDE8D4
:10043000F09F0029A8BF7047401C490008BF20F06A
:100440000100704710B4B0FA80FC00FA0CF050EADA
:10045000010404BF10BC704749B1CCF1200421FA5B
:1004600004F411FA0CF118BF012121430843A3EB56
:100470000C01CB1D4FEA00614FEA102042BF002063
:1004800010BC704700EBC35010440029A4BF10BC3F
:100490007047401C490008BF20F0010010BC7047A5
:1004A0002DE9FE4F804681EA0300C00F0C46009004
:1004B00021F0004123F00045B8EB0200A94105D22C
:1004C0004046214690461C460B46024623F000401B
:1004D000104347D0270DC7F30A00C3F30A51029017
:1004E000401A019040286BDAC3F3130040F4801BDC
:1004F0000098924620B10023D2EB030A63EB0B0B6A
:1005000001985946C0F14002504600F093F9064662
:100510000D4650465946019A00F09BF910EB080031
:100520006141002487EA115284EAE7731A4340D0FC
:10053000009A62B3019A012A4FEA075215DC001BA8
:1005400061EB02014FF0004202EA0752CDE900429E
:10055000001C41F5801132462B4600F09BF903B098
:10056000BDE8F08F40462146F9E7001B61EB020130
:10057000001C41F5801300185B412018A2F50017FC
:1005800047EB030140EAD570B6196D4111E06D08E3
:100590004FEA360645EAC0754FEA0752001B61EB89
:1005A0000201001C41F5801149084FEA3000001992
:1005B000514132462B4603B0BDE8F04F00F05BB925
:1005C0000098012240000023D0EB020263EBE073AD
:1005D000009821464FEAE074B8EB000061EB04019B
:1005E000E9E783F000435BE781F0004158E72DE93C
:1005F000FE4F81EA030404F0004421F0004100941E
:100600004FF0000B23F0004350EA01045ED052EAA1
:1006100003045BD0C3F30A54C1F30A552C44A4F27B
:10062000F3340194A0FB0254C1F3130141F480118F
:10063000C3F3130343F4801301FB024400FB034E96
:10064000840A970A44EA815447EA8357A4FB07685F
:1006500002958D0A05FB07854FEA932C04FB0C5489
:100660002705029D4FEA065847EA1637B5EB0805FD
:100670006EEB070C870E920E47EA811742EA83124F
:10068000A7FB0201B6EB0B0164EB00042B0D43EA60
:100690000C335E1844EB1C50DA465146E7FB02016E
:1006A000C5F313044FEA0B3343EA14534FEA043201
:1006B000019C43EA0603A4F10C040294009CCDE9DA
:1006C00000B400F0E7F803B0BDE8F08F0020014669
:1006D000F9E72DE9F04D81EA030404F0004B21F025
:1006E000004514464FF0000A23F0004150EA05028D
:1006F00020D054EA01021DD0C5F30A570246C5F3C3
:100700001303C1F31300C1F30A5640F4801543F4F8
:100710008013A7EB0608101BD64608F2FD3873EBD2
:10072000050002D308F1010801E092185B41B8F11D
:10073000000F03DA00200146BDE8F08D00204FF4E1
:100740008011064684460EE0171B73EB050705D3A0
:10075000121B63EB050306434CEA010C49084FEA00
:10076000300092185B4150EA0107EDD152EA0300D4
:1007700012D082EA040083EA0501084305D0101B69
:10078000AB4106D20122002306E000224FF00043D5
:1007900002E06FF0010253101AEB06004CEB085117
:1007A00010EB0A0041EB0B01BDE8F04D00F063B81F
:1007B000C1F30A52C1F3130140F2FF3341F4801137
:1007C0009A4202DA00200146704740F233439A42CF
:1007D000A2F2334202DC5242FFF7A4BC00F02AB876
:1007E00030B5041E71F1000404DB4FF000444042B8
:1007F00064EB0101141E73F1000405DB1C464FF08D
:100800000043524263EB0403994208BF904230BD5B
:10081000064C074D06E0E06840F0010394E807004D
:1008200098471034AC42F6D3FFF764FC50530008ED
:1008300070530008202A04DB203A00FA02F100205D
:1008400070479140C2F1200320FA03F3194390400E
:100850007047202A06DBCB17203A41FA02F043EA20
:10086000E07306E041FA02F3D040C2F12002914069
:1008700008431946704710B5141E73F1000408DAD6
:10088000401C41F1000192185B411A4301D120F054
:10089000010010BD2DE9F04D92469B4611B1B1FA11
:1008A00081F202E0B0FA80F220329046FFF7C2FFF8
:1008B00004460F4640EA0A0041EA0B0153465A46F5
:1008C000084313D0114653EA010019D0C8F1400281
:1008D0005046FFF727FC05460E465046594642460D
:1008E000FFF7A8FF084305D0012004E02046394661
:1008F000BDE8F08D0020054346EAE0762C433743FF
:100900000A986305E40AA0EB08000022FD0A44EA05
:1009100047540A3002D500200146E9E701051019C5
:100920006941DDE9084500196941BDE8F04DA2E7DC
:1009300000BFFEE710B5024800F0AAF810BD0000A5
:100940009801002010B5024800F0A2F810BD000088
:10095000DC01002030B590F840500124AC40C56B5C
:100960006C60046863604468102C04D10468A26061
:100970000468E16003E00468A1600468E26030BDDF
:10098000704772B600BFFEE70146002291F82100D1
:10099000022808D00420886300BF002081F82000CE
:1009A00000BF012070470868006820F00E000B6847
:1009B00018600868006820F001000B68186091F862
:1009C000403001209840CB6B5860012081F8210015
:1009D00000BF002081F8200000BF1046E2E70000C1
:1009E00070B50446002594F82100022803D00420A5
:1009F000A063012548E02068006820F00E0021680F
:100A000008602068006820F00100216808601F4924
:100A10002068884201D1012026E01C491431206859
:100A2000884201D110201FE01849283120688842EF
:100A300001D1801518E015493C312068884201D168
:100A4000801411E0114950312068884202D14FF4DE
:100A5000803009E00D4964312068884202D14FF4AA
:100A6000801001E04FF0807008490839486001208B
:100A700084F8210000BF002084F8200000BF606BD4
:100A800010B12046616B8847284670BD08000240BF
:100A900070B50446E06B05682068066894F840105D
:100AA000042088402840002846D006F00400002892
:100AB00042D02068006800F0200028B92068006853
:100AC00020F004002168086057492068884201D15D
:100AD000042027E0544914312068884201D1402085
:100AE00020E0514928312068884201D1001519E0E1
:100AF0004D493C312068884202D14FF4804011E0DA
:100B0000494950312068884202D14FF4802009E0E1
:100B1000454964312068884202D14FF4800001E0E9
:100B20004FF08060404908394860E06A00287AD078
:100B30002046E16A884776E094F840100220884019
:100B40002840A0B306F0020088B32068006800F0D7
:100B5000200040B92068006820F00A002168086081
:100B6000012084F8210030492068884201D1022008
:100B700028E02D4914312068884201D1202021E04D
:100B8000294928312068884201D140151AE02649B8
:100B90003C312068884202D14FF4005012E02249D3
:100BA00050312068884203D14FF400300AE017E04A
:100BB0001D4964312068884202D14FF4001001E0E1
:100BC0004FF0007018490839486000BF002084F8D1
:100BD000200000BFA06A30B32046A16A884722E007
:100BE00094F84010082088402840E0B106F0080042
:100BF000C8B12068006820F00E002168086094F8F1
:100C0000401001208840E16B48600120A06384F817
:100C1000210000BF002084F8200000BF206B10B12D
:100C20002046216B884770BD080002400146002223
:100C300009B901207047164B0868C01A1423B0FB8D
:100C4000F3F08000086412480838C863022081F875
:100C500021000868026843F6F0708243D1E901037D
:100C60001843CB6818430B6918434B6918438B69C9
:100C70001843CB6918430243086802600020886368
:100C8000012081F82100002081F8200000BFD1E779
:100C9000080002402DE9F04104460D4616461F4665
:100CA0004FF0000800BF94F82000012802D1022074
:100CB000BDE8F081012084F8200000BF94F82100F5
:100CC00001282CD1022084F821000020A063206894
:100CD000006820F00100216808603B463246294642
:100CE0002046FFF737FEE06A30B12068006840F028
:100CF0000E00216808600BE02068006820F0040006
:100D0000216808602068006840F00A0021680860D7
:100D10002068006840F001002168086006E000BF1C
:100D2000002084F8200000BF4FF002084046BFE7D3
:100D300070B5044600F0A6F906462546681C10B1B9
:100D400004480078054400BF00F09CF9801BA842CD
:100D5000FAD370BD080000202DE9F84703460022B1
:100D600094466EE14FF0010808FA02F4D1F80080D1
:100D700008EA0400A0427DD1DFF8DCA2D1F80480AB
:100D8000A8EB0A09D0453AD014DCB8F1030F50D0D3
:100D900009DCB8F1000F31D0B8F1010F1CD0B8F167
:100DA000020F49D120E0B8F1110F18D0B8F1120F9D
:100DB00042D11EE0B9F5881F25D006DCB9F5803F89
:100DC00020D0B9F5801F37D11AE0B9F5001F18D02F
:100DD000B9F5041F30D117E0D1F80CC02DE0D1F8DF
:100DE0000C8008F1040C28E0D1F80C8008F1080C04
:100DF00023E0D1F80C8008F10C0C1EE000BF00BF0E
:100E000000BF00BF00BF00BFD1F80880B8F1000FDD
:100E100002D14FF0040C0BE0D1F80880B8F1010FBB
:100E200003D14FF0080C1C6102E04FF0080C5C612C
:100E300003E04FF0000C00E000BF00BFFF2801D826
:100E4000984601E003F104084646FF2802D84FEA1D
:100E5000820803E0A2F108084FEA88084746D6F85E
:100E600000804FF00F0909FA07F928EA09080CFA7F
:100E700007F900E088E048EA0908C6F80080D1F8E0
:100E8000048008F08058B8F1805F7DD100BFDFF8A2
:100E9000CC81D8F8188048F00108DFF8C091C9F873
:100EA0001880C846D8F8188008F00108CDF80080EE
:100EB00000BF00BF4FEAB9384FEA920958F82950ED
:100EC0004FEA82784FEA18794FF00F0808FA09F8CC
:100ED00025EA0805DFF88881434502D14FF0000874
:100EE00016E0DFF88081434502D14FF001080FE0A2
:100EF000DFF87481434502D14FF0020808E0DFF8C3
:100F00006C81434502D14FF0030801E04FF0040823
:100F10004FEA82794FEA197908FA09F848EA050593
:100F2000DFF84C814FEA920948F82950D1F8048043
:100F300008F48018B8F5801F0AD1DFF83881D8F896
:100F4000008048EA0008DFF82C91C9F8008009E029
:100F5000DFF82081D8F8008028EA0008DFF8149133
:100F6000C9F80080D1F8048008F40018B8F5001F13
:100F700010D1DFF8008108F10408D8F8008048EAB1
:100F80000008DFF8F09000E05AE009F10409C9F820
:100F900000800DE0DFF8DC8008F10408D8F800805C
:100FA00028EA0008DFF8CC9009F10409C9F80080AC
:100FB000D1F8048008F40038B8F5003F0ED1DFF80E
:100FC000B480A8F10408D8F8008048EA0008DFF8E7
:100FD000A490A9F10409C9F800800DE0DFF894801D
:100FE000A8F10408D8F8008028EA0008DFF8849007
:100FF000A9F10409C9F80080D1F8048008F4803808
:10100000B8F5803F0ED1DFF86C80A8F10808D8F859
:10101000008048EA0008DFF85C90A9F10809C9F8E7
:1010200000800DE0DFF84C80A8F10808D8F80080B7
:1010300028EA0008DFF83C90A9F10809C9F8008007
:10104000521CD1F8008028FA02F8B8F1000F7FF4A2
:1010500089AEBDE8F88700000000111000100240C2
:1010600000080140000C0140001001400014014044
:1010700008000140080401400AB1016101E00B04CD
:1010800003617047014800687047000000000020BD
:1010900070B504460CB9012070BD94F83D0028B924
:1010A000002084F83C00204600F08CF9242084F8CD
:1010B0003D002068006820F0010021680860206879
:1010C000006840F40040216808602068006820F44F
:1010D00000402168086000F043FB05465C496068F9
:1010E000884206D85B48854201D2012007E00020F3
:1010F00005E05948854201D2012000E00020012886
:1011000000D1C9E75548B5FBF0F62068406820F0EB
:101110003F003043216848604D496068884201D8EB
:10112000701C07E04FF4967070434FF47A71B0FB77
:10113000F1F0401C2168096A21F03F010843216851
:10114000086243496068884214D8681E6168490093
:10115000B0FBF1F0401CC0F30B00042801D20420C6
:101160003DE0681E61684900B0FBF1F0401CC0F32F
:101170000B0034E0A06838B9681E616801EB4101DA
:10118000B0FBF1F0401C0AE0681E616801EBC1028F
:1011900002EB0111B0FBF1F0401C40F48040C0F3C1
:1011A0000B0008B901201AE0A06848B9681E616800
:1011B00001EB4101B0FBF1F0401CC0F30B000CE06F
:1011C000681E616801EBC10202EB0111B0FBF1F096
:1011D000401CC0F30B0040F4804040F40040216804
:1011E000C9694CF6FF72914308432168C861D4E98C
:1011F000070108432168096821F0C00108432168FC
:101200000860D4E9031008432168896848F2FF3276
:101210009143084321688860D4E9050108432168A7
:10122000C96821F0FF0108432168C8602068006890
:1012300040F001002168086000202064202084F82C
:101240003D000020206384F83E0000BF24E700003A
:10125000A086010080841E0000093D0040420F006E
:101260002DE9FC5F04460F4690469946DDE90CAB3C
:101270000E9EFFF707FF054694F83D0020287DD11C
:10128000192301224D492046009501F090FE10B12E
:101290000220BDE8FC9F00BF94F83C00012801D16A
:1012A0000220F6E7012084F83C0000BF20680068B7
:1012B00000F0010028B92068006840F001002168B2
:1012C00008602068006820F4006021680860212020
:1012D00084F83D00402084F83E0000202064C4F8DB
:1012E00024A0A4F82AB0608D20853548E0624B46E2
:1012F000424639462046CDE9006501F0B5FD08B10A
:101300000120C6E731E02A463146204601F02BFF96
:1013100050B1206C042805D12068006840F40070AA
:10132000216808600120B4E7606A007821680861DC
:10133000606A401C6062208D401E2085608D401ECA
:10134000608520684069C0F3800070B1208D60B175
:10135000606A007821680861606A401C6062208DC4
:10136000401E2085608D401E6085208D0028CAD1DA
:101370002A463146204601F0E7FD00E01CE050B16E
:10138000206C042805D12068006840F400702168B2
:10139000086001207DE72068006840F40070216843
:1013A0000860202084F83D00002084F83E0000BF43
:1013B00084F83C0000BF6CE702206AE702001000DE
:1013C0000000FFFF10B586B0044600200290039095
:1013D0000490059015492068884225D100BF144823
:1013E000806940F00800124988610846806900F071
:1013F0000800019000BF00BFC0200290122003909F
:101400000320059002A90B48FFF7A6FC00BF08487F
:10141000C06940F400100649C8610846C06900F47C
:101420000010019000BF00BF06B010BD0054004086
:1014300000100240000C014003480068034909788D
:10144000084401490860704700000020080000209F
:1014500010B50848006840F01000064908600320F5
:1014600000F09EF8002000F007F800F02BF80020B4
:1014700010BD00000020024070B504460E48007800
:101480004FF47A71B1FBF0F00C490968B1FBF0F54B
:10149000284600F0EFFB08B1012070BD102C07D2E8
:1014A00000222146501E00F03DF80548046001E08E
:1014B0000120F2E70020F0E7080000200C000020E7
:1014C0000400002008B500BF0D48806940F001000D
:1014D0000B4988610846806900F00100009000BF58
:1014E00000BF00BF0846C06940F08050C861084690
:1014F000C06900F08050009000BF00BF08BD000030
:101500000010024001460846002809DB00F01F03D6
:1015100001229A4043099B0003F1E023C3F8002114
:1015200000BF70472DE9F05F80460D461646002744
:1015300002F0F8FE074639462A46334601F0070016
:10154000C0F1070ABAF1040F02D94FF0040A01E012
:10155000C0F1070AD14600F1040ABAF1070F02D21E
:101560004FF0000A01E0A0F1030AD4464FF0010A4F
:101570000AFA09FAAAF1010A0AEA020A0AFA0CFAB4
:101580004FF0010B0BFA0CFBABF1010B0BEA030B59
:101590004AEA0B042146404602F0CCFEBDE8F09F2B
:1015A00000BF00F00702064B19684FF6FF03194011
:1015B000044B0B4343EA0221014B196000BF704703
:1015C0000CED00E00000FA0570B504460D460CB9BC
:1015D000012070BD5A48006800F00700A8420ED2F2
:1015E0005748006820F0070028435549086008461E
:1015F000006800F00700A84201D00120E9E7207848
:1016000000F0020002281DD1207800F00400042818
:1016100005D14C48406840F4E0604A494860207871
:1016200000F00800082805D14648406840F46050A2
:10163000444948604348406820F0F000A1680843EE
:1016400040494860207800F0010078B360680128C4
:1016500006D13C48006800F4003090B90120B8E79A
:101660006068022806D13748006800F0007040B971
:101670000120AEE73348006800F0020008B90120FD
:10168000A7E73048406820F00300616808432D490F
:101690004860FFF7F7FC064609E0FFF7F3FC801B04
:1016A00041F28831884202D9032092E707E02548B9
:1016B000406800F00C006168B0EB810FEDD120486C
:1016C000006800F00700A8420ED91D48006820F00D
:1016D000070028431A4908600846006800F0070020
:1016E000A84201D0012074E7207800F0040004280B
:1016F00007D11448406820F4E060E16808431149CC
:101700004860207800F00800082808D10D4840689B
:1017100020F46050216940EAC1000A49486000F0A5
:101720003FF808494968C1F30311074A515CC840B2
:101730000649086006480068FFF79EFE002048E75B
:101740000020024000100240364D00080C0000202E
:101750000400002001480068704700000C000020D1
:1017600000B5FFF7F7FF04494968C1F30221034AB6
:10177000515CC84000BD000000100240464D00080A
:1017800000B5FFF7E7FF04494968C1F3C221034AE6
:10179000515CC84000BD000000100240464D0008EA
:1017A00070B500210022002400230020134D696839
:1017B00001F00C05F5B1042D02D0082D19D101E07E
:1017C0000F4819E00F4DC1F38346AB5D01F480353E
:1017D00055B10A4D6D68C5F340450B4E725D084D1D
:1017E0005D43B5FBF2F402E0084D03FB05F420462F
:1017F00002E000BF024800BF00BF70BD0010024001
:1018000000127A00244D0008344D000800093D0004
:10181000F8B504460CB90120F8BD207800F00100AD
:10182000002878D0F848406800F00C0004280CD05C
:10183000F548406800F00C00082811D1F2484068D3
:1018400000F48030B0F5803F0AD1EF48006800F422
:10185000003000285FD0606800285CD10120DBE701
:1018600000BF6068B0F5803F06D1E748006840F4EB
:101870008030E549086028E0606858B9E2480068AF
:1018800020F48030E04908600846006820F4802099
:1018900008601AE06068B0F5A02F0BD1DA48006844
:1018A00040F48020D84908600846006840F4803041
:1018B00008600AE0D448006820F48030D24908600B
:1018C0000846006820F48020086000BF606888B186
:1018D000FFF7D8FB054606E0FFF7D4FB401B642862
:1018E00001D9032098E7C848006800F400300028B8
:1018F000F2D010E0FFF7C6FB054606E0FFF7C2FB9B
:10190000401B642801D9032086E7BF48006800F423
:1019100000300028F2D1207800F00200022857D1D0
:10192000B948406800F00C0050B1B748406800F07A
:101930000C00082818D1B448406800F4803098B9E9
:10194000B148006800F0020020B12069012801D0F0
:10195000012061E7AC48006820F0F800616940EAC6
:10196000C100A949086033E02069E8B10120A74916
:101970000860FFF787FB054606E0FFF783FB401B87
:10198000022801D9032047E79F48006800F00200C1
:101990000028F2D09C48006820F0F800616940EA15
:1019A000C1009949086013E0002098490860FFF7DA
:1019B00069FB054606E0FFF765FB401B022801D9DD
:1019C000032029E79048006800F002000028F2D1C7
:1019D000207800F0080008282DD1A069B8B10120B6
:1019E0008B490860FFF74EFB054606E0FFF74AFB10
:1019F000401B022801D903200EE78348406A00F00B
:101A000002000028F2D0012001F0F8FF13E00020CE
:101A10007F490860FFF736FB054606E0FFF732FB1B
:101A2000401B022801D90320F6E67748406A00F0FF
:101A300002000028F2D1207800F00400042873D1BD
:101A400000277148C06900F0805070B900BF6E482F
:101A5000C06940F080506C49C8610846C06900F018
:101A60008050009000BF00BF01276A48006800F462
:101A70008070B0B96748006840F4807065490860BC
:101A8000FFF700FB054606E0FFF7FCFA401B642861
:101A900001D90320C0E65F48006800F48070002888
:101AA000F2D000BFE068012806D15748006A40F034
:101AB00001005549086227E0E06858B95248006AB9
:101AC00020F00100504908620846006A20F0040036
:101AD000086219E0E06805280BD14B48006A40F025
:101AE0000400494908620846006A40F001000862A3
:101AF0000AE04548006A20F00100434908620846B0
:101B0000006A20F00400086200BFE068A0B1FFF79F
:101B1000B9FA054609E0FFF7B5FA401B41F28831F2
:101B2000884202D9032077E622E03748006A00F0B5
:101B300002000028EFD012E0FFF7A4FA054608E003
:101B4000FFF7A0FA401B41F28831884201D90320F7
:101B500062E62D48006A00F002000028F0D1012F53
:101B600005D12948C06920F080502749C86100BFCD
:101B7000E069C8B32448406800F00C00082860D031
:101B8000E069022848D1002020490866FFF77AFA68
:101B9000054606E0FFF776FA401B022801D903202C
:101BA0003AE61948006800F000700028F2D1206A77
:101BB000B0F5803F07D11448406820F40030A16898
:101BC000084311494860D4E9080108430E494968AF
:101BD00021F4741108430C49486001200B49086640
:101BE000FFF750FA054607E03DE0FFF74BFA401BD0
:101BF000022801D903200FE60348006800F00070B6
:101C00000028F2D02FE00000001002400000424205
:101C10008004424200700040002014490866FFF72B
:101C200031FA054606E0FFF72DFA401B022801D9DC
:101C30000320F1E50E48006800F000700028F2D1A2
:101C400011E0E069012800D1E6E50948466806F49C
:101C50008031206A814204D106F47011606A8142A9
:101C600001D00120D8E50020D6E500000000424266
:101C70000010024070B504462546681EB0F1807F12
:101C800001D301200FE0681E4FF0E02148610F21D1
:101C90004FF0FF3002F04EFB00204FF0E021886152
:101CA00007200861002070BD7047704710B50346DB
:101CB000002200BF93F83C00012801D1022010BD92
:101CC000012083F83C0000BF22F0FF00CC6840EA0E
:101CD000040222F440708C6840EA040222F480601E
:101CE0004C6840EA040222F400600C6840EA0402F6
:101CF00022F480500C6940EA040222F400504C693E
:101D000040EA040222F48040CC6940EA04021868E8
:101D1000426400BF002083F83C0000BF00BFCEE754
:101D200030B502460B4600BF92F83C00012801D1B5
:101D3000022030BD012082F83C0000BF022082F862
:101D40003D00106844681068816824F070041868C9
:101D5000044310684460104D1068A8420BD010680E
:101D6000B0F1804F07D00D4D1068A84203D00C4D44
:101D70001068A84205D121F080015868014310681D
:101D80008160012082F83D0000BF002082F83C0005
:101D900000BF00BFCDE70000002C01400004004060
:101DA0000008004010B504460CB9012010BD94F89D
:101DB0003D0028B9002084F83C00204600F026F8B9
:101DC000022084F83D00211D206801F07DFE0120E5
:101DD00084F8460000BF84F83E0001213F200155F1
:101DE000402001554120015500BF00BF012084F86B
:101DF000420043200155442001554520015500BFB4
:101E0000012084F83D000020D0E7000038B50446EA
:101E10001A492068884216D100BF1948806940F4E9
:101E20000060174988610846806900F400600090EE
:101E300000BF00BF002201211920FFF773FB19200A
:101E4000FFF760FB19E02068B0F1804F15D100BFAB
:101E50000B48C06940F001000949C8610846C069E3
:101E600000F00100009000BF00BF002201211C20F3
:101E7000FFF758FB1C20FFF745FB38BD002C014045
:101E800000100240014691F83D00012801D00120D8
:101E90007047022081F83D000868C06840F00100EA
:101EA0000B68D860124B086898420BD00868B0F1F4
:101EB000804F07D00F4B0868984203D00E4B08683C
:101EC00098420CD10868806800F00702062A0CD0FE
:101ED0000868006840F001000B68186005E00868B9
:101EE000006840F001000B6818600020D0E7000097
:101EF000002C014000040040000800402DE9F041A2
:101F000004460D46002700BF94F83C00012802D18A
:101F10000220BDE8F081012084F83C0000BF0220CF
:101F200084F83D002068866826F0770626F47F4610
:101F3000206886602868502833D00CDC202850D0D8
:101F400004DC00284BD0102851D149E0302849D07A
:101F500040284CD139E060282DD0702807D0B0F54A
:101F6000805F03D0B0F5005F41D10DE041E0D5E9DD
:101F700002136A68206801F0F2FD2068866846F066
:101F800077062068866034E0D5E902136A68206825
:101F900001F0E5FD2068806840F480402168886099
:101FA00027E0EA686968206801F0AAFE50212068ED
:101FB00001F0E0FD1DE0EA686968206801F0B3FE09
:101FC0006021206801F0D6FD13E0EA6869682068A6
:101FD00001F096FE4021206801F0CCFD09E000BF31
:101FE00000BF00BF2968206801F0C4FD01E001279F
:101FF00000BF00BF012084F83D0000BF002084F82E
:102000003C0000BF384684E72DE9F04104460D4608
:1020100014B90120BDE8F08194F83D0028B90020F2
:1020200084F83C00204600F051F8022084F83D007E
:102030002068806844F20701884321688860211D78
:10204000206801F041FD2068D0F80880206886698A
:102050002068076A286840EA080840F2033086438F
:10206000A969A86840EA0120064340F60C4086436F
:102070004FF2F0008643E969E86840EA0120064330
:1020800028690001296A40EA0130064327F0220747
:102090006969686840EA011007432068C0F8088051
:1020A0002068866120680762012084F8460084F871
:1020B0003E0001213F200155012084F842004320C9
:1020C0000155012084F83D000020A3E710B586B03B
:1020D000044600200290039004900590194920685E
:1020E00088422CD100BF1848C06940F00200164950
:1020F000C8610846C06900F00200019000BF00BF3F
:1021000000BF0846806940F0040088610846806985
:1021100000F00400019000BF00BFC020029000202A
:1021200003900120049002A90848FEF715FE002242
:1021300002211D20FFF7F6F91D20FFF7E3F906B095
:1021400010BD0000000400400010024000080140E3
:102150002DE9F04304460D4694F83E603F20075DAC
:1021600094F84280432010F804906DB9012E02D1FA
:10217000B8F1010F02D00120BDE8F083022084F8FD
:102180003E0084F8420025E0042D0CD1012F02D13D
:10219000B9F1010F01D00120EEE702213F200155E6
:1021A0004320015516E0012E07D1012F05D1B8F1CA
:1021B000010F02D1B9F1010F01D00120DCE70220AB
:1021C00084F83E0002213F200155022084F842009D
:1021D0004320015515B1042D0CD105E00122002149
:1021E000206801F0ABFC10E001220421206801F01E
:1021F000A5FC0AE001220021206801F09FFC0122D9
:102200000421206801F09AFC00BF00BF206800682C
:1022100040F00100216808600020ADE7704710B56C
:10222000044620680069C0F34000D8B12068C06847
:10223000C0F34000B0B16FF00200216808610120D6
:1022400020772068806900F0030018B12046FFF76E
:10225000E5FF05E0204600F0D9F8204600F08DF9B2
:102260000020207720680069C0F38000D8B1206882
:10227000C068C0F38000B0B16FF00400216808614D
:10228000022020772068806900F4407018B1204651
:10229000FFF7C4FF05E0204600F0B8F8204600F044
:1022A0006CF90020207720680069C0F3C000D8B125
:1022B0002068C068C0F3C000B0B16FF008002168AA
:1022C0000861042020772068C06900F0030018B17D
:1022D0002046FFF7A3FF05E0204600F097F82046D0
:1022E00000F04BF90020207720680069C0F300104F
:1022F000D8B12068C068C0F30010B0B16FF0100012
:1023000021680861082020772068C06900F44070C7
:1023100018B12046FFF782FF05E0204600F076F86E
:10232000204600F02AF9002020772068006900F09C
:10233000010058B12068C06800F0010030B16FF0B2
:10234000010021680861204600F082F920680069D8
:10235000C0F3C01058B12068C068C0F3C01030B1DD
:102360006FF08000216808612046FFF79DFC20681F
:102370000069C0F3801058B12068C068C0F38010B5
:1023800030B16FF0400021680861204600F0E0F9AC
:1023900020680069C0F3401058B12068C068C0F3DD
:1023A000401030B16FF02000216808612046FFF72F
:1023B0007CFC10BD10B586B004460020029003904E
:1023C000049005900E492068884216D100BF0D4840
:1023D000806940F004000B4988610846806900F07C
:1023E0000400019000BF00BF8815029002200390F6
:1023F000059002A90448FEF7AFFC06B010BD00002E
:10240000002C0140001002400008014070472DE9F7
:10241000F04104460D461646002700BF94F83C00E4
:10242000012802D10220BDE8F081012084F83C009F
:1024300000BF36B1042E1BD0082E31D00C2E5ED139
:1024400045E02946206801F09FFB2068806940F044
:102450000800216888612068806920F004002168F4
:10246000886120688069296908432168886148E09B
:102470002946206801F0B8FB2068806940F40060BC
:10248000216888612068806920F480602168886103
:1024900020688069296940EA01202168886130E06C
:1024A0002946206801F0D4FB2068C06940F008008C
:1024B0002168C8612068C06920F004002168C861F3
:1024C0002068C069296908432168C86119E0294664
:1024D000206801F0F1FB2068C06940F400602168C9
:1024E000C8612068C06920F480602168C8612068E4
:1024F000C069296940EA01202168C86101E001271B
:1025000000BF00BF00BF002084F83C0000BF384679
:1025100089E710B504460CB9012010BD94F83D00C0
:1025200028B9002084F83C00204600F025F802205D
:1025300084F83D00211D206801F0C6FA012084F8CE
:10254000460000BF84F83E0001213F200155402095
:1025500001554120015500BF00BF012084F8420011
:1025600043200155442001554520015500BF01205D
:1025700084F83D000020D0E77047704770B50446EE
:102580000D4615B994F83E000BE0042D02D13F2012
:10259000005D06E0082D02D14020005D01E04120F1
:1025A000005D012801D0012070BD1DB9022084F812
:1025B0003E000EE0042D03D102213F20015508E02A
:1025C000082D03D102214020015502E002214120C3
:1025D000015501222946206801F0B0FA1949206806
:1025E000884201D1012000E0002028B12068406C21
:1025F00040F40040216848641249206888420BD0AA
:102600002068B0F1804F07D00F492068884203D07E
:102610000E49206888420CD12068806800F00706C7
:10262000062E0CD02068006840F001002168086088
:1026300005E02068006840F0010021680860002083
:10264000B2E70000002C01400004004000080040F8
:102650002DE9F04790B082463149DAF80000096868
:10266000884259D12F480068406A00B22E4908813B
:1026700000202C49096848622B49B1F90800FDF790
:102680004DFE05462949FDF7D9FD04462849FDF7C9
:1026900007FE2549C8600A462649274801F01AF96D
:1026A00024488169204800F0A3FF23498868FDF78A
:1026B00052FE04460D4620494868FDF74CFE06468A
:1026C0000F461D490868FDF746FE804689461949B0
:1026D0008869FDF740FECDE90E011349C868FDF792
:1026E0003AFECDE90C0110494868FDF734FECDE90A
:1026F0000489CDE90667CDE90845CDE90A01DDE9A0
:102700000E01CDE90201DDE90C01CDE900010BA0CC
:10271000DDE90A2301F0F6FD10B0BDE8F087000006
:10272000C000002008010020200200200000C84254
:1027300000008244580200207402002025662C25E7
:10274000662C25662C25662C25662C25660D0A0030
:102750007047F8B504460E46174694F84200202804
:102760002ED106B10FB90120F8BD01202063002051
:1027700060633A463146204601F0DCFC0546EDB97F
:10278000206B012819D100BF00200090206800684C
:10279000009020684068009000BF00BF00BF00BFED
:1027A00021680C3151E8001F41F0100021680C3104
:1027B00041E80002002AF3D100E001252846D3E7D2
:1027C0000220D1E72DE9FC5F06460C4646493068F9
:1027D0000968884270D1601E4449085C212874D180
:1027E0000025072C24D14979A1F13000FDF796FD91
:1027F00080463F49FDF722FD07463C490979A1F192
:102800003000FDF78BFD83463A49FDF717FD804602
:1028100036498978A1F13000FDF780FD82464146B6
:10282000FDF7B4FC81463946FDF7B0FC054635E0BE
:10283000082C33D12D494979A1F11E00FDF76EFD19
:1028400081462B49FDF7FAFC074628490979A1F191
:102850003000FDF763FD83462649FDF7EFFC814616
:102860002249C978A1F13000FDF758FD1F490190B8
:102870008978A1F13000FDF751FD1F490090FDF767
:10288000DDFC83460199FDF781FC82464946FDF750
:102890007DFC80463946FDF779FC054613480078F3
:1028A000702802D1154805600EE0104800786928AC
:1028B00004D11248456007E014E006E00B480078B8
:1028C000642801D10D48856000BF102207490648E1
:1028D000FFF73FFF0A480068006820F0040008493D
:1028E00009680860BDE8FC9F50010020140000202A
:1028F0000AD7233CCDCCCC3D0000204174020020FF
:1029000098010020704700002DE9F84F0446206828
:1029100005682068C668206847694FF00009CA4604
:1029200005F00F09B9F1000F0AD105F0200038B108
:1029300006F0200020B1204601F000FBBDE8F88F32
:10294000B9F1000F7BD007F0010018B906F49070C0
:10295000002874D005F0010030B106F4807018B181
:10296000606C40F00100606405F0040030B107F0D5
:10297000010018B1606C40F00200606405F00200D4
:1029800030B107F0010018B1606C40F004006064E1
:1029900005F0080048B106F0200010B907F001006A
:1029A00018B1606C40F008006064606C002845D08D
:1029B00005F0200028B106F0200010B1204601F0FB
:1029C000BDFA20684069C0F3801A606C00F008000E
:1029D00010B9BAF1000F2CD0204601F056FA206849
:1029E000406900F0400000B300BF00BF216814310F
:1029F00051E8001F21F040002168143141E8000235
:102A0000002AF3D100BFE06B50B17748E16B486317
:102A1000E06BFDF7E5FF88B1E06B416B88470DE0A7
:102A20002046FFF76FFF09E009E02046FFF76AFF45
:102A300004E02046FFF766FF002060647EE7206B1D
:102A4000012877D105F01000002873D006F010009F
:102A50000028FAD000BF0020009020680068009095
:102A600020684068009000BF00BF2068406900F007
:102A7000400000285FD0E06B006840681FFA80F8D3
:102A8000B8F1000F55D0A08D404552DDA4F82E803E
:102A9000E06B8069202843D000BF00BF21680C3163
:102AA00051E8001F21F4807021680C3141E80002D8
:102AB000002AF3D100BF00BF00BF2168143151E8E4
:102AC000001F21F001002168143141E80002002AB2
:102AD000F3D100BF00BF00BF2168143151E8001FCF
:102AE00021F040002168143141E80002002AF3D1AE
:102AF00000BF202084F842000020206300BF00BFF8
:102B000021680C3151E8001F21F0100021680C31C0
:102B100041E80002002AF3D100BFE06BFDF734FF6B
:102B200002206063A08DE28D801A81B22046FFF7FB
:102B300049FE03E742E0A08DE18D401A1FFA80F8BC
:102B4000E08DD0B3B8F1000F37D000BF00BF2168CF
:102B50000C3151E8001F21F4907021680C3141E8DC
:102B60000002002AF3D100BF00BF00BF216814316A
:102B700051E8001F21F001002168143141E80002F2
:102B8000002AF3D100BF202084F8420000202063F7
:102B900000BF00BF21680C3151E8001F21F0100078
:102BA00021680C3141E80002002AF3D100BF022065
:102BB000606341462046FFF705FEBFE605F0800052
:102BC00030B106F0800018B1204601F017FBB5E6E1
:102BD00005F0400030B106F0400018B1204601F089
:102BE0008AF9ABE600BFA9E64F3D000810B50446E0
:102BF0000CB9012010BDA06900B100E000BF94F83D
:102C0000410028B9002084F84000204600F02AF84E
:102C1000242084F841002068C06820F40050216816
:102C2000C860204601F008FA2068006920F490404E
:102C3000216808612068406920F02A002168486105
:102C40002068C06840F400502168C86000206064BB
:102C5000202084F8410084F842000020606300BF17
:102C6000C8E7000010B586B004460020029003902B
:102C70000490059037492068884268D100BF3648E3
:102C8000C06940F400303449C8610846C06900F4A6
:102C90000030019000BF00BF00BF0846806940F0CF
:102CA000040088610846806900F00400019000BFBC
:102CB00000BF04200290022003900320059002A987
:102CC0002648FEF749F8082002900020039004905F
:102CD00002A92248FEF740F8214822490860002056
:102CE000486000211F4881608021C160002101618E
:102CF00041618161C161FDF799FF08B1FDF741FEB6
:102D000000BF1848E063446200BF154814301649FC
:102D10000860102048600021134881608021C16054
:102D20000021016141618161C161FDF77FFF08B14F
:102D3000FDF727FE00BF0C48A063446200BF0022DD
:102D400011462620FEF7EEFB2620FEF7DBFB06B041
:102D500010BD000000440040001002400008014087
:102D60006C00024098010020DC0100207047704791
:102D70002DE9F84F04460E46174699464FF0000AD3
:102D800094F8410020284AD106B117B90120BDE8C6
:102D9000F88F00206064212084F84100FEF772F96A
:102DA0008246A784E784A068B0F5805F04D12069DB
:102DB00010B90025B04602E035464FF000081BE090
:102DC0005346002280212046CDF8009001F046FABB
:102DD00008B10320DBE745B9B8F80000C0F30800EC
:102DE0002168486008F1020803E0287821684860FB
:102DF0006D1CE08C401EE084E08C0028E0D153463E
:102E0000002240212046CDF8009001F027FA08B1B9
:102E10000320BCE7202084F841000020B7E702200F
:102E2000B5E7704700BFFEE7014608684069C0F398
:102E30008020B0B16FF480600A68506100200863A0
:102E4000202081F83D00002081F83E00086C40F011
:102E50000400086400BF002081F83C0000BF01208E
:102E600070470020FCE700002DE9F843044688463F
:102E700015469946DDE908672068006840F48070CF
:102E800021680860334600224FF001112046009768
:102E900000F08DF860B12068006800F48070B0F533
:102EA000807F02D14FF4007020640320BDE8F883D6
:102EB00008F0FE00216808613B4632462149204661
:102EC00000F0D4F808B10120F0E700BF0020009026
:102ED00020684069009020688069009000BF00BFB2
:102EE0003A463146204600F03EF950B1206C0428A5
:102EF00005D12068006840F4007021680860012056
:102F0000D4E7B9F1010F03D1E8B22168086117E0F5
:102F1000C5F30720216808613A463146204600F093
:102F200022F950B1206C042805D12068006840F4D3
:102F30000070216808600120B8E7E8B221680861E4
:102F40000020B3E70200010070B504460D461646A6
:102F500025E02046FFF768FF08B1012070BD681C1E
:102F6000E8B1FEF78FF8801BA84200D8BDB92068F1
:102F70004069C0F3800090B900202063202084F8CD
:102F80003D00002084F83E00206C40F020002064CA
:102F900000BF002084F83C0000BF0120DEE720686D
:102FA0004069C0F380000028D3D00020D6E72DE987
:102FB000F04104460D4617461E46DDF8188038E0FD
:102FC000701CA8B3FEF75EF8A0EB0800B04200D872
:102FD00076BBC5F3074001280AD120684069A9B231
:102FE0000840A9B2884201D101200BE0002009E08D
:102FF00020688069A9B20840A9B2884201D10120A5
:1030000000E00020B84214D100202063202084F882
:103010003D00002084F83E00206C40F02000206439
:1030200000BF002084F83C0000BF0120BDE8F08113
:10303000FFE7C5F3074001280AD120684069A9B21B
:103040000840A9B2884201D101200BE0002009E02C
:1030500020688069A9B20840A9B2884201D1012044
:1030600000E00020B842ABD00020DFE72DE9F041BE
:1030700004460D4616461F4658E020684069C0F3D6
:103080008020E8B12068006840F400702168086082
:103090006FF480602168486100202063202084F85C
:1030A0003D00002084F83E00206C40F004002064C5
:1030B00000BF002084F83C0000BF0120BDE8F08183
:1030C000701C90B3FDF7DEFFC01BB04200D866BB9A
:1030D000C5F3074001280AD120684069A9B2084019
:1030E000A9B2884201D101200BE0002009E020684C
:1030F0008069A9B20840A9B2884201D1012000E04C
:10310000002090B900202063202084F83D0000209A
:1031100084F83E00206C40F02000206400BF0020B6
:1031200084F83C0000BF0120C8E7FFE7C5F3074073
:1031300001280AD120684069A9B20840A9B2884292
:1031400001D101200BE0002009E020688069A9B2CC
:103150000840A9B2884201D1012000E000200028E7
:103160008BD00020AAE770B504460D46164625E030
:103170002046FFF759FE08B1012070BD681CE8B178
:10318000FDF780FF801BA84200D8BDB920684069C8
:10319000C0F3C01090B900202063202084F83D00C7
:1031A000002084F83E00206C40F02000206400BF26
:1031B000002084F83C0000BF0120DEE72068406961
:1031C000C0F3C0100028D3D00020D6E710B50446C5
:1031D000012C05D1012204210448FDF74DFF04E034
:1031E000002204210148FDF747FF10BD000C0140FB
:1031F00008B500BF0E48406940F001000C49486125
:103200000846406900F00100009000BF00BF0022A6
:1032100011461020FEF786F91020FEF773F9002200
:1032200011461120FEF77EF91120FEF76BF908BD5B
:103230000010024000B585B000200190029003907C
:10324000049000BF2E48806940F010002C4988612E
:103250000846806900F01000009000BF00BF00BF6A
:103260000846806940F0200088610846806900F0C7
:103270002000009000BF00BF00BF0846806940F0FA
:10328000040088610846806900F00400009000BFD7
:1032900000BF00BF0846806940F00800886108460A
:1032A000806900F00800009000BF00BF00223021BC
:1032B0001448FDF7E1FE002204211348FDF7DCFE6F
:1032C00003200190002002900120039001A90D48E5
:1032D000FDF742FD30200190012002900390049000
:1032E00001A90848FDF738FD042001900120029053
:1032F0000390049001A90448FDF72EFD05B000BD20
:103300000010024000080140000C014010B50B48BD
:103310000B4908600B484860002109488160C16082
:103320004FF480410161002141618161C16101620D
:10333000FDF7AEFE08B1FDF724FB10BD00540040C0
:1033400024000020A086010000B595B00020119057
:103350001290139014900F9010901C2108A8FCF765
:103360000AFF20216846FCF706FF2B482B4908601E
:1033700040F2CF20486000212848816040F2E731C8
:10338000C1600021016141618161FEF70BFD08B15F
:10339000FDF7F7FA4FF48050119011A91F48FEF77E
:1033A000ADFD08B1FDF7EDFA1C48FFF7B2F808B122
:1033B000FDF7E7FA00200F9010900FA91748FEF7CD
:1033C000AFFC08B1FDF7DDFA6020089000200990FD
:1033D0000A900B900C900D900E90002208A90F48B7
:1033E000FFF715F808B1FDF7CCFA00200090019026
:1033F0000290039004904FF4005005900020079035
:1034000069460648FEF752FC08B1FDF7BAFA0348D0
:10341000FEF7D0FF15B000BD002C01407800002061
:1034200000B587B0002003900490059006900190AD
:1034300002904FF080401549086040F2CF2048606C
:103440000021124881604FF47A71C160002101614E
:1034500080218161FEF7A6FC08B1FDF792FA4FF4D6
:103460008050039003A90948FEF748FD08B1FDF715
:1034700088FA00200190029001A90448FEF750FC50
:1034800008B1FDF77EFA07B000BD0000C0000020C3
:1034900000B58BB0242102A8FCF76DFE002000903F
:1034A000019018481849086000204860002116481B
:1034B00081604FF6FF71C1600021016181610320CD
:1034C00002900020039001200490002005900690B7
:1034D000079001200890002009900A9002A90A484C
:1034E000FEF792FD08B1FDF74CFA00200090019024
:1034F00069460548FEF714FC08B1FDF742FA0BB027
:1035000000BD0000000400400801002010B5114873
:10351000114908604FF4E130486000210E48816095
:10352000C16001610C21416100218161C161FFF72E
:103530005DFB08B1FDF725FA102208490648FFF7A0
:1035400008F907480068006820F004000449096889
:10355000086010BD0044004050010020140000200D
:103560009801002000BFFEE71FB51048FEF71AFCC7
:103570000E48FEF7CEFF00210C48FEF7FFFF0020AB
:1035800000900190029003900198FCF7D0FE08494A
:103590000968486300210648FEF7DAFD0421044863
:1035A000FEF7D6FD0348FEF76DFC1FBD7800002036
:1035B00008010020C000002010B50446012C0AD1EB
:1035C000002210210948FDF757FD0122202107485C
:1035D000FDF752FD09E0012210210448FDF74CFDE2
:1035E000002220210148FDF747FD10BD00080140E1
:1035F0002DE9F04107460C4600212046FCF7BEFEAF
:1036000009D20020FFF7D8FF84F000463046FCF7CF
:103610008EFE85B206E00120FFF7CEFF2046FCF7C4
:1036200086FE85B2B5F57A7F00DD044C2046FCF7B6
:103630007EFE034909684863BDE8F08100007A44D2
:103640007800002000BFFEE72DE9FF4705460C4645
:1036500016464FF00009A01CC4B2C84665E005F14B
:10366000B000C0B28DF80C002046E11704EB1171D8
:1036700009111031C9B28DF80D10E11704EB117169
:103680000911A4EB0111C9B28DF80E104FF47A7034
:10369000012103AA0B46CDE90021029000227821E6
:1036A0002448FDF7DDFD4FF47A7101220DF10D0084
:1036B0001346CDE901210090002278211D48FDF735
:1036C000CFFD4FF47A7101220DF10E001346CDE9C2
:1036D00001210090002278211648FDF7C1FD002746
:1036E0001BE009EB0610A0F500701349085C8DF88B
:1036F0000F004FF47A7101220DF10F001346CDE94E
:1037000001210090402278210A48FDF7A9FD09F126
:10371000010000F0FF09781CC7B2082FE1DB681C2C
:10372000C5B208F1010000F0FF08B8F1020F96DB06
:10373000BDE8FF87240000204E4D000810B586B07C
:1037400026A000680490B020059040E04FF47A7005
:10375000012105AA0B46CDE9002102900022782123
:103760001F48FDF77DFD4FF47A70012104AA0B4636
:10377000CDE900210290002278211948FDF770FD63
:103780004FF47A7101220DF111001346CDE90121A8
:103790000090002278211248FDF762FD00240FE01E
:1037A0004FF47A7101220DF111001346CDE9012188
:1037B0000090402278210A48FDF752FD601CC4B2F7
:1037C000842CEDDB9DF81400401CC0B205909DF8E0
:1037D0001400B828BADB06B010BD000010000000CD
:1037E000240000202DE9F04781460E4617461C466E
:1037F000B846002517E00A2098FBF0F100FB118085
:1038000030301FFA80FA3019401E401BC006010EEE
:1038100052464846FFF718FF0A2098FBF0F01FFABF
:1038200080F8681CC5B2A542E5DBBDE8F087000062
:103830001FB508A0006803904FF47A70032103AA13
:103840000123CDE900210290002278210248FDF7F2
:1038500007FD1FBDAE8D10002400002000B58BB009
:103860001C2209A104A8FCF76DFC4FF47A701C21FE
:1038700004AA0123CDE90021029000227821094801
:10388000FDF7EEFC0BB000BDAE0010D580A83FD315
:1038900000B0408D14A1C8DA1281FFD9F1DB3020CD
:1038A00000A4A6AF2400002010B5FFF7C1FFFFF76A
:1038B00045FFFFF7D3FFFFF741FF10BD70B5DDE90E
:1038C00004450160426083608461056200264661B0
:1038D000C66070BD2DE9F84F04460D461646E068F7
:1038E00020613D4AD1685068FCF7A2FCE060E168C5
:1038F0006069FCF74BFC6061A1696069FCF748FDF9
:1039000001D8A06960612169E068FCF791FC8146FB
:10391000A168FCF793FC074661696068FCF78EFCC0
:103920008146E1682068FCF789FC82464946FCF73D
:103930002DFC80463946FCF729FCE061216AE069EC
:10394000FCF726FD01D8206AE06128696861E86813
:103950002861F168214AD069FCF76AFCE8602969AE
:103960004FF08040FCF76AFC0090E968FCF763FCCC
:1039700083466969FCF70AFC8246A968FCF75EFC8D
:1039800080466968E868FCF759FC00902969E86896
:10399000FCF74EFC83462968FCF750FC82460099F0
:1039A000FCF7F4FB81464146FCF7F0FB0746A969AA
:1039B000FCF7ECFBA861A8690949FCF7E9FC02D215
:1039C0000748A86106E0A8690649FCF7D7FC01D2C0
:1039D0000448A861BDE8F88F20020020740200208E
:1039E00000007A4400007AC410B501604260836030
:1039F000002404614461846110BD704708B5084922
:103A00000968C9084FF47A72B1FBF2F141430091A1
:103A100000BF00BF00994A1E00920029F9D108BDDD
:103A20000C000020704710B5FDF706FD10BD00B575
:103A30008FB0282105A8FCF79EFB14216846FCF7EF
:103A40009AFB0120059000040690002007900120B9
:103A5000099002200C90C1030D914FF4E0110E91DA
:103A600005A8FDF7D5FE08B1FCF78BFF0F200090ED
:103A700002200190002002904FF48060039000200B
:103A8000049002216846FDF79FFD08B1FCF779FF1D
:103A90000FB000BD7047000010B50248FEF7BFFB35
:103AA00010BD00007800002010B50248FEF7B7FBFB
:103AB00010BD0000C000002010B50248FEF7AFFBAB
:103AC00010BD00000801002010B50268184B984294
:103AD00008D0B0F1804F05D0164B984202D0164B5B
:103AE000984203D122F070024B681A43104B98425F
:103AF00008D0B0F1804F05D00E4B984202D00E4B4B
:103B0000984203D122F44072CB681A4322F080031A
:103B10004C6943EA040202608B68C3620B688362EB
:103B2000034B984201D10B6903630123436110BD2C
:103B3000002C0140000400400008004030B501F0B6
:103B40001F05012404FA05F3046A9C430462046A15
:103B500001F01F0502FA05F52C43046230BD30B5B3
:103B60000C46816821F47F4142EA0325254329431D
:103B7000816030BD0A46816821F0700142F0070380
:103B8000194381607047000030B5026A056A25F06C
:103B9000010505624368846924F0700424F003047D
:103BA0000D682C4322F002028D682A430D4DA84275
:103BB00006D100BF22F00802CD682A4322F0040299
:103BC000084DA84207D123F4807323F400734D6994
:103BD0002B438D692B43436084614D6845630262CA
:103BE00030BD0000002C014030B5026A056A25F0A6
:103BF000100505624368846924F4E04424F44074A9
:103C00000D6844EA052422F020028D6842EA05127C
:103C10000E4DA84207D100BF22F08002CD6842EAD3
:103C2000051222F04002094DA84209D123F4806315
:103C300023F400634D6943EA85038D6943EA8503F4
:103C4000436084614D688563026230BD002C014091
:103C500030B5026A056A25F4807505624368C46957
:103C600024F0700424F003040D682C4322F4007245
:103C70008D6842EA05220F4DA84207D100BF22F409
:103C80000062CD6842EA052222F48062094DA84212
:103C900009D123F4805323F400534D6943EA0513FB
:103CA0008D6943EA05134360C4614D68C5630262D0
:103CB00030BD0000002C014030B5036A056A25F4D0
:103CC000805505624468C26922F4E04222F44072E1
:103CD0000D6842EA052223F400538D6843EA053358
:103CE000064DA84204D124F480444D6944EA851469
:103CF0004460C2614D680564036230BD002C014020
:103D000030B50B461446026A056A25F001050562C6
:103D1000816921F0F00141EA041122F00A021A43FC
:103D20008161026230BD30B50B461446026A056AF5
:103D300025F010050562816921F4704141EA0431E2
:103D400022F0A00242EA03128161026230BD70B526
:103D500005466C6A0020E085E0842046FEF7D2FD2F
:103D600070BD70B506460025746A20684069C0F3CE
:103D7000C01594F84100212805D125B10020E08428
:103D8000204600F0C8F820684069C0F3801594F818
:103D90004200222805D125B10020E085204600F010
:103DA00074F8606C40F0100060642046FEF7AAFDD5
:103DB00070BD70B505466C6A2868006800F0200088
:103DC000002842D1E08500BF00BF21680C3151E8D6
:103DD000001F21F4807021680C3141E80002002AA4
:103DE000F3D100BF00BF00BF2168143151E8001FAC
:103DF00021F001002168143141E80002002AF3D1CA
:103E000000BF00BF00BF2168143151E8001F21F03E
:103E100040002168143141E80002002AF3D100BFBC
:103E2000202084F84200206B01280ED100BF00BF83
:103E300021680C3151E8001F21F0100021680C317D
:103E400041E80002002AF3D100BF00206063206B2C
:103E5000012804D1A18D2046FEF7B4FC02E02046E3
:103E6000FEF784FF70BD70B505466C6A0120606383
:103E7000206B012805D1A08D41082046FEF7A2FC49
:103E800002E02046FEF773FF70BD00BF00BF02686E
:103E90000C3252E8002F22F4907102680C3242E892
:103EA0000013002BF3D100BF00BF00BF0268143223
:103EB00052E8002F22F001010268143242E8001398
:103EC000002BF3D100BF016B01290ED100BF00BF51
:103ED00002680C3252E8002F22F0100102680C3206
:103EE00042E80013002BF3D100BF202180F84210DC
:103EF00000210163704710B504462068C06820F0B7
:103F000040002168C860202084F841002046FEF768
:103F100088FF002010BD00BF00BF02680C3252E8CD
:103F2000002F22F0C00102680C3242E80013002B7F
:103F3000F3D100BF202180F841107047F8B5044646
:103F400094F84200222875D1A068B0F5805F0CD1AA
:103F5000206950B90025A66A20684068C0F30800AF
:103F60003080A06A801CA06215E0A56A0026A068C7
:103F7000B0F5805F03D0A06828B9206918B920681F
:103F80004068287004E02068406800F07F002870D6
:103F9000A06A401CA062E08D401E80B2E08500282F
:103FA00046D12068C06820F020002168C8602068E1
:103FB000C06820F480702168C8602068406920F0E3
:103FC000010021684861202084F8420000206063DD
:103FD000206B012826D10020206300BF00BF21688C
:103FE0000C3151E8001F21F0100021680C3141E82C
:103FF0000002002AF3D100BF2068006800F0100022
:1040000010280AD100BF00200090206800680090AE
:1040100020684068009000BF00BFA18D2046FEF7D9
:10402000D1FB02E02046FEF7A1FE0020F8BD01E032
:104030000020FBE70220F9E770B504462168096912
:1040400021F44051E2681143226811612269A1689C
:104050001143626941EA02052168C96841F20C62B4
:10406000914329432268D1602168496921F4407154
:10407000A2691143226851612D4A2168914202D1FF
:10408000FDF77EFB01E0FDF76BFB00EBC00101EBF0
:10409000001162689200B1FBF2F100EBC00202EB8A
:1040A000001263689B00B2FBF3F26423B2FBF3F2ED
:1040B00002EBC20303EB0212A1EB8201322202EBFC
:1040C00001116422B1FBF2F101F0F00100EBC0023A
:1040D00002EB001263689B00B2FBF3F26423B2FBB5
:1040E000F3F201EB021200EBC00101EB0011636877
:1040F0009B00B1FBF3F100EBC00303EB0013666818
:10410000B600B3FBF6F36426B3FBF6F303EBC3068A
:1041100006EB0313A1EB8301322303EB01116423AC
:10412000B1FBF3F101F00F0111442268916070BD01
:104130000038014077B581B0044615460298A06268
:10414000A58500206064222084F842002848E16BA5
:1041500088622848E16BC8622748E16B0863002049
:10416000E16B486302AE32682368191D2B46E06B91
:10417000FCF790FD00BF00200090206800680090D0
:1041800020684068009000BF00BF206970B100BF88
:1041900000BF21680C3151E8001F41F48070216894
:1041A0000C3141E80002002AF3D100BF00BF00BF7C
:1041B0002168143151E8001F41F0010021681431D9
:1041C00041E80002002AF3D100BF00BF00BF216810
:1041D000143151E8001F41F040002168143141E8DA
:1041E0000002002AF3D100BF002004B070BD00001F
:1041F000B33D0008673E0008633D0008014691F8A2
:104200004100212828D18868B0F5805F0BD108696A
:1042100048B90A6A1088C0F308000B685860086A39
:10422000801C086205E00B6A581C086218780B684D
:104230005860C88C401E80B2C88458B90868C068ED
:1042400020F080000B68D8600868C06840F040002B
:104250000B68D860002070470220FCE72DE9F04190
:1042600004460D4617469846069E34E0701C88B3F7
:104270002EB1FCF707FFA0EB0800B0422BD900BF1E
:1042800000BF21680C3151E8001F21F4D070216873
:104290000C3141E80002002AF3D100BF00BF00BF8B
:1042A0002168143151E8001F21F001002168143108
:1042B00041E80002002AF3D100BF202084F8410029
:1042C00084F8420000BF002084F8400000BF0320B3
:1042D000BDE8F081FFE7206800682840A84201D1CE
:1042E000012000E00020B842C0D00020F0E700002C
:1042F00010B50248FEF708FB10BD00005001002079
:1043000000BFFEE70FB4054B10B503A9044A02989D
:1043100000F0F6F810BC5DF814FB0000314C00080A
:104320001000002002480068C0F30220704700001F
:104330000CED00E010B5002804DB0A07130E054A57
:10434000135406E00A07140E034A00F00F031B1F64
:10435000D45410BD00E400E018ED00E002E008C80D
:10436000121F08C1002AFAD170477047002001E0EF
:1043700001C1121F002AFBD1704700002DE9FF5F29
:1043800082B00021DDE90430020DDDF840B00343C6
:1043900018D044F61050A2F2FF324243151411987F
:1043A00001281FD0A5EB0B00401C5FEA000A4FF06C
:1043B00000064E4FDFF83891B046504615D5CAF189
:1043C000000413E0119801244AA3012801D16FEAE7
:1043D0000B010298119AC0E90031C0E9024206B00F
:1043E000BDE8F09FCBF10000DFE704460021404A22
:1043F000491842EB0450CDE9001012E0E00707D065
:1044000032463B4640464946FCF7F1F8804689462D
:1044100032463B4610461946FCF7E9F806460F4679
:104420006410002CEAD1DDE90401DDE90023BAF1D2
:10443000000F06DAFCF7DBF842464B46FCF7D7F8EC
:1044400005E0FCF746F942464B46FCF742F90446C4
:104450000E460022284BFCF7C3F903D84FF0FF307B
:10446000014607E00022254B20463146FCF718F8AC
:10447000FCF79EF9102409E0002C0ADB0A22002335
:10448000FBF7A6FF039B30321A55641E50EA010267
:10449000F2D1641C039AC4F111031444119A012A45
:1044A00003D0012208430DD10AE0084304D00020C4
:1044B0004FF0110B119072E7A3EB0B056D1E0DE091
:1044C0005B4504DD4FF0000205F1010504E003DA6D
:1044D0004FF00002A5F10105002AECD002981199D5
:1044E000C0E90231C0E9004579E70000000014404E
:1044F0000000F03F300000000000F0430000E03F0B
:104500002DE9FF4F95B09B468946064600250FE2F0
:10451000252877D100242746F84A0121059400E098
:10452000044316F8013F203B01FA03F01042F7D193
:1045300030782A2811D06FF02F033078A0F13002A4
:10454000092A16D8059A44F0020402EB820203EB12
:1045500042021044761C0590EFE759F8042B0592AF
:10456000002A03DA504244F40054059044F0020457
:10457000761C30782E2816D116F8010F44F004046A
:104580002A280DD06FF02F023078A0F13003092BCC
:1045900009D807EB870302EB4303C718761CF3E740
:1045A00059F8047B761C30786C280FD006DC4C2838
:1045B00017D068280DD06A2814D104E0742810D0D0
:1045C0007A280FD10DE044F400140AE044F480147A
:1045D00001E044F440147278824202D104F5801460
:1045E000761C761C307866280BD013DC582877D0E0
:1045F00009DC002875D04528F6D04628F4D0472895
:104600001AD19DE118E0632835D0642879D0652857
:1046100012D195E1702873D008DC6728F1D06928A1
:104620006FD06E280DD06F2806D1B5E073282CD03E
:10463000752875D0782874D05A46179990476D1C04
:1046400075E1C4F30250022809D003280DD0D9F82F
:10465000001004280DD00D6009F1040967E1D9F8B4
:104660000010EA17C1E90052F6E7D9F800100D80F2
:10467000F2E70D70F0E719F8041B8DF80010002028
:104680008DF80100EA46012003E059F804AB4FF031
:10469000FF3061074FF0000102D40DE008F1010185
:1046A0008846B9420FDA8045F8DB1AF8081000296D
:1046B000F4D108E008F1010188468142FADB1AF8DA
:1046C00008100029F6D105985B46A0EB08072146A3
:1046D0003846179A00F094FA284400EB080507E0E2
:1046E0004DE029E10DE01AF8010B5A461799904761
:1046F000B8F10108F7D25B4621463846179A13E114
:1047000042E00A220092C4F302524FF0000A022A49
:1047100008D059F804CB032A4FEAEC710AD00DE017
:1047200029E02AE009F1070121F00702F2E802C1BD
:10473000914609E00FFA8CFC4FEAEC71042A03D190
:104740004FFA8CFC4FEAEC71002907DA0A46002187
:10475000DCF1000C61EB02012D2202E0220504D500
:104760002B228DF80420012203E0E20701D0202251
:10477000F7E7904659E00A2102E010220DE01021EF
:104780004FF0000A00910BE010224FF0000A44F0B5
:1047900004040827009203E008224FF0000A009268
:1047A000C4F30252022A05D059F804CB0021032A8F
:1047B00008D009E009F1070121F00702F2E802C17F
:1047C000914605E01FFA8CFC042A01D10CF0FF0C85
:1047D0004FF00008220728D5702806D0009B83F0F0
:1047E000100353EA0A0305D00EE040228DF804209E
:1047F000012208E05CEA010206D030228DF8042094
:104800008DF8050002229046009B83F0080353EACE
:104810000A030AD15CEA010201D1620705D5302200
:104820008DF804204FF001087F1E582804D034A0D2
:1048300003900EA802900DE036A0F9E753466046BB
:10484000009AFBF7C5FD84460398825C0298401EDF
:10485000029002705CEA0100F0D1029806A9081AE1
:1048600000F1200A600702D524F4803400E001271B
:10487000574502DDA7EB0A0000E0002000EB0A012B
:10488000009005984144401A0590E00306D45B4629
:104890002146179A059800F0B3F90544002706E071
:1048A00001A85A46C05D179990476D1C7F1C47456B
:1048B000F6DBE0030CD55B462146179A059800F01D
:1048C0009FF9054404E030205A46179990476D1C23
:1048D0000099481E00900029F5DC08E00298029932
:1048E0005A460078491C0291179990476D1CBAF1FD
:1048F0000001AAF1010AF1DC65E1000009280100CC
:104900003031323334353637383961626364656645
:104910000000000030313233343536373839414207
:10492000434445460000000000F058F90544761C59
:10493000307800287FF4ECAD19B02846BDE8F08F40
:10494000620700D4062709F1070222F0070CFCE8F1
:104950000223E14603F000485FEA080C02D00FF2A0
:10496000702C0DE05FEA045C02D50FF2682C07E0C2
:104970005FEAC47C02D00FF2602C01E0AFF2700C51
:104980004FF0FF3823F00043CDF850C065280CD01D
:1049900006DC452809D046281DD047283DD13DE0FA
:1049A000662818D067287ED138E00021112F01DB5E
:1049B000112000E0781CCDE9000106A90EA8FFF740
:1049C000DDFCDDE90F010E9A03910021009207F151
:1049D000010A04914DE04FF000400097CDE901102D
:1049E00006A90EA8FFF7CAFCDDE90F0203920E9B91
:1049F00011990022DDF80CA00093049211B9791CE2
:104A000000EB010AB7EB0A0004D4C0F1FF3007F154
:104A1000010A0490AAEB0700019044E0012F00DA9C
:104A200001270021112F01DD112000E03846CDE9DA
:104A3000000106A90EA8FFF7A1FCDDE90F010E9AFF
:104A40000391002104910092BA4621070CD40399E6
:104A5000514500DA8A46BAF1010F05DD009AAAF144
:104A60000101515C302908D0B84202DA10F1040F7C
:104A700006DA0121CDE9011015E0AAF10101E9E70B
:104A8000002805DC049901440491AAEB000102E02E
:104A9000411C514500DD8A460499401A401C019092
:104AA0004FF000400290200704D40198504501DBEC
:104AB000CDF8048000208DF84F0002980DF14F07CB
:104AC000B0F1004F25D02B200E9002984FF0020835
:104AD00000280CDA404202902D200E9007E00A21B7
:104AE0000298FBF75FFC3031029007F8011DB8F126
:104AF0000001A8F10108F2DC02980028EFD1791E2C
:104B00000E980870307800F0200040F0450007F85B
:104B1000020D12A8C01B00F107081498007800B11C
:104B2000012000EB0A01019801EBE0710598414476
:104B3000401A401E0590E00306D45B462146179AB2
:104B4000059800F05DF805441498007818B15A46AD
:104B5000179990476D1CE00324D55B462146179AB0
:104B6000059800F04DF805441CE00498002807DB88
:104B7000DDE90301884203DD0098405C179901E0FC
:104B8000179930205A469047049805F10105401CBA
:104B900004900198401E019004D12E205A46179986
:104BA00090476D1CBAF10001AAF1010ADDDC05E0B5
:104BB00017F8010B5A46179990476D1CB8F1000180
:104BC000A8F10108F4DC5B462146179A0598ABE68C
:104BD0002D0000002B000000200000002DE9F04116
:104BE000044600251E461746880404D405E03946CD
:104BF0002020B0476D1C641EF9D52846BDE8F08121
:104C00002DE9F041044600251E469046C80301D513
:104C1000302700E02027880404D505E041463846C7
:104C2000B0476D1C641EF9D52846BDE8F081000030
:104C300013B50C464FF6FF73012269460248FEF792
:104C400097F800981CBD0000500100201CB5FCF72F
:104C5000FFFBFEF7ECFEFEF7EDFAFEF7C9FAFEF7F2
:104C600073FBFEF7DDFBFEF713FCFEF74FFBFEF7D1
:104C70004DFC00234FF07E5220492148FEF7B4FE40
:104C8000204821490023214ACDE90010204921482C
:104C9000FEF714FEFEF768FCFEF706FE0120FEF7A5
:104CA00095FA00201C4948604868FBF740FB84B235
:104CB0000423224600210846FEF794FD1DE0164914
:104CC00048681649FBF75AFB02D100201249486098
:104CD000114948681249FBF759FA0F49486048687A
:104CE000FBF725FB84B20423224600210846FEF789
:104CF00079FD41F28830FCF71BF8E0E7CDCCBC40F1
:104D00005802002000007A4400803B44AE47613ED8
:104D1000CDCC4C3E7402002020020020000048430D
:104D20000000A04102030405060708090A0B0C0D48
:104D30000E0F101001020000000000000000010230
:104D40000304060708090000000001020304000034
:104D50000000000000000000000000000000000053
:104D600038FCFC3800000000000D0D000000000EB3
:104D70001E00001E0E00000000000000000020F8D1
:104D8000F820F8F82000020F0F020F0F0200387C05
:104D9000444747CC98000306041C1C07030030302E
:104DA0000080C06030000C060301000C0C0080D8AD
:104DB0007CE4BCD84000070F0808070F080000106B
:104DC0001E0E0000000000000000000000000000B7
:104DD000F0F80C040000000003070C0800000000BD
:104DE000040CF8F000000000080C0703000080A08D
:104DF000E0C0C0E0A08000020301010302000080C7
:104E000080E0E0808000000000030300000000005C
:104E10000000000000000000101E0E000000808056
:104E20008080808080000000000000000000000002
:104E30000000000000000000000C0C00000000005A
:104E40000080C06030000C06030100000000F8FC88
:104E500004C424FCF800070F0908080F070000101D
:104E600018FCFC0000000008080F0F080800080CE0
:104E700084C4643C18000E0F0908080C0C00080CD0
:104E8000444444FCB800040C0808080F0700C0E0C4
:104E9000B098FCFC8000000000080F0F08007C7C2C
:104EA0004444C4C48400040C0808080F0700F0F848
:104EB0004C4444C08000070F0808080F07000C0C82
:104EC0000484C47C3C0000000F0F00000000B8FC0C
:104ED000444444FCB800070F0808080F0700387C5A
:104EE000444444FCF800000808080C0703000000D4
:104EF0000030300000000000000606000000000046
:104F00000030300000000000080E060000000080A5
:104F1000C0603018080000000103060C0800404083
:104F2000404040404000020202020202020000082B
:104F3000183060C0800000080C0603010000181C37
:104F400004C4E43C18000000000D0D000000F0F85F
:104F500008C8C8F8F000070F080B0B0B0100E0F0C1
:104F6000988C98F0E0000F0F0000000F0F0004FC79
:104F7000FC4444FCB800080F0F08080F0700F0F8C5
:104F80000C04040C180003070C08080C060004FCB1
:104F9000FC040CF8F000080F0F080C07030004FCD9
:104FA000FC44E40C1C00080F0F08080C0E0004FC65
:104FB000FC44E40C1C00080F0F0800000000F0F88F
:104FC0000C84848C980003070C0808070F00FCFC75
:104FD000404040FCFC000F0F0000000F0F000000DD
:104FE00004FCFC0400000000080F0F080000000093
:104FF0000004FCFC0400070F08080F07000004FC75
:10500000FCC0F03C0C00080F0F00010F0E0004FC68
:10501000FC0400000000080F0F08080C0E00FCFC48
:10502000387038FCFC000F0F0000000F0F00FCFC74
:105030003870E0FCFC000F0F0000000F0F00F0F8CC
:105040000C040CF8F00003070C080C07030004FC28
:10505000FC44447C3800080F0F0800000000F8FCF6
:10506000040404FCF800070F080E3C3F270004FC72
:10507000FC44C4FC3800080F0F00000F0F00183C60
:105080006444C49C1800060E0808080F0700001CA2
:105090000CFCFC0C1C000000080F0F080000FCFCBE
:1050A000000000FCFC00070F0808080F0700FCFCCC
:1050B000000000FCFC000103060C06030100FCFCE0
:1050C000008000FCFC00030F0E030E0F03000C3CDD
:1050D000F0C0F03C0C000C0F0300030F0C00003C70
:1050E0007CC0C07C3C000000080F0F0800001C0CB6
:1050F00084C4643C1C000E0F0908080C0E0000005C
:10510000FCFC0404000000000F0F080800003870C9
:10511000E0C0800000000000000103070E00000056
:105120000404FCFC0000000008080F0F0000080C3D
:105130000603060C0800000000000000000000004C
:10514000000000000000202020202020202000005F
:10515000030704000000000000000000000000A0A1
:10516000A0A0E0C00000070F0808070F080004FC1B
:10517000FC2060C08000080F0708080F0700C0E08F
:10518000202020604000070F0808080C040080C0A1
:105190006024FCFC0000070F0808070F0800C0E0AF
:1051A000A0A0A0E0C000070F0808080C040040F809
:1051B000FC440C180000080F0F0800000000C0E0BD
:1051C0002020C0E02000276F48487F3F000004FCFB
:1051D000FC4020E0C000080F0F00000F0F0000008F
:1051E00020ECEC0000000000080F0F080000000099
:1051F000000020ECEC0000307040407F3F0004FCD9
:10520000FC80C0602000080F0F01030E0C0000009E
:1052100004FCFC0000000000080F0F080000E0E0A4
:1052200060C060E0C0000F0F000F000F0F0020E013
:10523000C02020E0C000000F0F00000F0F00C0E0F2
:10524000202020E0C000070F0808080F070020E01A
:10525000C02020E0C000407F7F48080F0700C0E06A
:105260002020C0E02000070F08487F7F400020E09A
:10527000C0602060C000080F0F080000000040E080
:10528000A02020604000040C09090B0E040020201F
:10529000F8FC202000000000070F080C0400E0E0EC
:1052A0000000E0E00000070F0808070F080000E01A
:1052B000E00000E0E0000003070C0C070300E0E062
:1052C000000000E0E000070F0C070C0F0700206053
:1052D000C080C0602000080C0703070C0800E0E055
:1052E000000000E0E000474F4848683F1F00606052
:1052F00020A0E06020000C0E0B09080C0C00004000
:1053000040F8BC040400000000070F08080000007B
:1053100000BCBC0000000000000F0F0000000004F3
:1053200004BCF84040000008080F07000000080C0B
:10533000040C080C0400000000000000000080C005
:10534000603060C080000707040404070700000005
:105350007053000800000020140000005C430008A7
:105360008453000814000020840600006C430008E9
:105370000000000010000000010000000024F40004
:045380000000000029
:04000005080000ED02
:00000001FF
