:020000040800F2
:10000000F007002039020008F51F0008951C0008C1
:10001000F11F00082F040008BD25000800000000A3
:10002000000000000000000000000000FB1F0008AE
:100030002305000800000000F91F0008FD1F00084C
:10004000530200085302000853020008530200083C
:10005000530200085302000853020008530200082C
:10006000530200085302000853020008530200081C
:10007000530200085302000853020008530200080C
:100080005302000853020008530200080000000059
:100090000000000000000000000000005302000803
:1000A00053020008530200085302000853020008DC
:1000B00053020008C9200008530200085302000838
:1000C00053020008530200085302000853020008BC
:1000D0005302000853020008530200080000000009
:1000E00053020008530200085302000800000000F9
:1000F00000000000000000000000000053020008A3
:1001000000000000530200085302000853020008D8
:1001100000000000000000000000000000000000DF
:100120005302000853020008350400085302000877
:100130005302000800000000000000000000000062
:100140000000000000000000000000005302000852
:10015000530200085302000853020008530200082B
:1001600053020008530200080000000000000000D5
:10017000000000000000000000000000000000007F
:100180000000000053020008000000000000000012
:10019000530200085302000800F002F800F03CF897
:1001A0000AA090E8000C82448344AAF10107DA45D2
:1001B00001D100F031F8AFF2090EBAE80F0013F0E8
:1001C000010F18BFFB1A43F00103184784250000F4
:1001D000A4250000103A24BF78C878C1FAD8520785
:1001E00024BF30C830C144BF04680C6070470000B1
:1001F0000023002400250026103A28BF78C1FBD830
:10020000520728BF30C148BF0B6070471FB502F0CE
:1002100089FA1FBD10B510BD00F0CFF81146FFF7E9
:10022000F5FF02F0E9F900F0EDF803B4FFF7F2FF93
:1002300003BC00F0F5F80000094880470948004772
:10024000FEE7FEE7FEE7FEE7FEE7FEE7FEE7FEE786
:10025000FEE7FEE704480549054A064B70470000E3
:10026000B520000899010008F0010020F0070020E7
:10027000F0030020F003002053EA020C00F0698034
:100280002DE9F04B4FF00006002B1FBFB3FA83F5AA
:1002900003FA05F424FA05F65E4012BF1643B2FADB
:1002A00082F502FA05F4C5F120051EBF22FA05FC0D
:1002B00044EA0C04203556EA044C4FEA144418BFB3
:1002C000641C4FF000084FF00009904271EB030CE2
:1002D00039D3002919BFB1FA81F701FA07F6B0FA4C
:1002E00080F700FA07F6C7F120071EBF20FA07FCC7
:1002F00046EA0C062037B6FBF4FCA7EB0507103FD7
:1003000007F01F0BCBF120060CFA0BFB2CFA06F6BC
:1003100044BFB3460026202FA4BF5E464FF0000B1B
:100320005BEA060C08BF4FF0010B19EB0B09ABFBA6
:10033000027C48EB0608C01B06FB02CC0BFB03CC7F
:1003400071EB0C01C1E70B46024641464846BDE849
:10035000F08B13B54FF000004FF00001AFF30080B9
:10036000BDE81C4070474FF0000200B513469446AC
:100370009646203922BFA0E80C50A0E80C50B1F1FD
:100380002001BFF4F7AF090728BFA0E80C5048BF11
:100390000CC05DF804EB890028BF40F8042B08BFAF
:1003A000704748BF20F8022B11F0804F18BF00F8AB
:1003B000012B7047704770477047754600F02CF866
:1003C000AE4605006946534620F00700854618B042
:1003D00020B5FFF73FFFBDE820404FF000064FF08B
:1003E00000074FF000084FF0000B21F00701AC466A
:1003F000ACE8C009ACE8C009ACE8C009ACE8C00989
:100400008D46704710B50446AFF300802046BDE826
:100410001040FFF70ABF0000004870478C01002021
:1004200001491820ABBEFEE726000200704700BF5E
:10043000FEE7000010B5024800F078F810BD00009B
:100440002C0100200146087810381823B0FBF3F285
:100450000848805CC865032A05D908686FF309005D
:10046000001D886503E008686FF309008865886DE2
:10047000704700002E270008014600208A6A8B6919
:10048000CBB932B1012A0DD0022A03D0032A10D1F0
:100490000EE000BFCB6A03F08073B3F1807F00D120
:1004A000012007E0CB6AB3F1C07F00D1012001E059
:1004B00000E000BF34E08B69B3F5005F1AD132B1C0
:1004C000012A07D0022A03D0032A11D10AE000BF73
:1004D00001200EE0CB6A03F08073B3F1807F00D17E
:1004E000012006E0CB6AB3F1C07F00D1012000E01B
:1004F00000BF15E032B1012A05D0022A04D0032A38
:100500000CD103E000BF00BF012008E0CB6A03F07C
:100510008073B3F1807F00D1012000E000BF00BFF5
:100520007047704772B600BFFEE70000F8B504469A
:10053000002000908C4800684FF41651B0FBF1F792
:10054000A56D2E6894F85C1008208840304098B162
:100550002068006800F0040070B12068006820F096
:1005600004002168086094F85C1008208840A860A6
:10057000606D40F00100606594F85C1001208840D7
:10058000304068B12068406900F0800040B194F8C4
:100590005C1001208840A860606D40F0020060653A
:1005A00094F85C1004208840304068B120680068EE
:1005B00000F0020040B194F85C1004208840A8606C
:1005C000606D40F00400606594F85C101020884075
:1005D000304078B32068006800F0080050B394F809
:1005E0005C1010208840A8602068006800F480201B
:1005F00080B12068006800F4002028B9206CC8B1E0
:100600002046216C884715E0A06C98B12046A16C6B
:1006100088470FE02068006800F4807028B92068DF
:10062000006820F0080021680860206C10B12046A6
:10063000216C884794F85C102020884030400028C6
:1006400065D02068006800F0100000285FD094F8A2
:100650005C1020208840A86094F83500052828D137
:100660002068006820F01600216808602068406952
:1006700020F0800021684861206C08B9A06C28B186
:100680002068006820F008002168086094F85C1079
:100690003F208840A860012084F8350000BF00207A
:1006A00084F8340000BF206D10B12046216D8847CA
:1006B000F8BD2068006800F4802080B120680068E0
:1006C00000F4002028B9606C10B12046616C8847A6
:1006D0001DE0E06BD8B12046E16B884717E0206849
:1006E000006800F4807068B92068006820F010008D
:1006F00021680860012084F8350000BF002084F8DC
:10070000340000BFE06B10B12046E16B8847606D9C
:1007100038B3606D00F00100F0B1052084F83500B9
:100720002068006820F001002168086000BF009880
:10073000401C0090B84200D905E02068006800F035
:1007400001000028F3D100BF012084F8350000BF6C
:10075000002084F8340000BFE06C10B12046E16C4A
:10076000884700BFA4E700000C0000202DE9F041FD
:100770000446002500F076F9074614B90120BDE8CB
:10078000F081606A00B100BF022084F8350000BF2C
:10079000002084F8340000BF2068006820F00100C9
:1007A000216808600AE000F05DF9C01B052805D942
:1007B00020206065032084F83500E0E720680068A9
:1007C00000F001000028EED12068056821480540AE
:1007D000D4E901010843E1680843216908436169DC
:1007E0000843A1690843E1690843216A08430543B6
:1007F000606A042803D1D4E90B010843054320684B
:1008000005602068456925F00705606A0543606A50
:1008100004280DD1A06A0543E06A48B12046FFF7DD
:100820002BFE28B140206065012084F83500A6E742
:10083000206845612046FFF705FE064694F85C10E7
:100840003F208840B06000206065012084F83500BA
:10085000002094E73F8010F070B5044600F002F9E4
:1008600006462546681C10B104480078054400BFC0
:1008700000F0F8F8801BA842FAD370BD08000020F1
:10088000F8B502460B460025002400200021C7E0F1
:10089000012606FA01F51E6806EA0504AC4274D189
:1008A0001E7906F00306012E04D01E7906F0030619
:1008B000022E13D190684F000326BE40B0434F0074
:1008C000DE68BE4030439060506801268E40B043E1
:1008D0001E79C6F300168E40304350601E7906F034
:1008E0000306032E09D0D0684F000326BE40B04354
:1008F0004F009E68BE403043D0601E7906F003066C
:10090000022E13D1CF0802F1200656F827004E0719
:10091000F70E0F26BE40B0434F07FF0E1E69BE40C4
:100920003043CF0802F1200646F8270010684F0038
:100930000326BE40B0431E7906F003064F00BE40BA
:10094000304310605E6806F44036002E67D000BF6A
:1009500000260096344E366846F48046324F3E609C
:100960003E46366806F48046009600BF00BF2F4E14
:100970008F0856F827008E07370F0F26BE40B0436A
:100980002B4EB24202D1002615E048E0294EB24279
:1009900001D101260FE0284EB24201D102260AE021
:1009A000264EB24201D1032605E0254EB24201D1C6
:1009B000042600E007268F073F0FBE4030431B4E42
:1009C0008F0846F827001F4E3068A0435E6806F483
:1009D000801606B120431B4E3060361D3068A043A0
:1009E0005E6806F4001606B12043164E361D3060D0
:1009F000144E361F3068A0435E6806F4003606B118
:100A00002043104E361F3060361F3068A0435E68AA
:100A100006F4803606B120430A4E083E3060491C79
:100A20001029FFF435AFF8BD4438024008380140C2
:100A3000000002400004024000080240000C024096
:100A400000100240083C0140024613690B400BB104
:100A5000012000E0002070470AB1816101E00B0431
:100A60008361704701480068704700000000002063
:100A70000348006803490978084401490860704741
:100A8000000000200800002010B50D48006840F468
:100A900000700B4908600846006840F480600860F8
:100AA0000846006840F480700860032000F0A2F857
:100AB0000F2000F007F800F02BF8002010BD000018
:100AC000003C024070B504460E4800784FF47A713D
:100AD000B1FBF0F00C490968B1FBF0F5284600F0D5
:100AE0002BFC08B1012070BD102C07D2002221463A
:100AF000501E00F041F80548046001E00120F2E7D3
:100B00000020F0E7080000200C0000200400002076
:100B100008B500BF002000900E48006840F48040F7
:100B20000C4908600846006800F48040009000BF4F
:100B300000BF00BF00200090081F006840F08050F8
:100B4000091F08600846006800F08050009000BF50
:100B500000BF08BD4438024001460846002809DBB2
:100B600000F01F0301229A4043099B0003F1E02398
:100B7000C3F8002100BF70472DE9F05F80460D46A5
:100B80001646002701F01CFD074639462A46334623
:100B900001F00700C0F1070ABAF1040F02D94FF0C3
:100BA000040A01E0C0F1070AD14600F1040ABAF1D3
:100BB000070F02D24FF0000A01E0A0F1030AD44669
:100BC0004FF0010A0AFA09FAAAF1010A0AEA020A2E
:100BD0000AFA0CFA4FF0010B0BFA0CFBABF1010B0C
:100BE0000BEA030B4AEA0B042146404601F0F0FCF5
:100BF000BDE8F09F00BF00F00702064B19684FF6F2
:100C0000FF031940044B0B4343EA0221014B1960D7
:100C100000BF70470CED00E00000FA0570B5044617
:100C20000D460CB9012070BD5848006800F007005F
:100C3000A84209D255490D700846006800F0070027
:100C4000A84201D00120EEE7207800F0020002283F
:100C50001DD1207800F00400042805D14C4800681C
:100C600040F4E0504A490860207800F00800082865
:100C700005D14748006840F4604045490860444851
:100C8000006820F0F000A16808434149086020781E
:100C900000F00100A8B36068012807D13C4808387B
:100CA0000068C0F34040B8B90120BCE76068022882
:100CB00002D06068032807D1354808380068C0F3BF
:100CC000406048B90120AEE7314808380068C0F3F9
:100CD000400008B90120A6E72D48006820F0030075
:100CE000616808432A490860FFF7BCFE064609E030
:100CF000FFF7B8FE801B41F28831884202D90320F9
:100D000091E707E02248006800F00C006168B0EB52
:100D1000810FEDD11D48006800F00700A84209D9F5
:100D20001A490D700846006800F00700A84201D07B
:100D3000012078E7207800F00400042807D1144847
:100D4000006820F4E050E168084311490860207809
:100D500000F00800082808D10D48006820F4604021
:100D6000216940EAC1000A49086000F03FF80849DB
:100D70000968C1F30311074A515CC840064908607D
:100D800006480068FFF79EFE00204CE7003C02404A
:100D900008380240362700080C000020040000201C
:100DA00001480068704700000C00002000B5FFF704
:100DB000F7FF04490968C1F38221034A515CC84026
:100DC00000BD0000083802404627000800B5FFF7C4
:100DD000E7FF04490968C1F34231034A515CC84046
:100DE00000BD000008380240462700082DE9F04702
:100DF000002400250026A1462548006800F00C00CC
:100E000020B1042805D008283AD105E0DFF8849005
:100E100039E0DFF8849036E01D48001F006800F0DC
:100E20003F041B48001F006800F4800078B11A4896
:100E30001749091F0968C1F38811A0FB0170014619
:100E4000224600233846FFF717FA05460EE0114800
:100E50000F49091F0968C1F38811A0FB0170014601
:100E6000224600233846FFF707FA05460848001FC8
:100E70000068C0F30140401C4600B5FBF6F902E0F3
:100E8000DFF8109000BF00BF4846BDE8F0870000C3
:100E9000083802400024F40040787D01F8B504468B
:100EA0000CB90120F8BD207800F00100002874D0B2
:100EB000F948006800F00C0004280DD0F6480068DE
:100EC00000F00C00082813D1F348001F006800F45C
:100ED0008000B0F5800F0BD1EF4808380068C0F3F0
:100EE0004040002859D06068002856D10120D9E739
:100EF00000BF6068B0F5803F08D1E7480838006857
:100F000040F48030E449083908601EE06068B0F5BC
:100F1000A02F0DD1E0480838006840F48020DE4959
:100F2000083908600846006840F4803008600CE02A
:100F3000D9480838006820F48030D749083908605B
:100F40000846006820F48020086000BF606890B107
:100F5000FFF788FD054606E0FFF784FD401B642887
:100F600001D903209EE7CC4808380068C0F3404010
:100F70000028F1D011E0FFF775FD054606E0FFF708
:100F800071FD401B642801D903208BE7C248083853
:100F90000068C0F340400028F1D1207800F0020042
:100FA00002285FD1BC48006800F00C0058B1BA4874
:100FB000006800F00C0008281CD1B748001F00682A
:100FC00000F48000B0B9B44808380068C0F34000AD
:100FD00020B1E068012801D0012063E7AE4808385D
:100FE000006820F0F800216940EAC100AA490839E8
:100FF000086037E0E06800B30120A8490860FFF707
:1010000031FD054606E0FFF72DFD401B022801D902
:10101000032047E7A04808380068C0F340000028D4
:10102000F1D09D480838006820F0F800216940EAB6
:10103000C10099490839086014E000209749086008
:10104000FFF710FD054606E0FFF70CFD401B0228E8
:1010500001D9032026E7904808380068C0F3400013
:101060000028F1D1207800F0080008282CD1606910
:10107000A8B101208A490860FFF7F4FC054606E0A4
:10108000FFF7F0FC401B022801D903200AE7824841
:101090006C300068C0F340000028F1D014E000205C
:1010A0007F490860FFF7DEFC054606E0FFF7DAFC43
:1010B000401B022801D90320F4E677486C30006811
:1010C000C0F340000028F1D1207800F0040004288B
:1010D00070D1002770483830006800F0805090B917
:1010E00000BF002000906C483830006840F080500D
:1010F0006949383108600846006800F08050009067
:1011000000BF00BF01276748006800F48070B0B9D5
:101110006448006840F4807062490860FFF7A2FCF0
:10112000054606E0FFF79EFC401B022801D903207C
:10113000B8E65C48006800F480700028F2D000BF78
:10114000A068012808D154486830006840F00100C8
:101150005149683108601DE0A06805280DD14E484E
:101160006830006840F004004B4968310860084668
:10117000006840F0010008600CE0474868300068F3
:1011800020F001004449683108600846006820F0FA
:101190000400086000BFA068A8B1FFF763FC054623
:1011A00009E0FFF75FFC401B41F28831884202D919
:1011B000032077E626E0384868300068C0F3400036
:1011C0000028EED013E0FFF74DFC054608E0FFF7DE
:1011D00049FC401B41F28831884201D9032061E675
:1011E0002D4868300068C0F340000028EFD1012F7F
:1011F00007D129483830006820F08050264938311E
:10120000086000BFA069002845D02348006800F0AE
:101210000C0008285DD0A069022845D100201F4994
:101220000866FFF71FFC054606E0FFF71BFC401BA6
:10123000022801D9032035E6174808380068C0F3B2
:1012400040600028F1D1D4E907010843616A40EA0F
:1012500081110122A06AC2EB500041EA00412C201A
:10126000005D41EA00600C49091F086001200B493C
:101270000866FFF7F7FB054606E0FFF7F3FB401BA8
:10128000022801D903200DE6034808380068C0F39E
:1012900040600028F1D049E0083802400000474291
:1012A000800E474200700040002021490866FFF789
:1012B000D9FB054606E0FFF7D5FB401B022801D904
:1012C0000320EFE51B480068C0F340600028F2D11E
:1012D0002CE0A069012800D1E4E51648001D06684D
:1012E000A069012820D006F48001E06981421BD169
:1012F00006F03F01206A814216D147F6C0703040A7
:10130000616AB0EB811F0FD106F440310122A06A5F
:10131000C2EB5000B1EB004F06D106F070612C20FB
:10132000005DB1EB006F01D00120BBE50020B9E505
:10133000000047420038024070B504462546681E4A
:10134000B0F1807F01D301200FE0681E4FF0E02153
:1013500048610F214FF0FF3001F03AF900204FF0C3
:10136000E021886107200861002070BD7047704748
:1013700030B502460B4600BF92F83C00012801D16F
:10138000022030BD012082F83C0000BF022082F81C
:101390003D00106844681068816824F07004186883
:1013A000044310684460144D1068A84213D01068BC
:1013B000B0F1804F0FD0114D1068A8420BD0104DE6
:1013C0001068A84207D00F4D1068A84203D00E4DF8
:1013D0001068A84205D121F08001586801431068C7
:1013E0008160012082F83D0000BF002082F83C00AF
:1013F00000BF00BFC5E7000000000140000400403E
:1014000000080040000C00400040014010B50446B8
:101410000CB9012010BD94F83D0028B9002084F8D3
:101420003C00204600F026F8022084F83D00211DF3
:10143000206800F051FE012084F8460000BF84F8C7
:101440003E0001213F20015540200155412001551A
:1014500000BF00BF012084F8420043200155442012
:1014600001554520015500BF012084F83D000020B2
:10147000D0E7000038B504460E492068884217D1ED
:1014800000BF002000900C48006840F002000A49AC
:1014900008600846006800F00200009000BF00BF2E
:1014A000002211461D20FFF767FB1D20FFF754FBAC
:1014B00038BD00000004004040380240014691F869
:1014C0003D00012801D001207047022081F83D0035
:1014D0000868C06840F001000B68D860164B0868C7
:1014E000984213D00868B0F1804F0FD0134B0868B2
:1014F00098420BD0124B0868984207D0114B0868ED
:10150000984203D0104B086898420CD10868806854
:1015100000F00702062A0CD00868006840F00100BD
:101520000B68186005E00868006840F001000B686F
:1015300018600020C8E700000000014000040040DF
:1015400000080040000C0040004001402DE9F0413F
:1015500004460D46002700BF94F83C00012802D144
:101560000220BDE8F081012084F83C0000BF022089
:1015700084F83D002068866826F0770626F47F46CA
:10158000206886602868502833D00CDC202850D092
:1015900004DC00284BD0102851D149E0302849D034
:1015A00040284CD139E060282DD0702807D0B0F504
:1015B000805F03D0B0F5005F41D10DE041E0D5E997
:1015C00002136A68206800F0EAFD2068866846F029
:1015D00077062068866034E0D5E902136A682068DF
:1015E00000F0DDFD2068806840F48040216888605C
:1015F00027E0EA686968206800F0A2FE50212068B0
:1016000000F0D8FD1DE0EA686968206800F0ABFED4
:101610006021206800F0CEFD13E0EA686968206868
:1016200000F08EFE4021206800F0C4FD09E000BFFC
:1016300000BF00BF2968206800F0BCFD01E0012761
:1016400000BF00BF012084F83D0000BF002084F8E7
:101650003C0000BF384684E7704710B50446206858
:101660000069C0F34000D8B12068C068C0F34000F2
:10167000B0B16FF002002168086101202077206876
:10168000806900F0030018B12046FFF7E5FF05E090
:10169000204600F001F9204600F0E2F90020207712
:1016A00020680069C0F38000D8B12068C068C0F32A
:1016B0008000B0B16FF0040021680861022020773B
:1016C0002068806900F4407018B12046FFF7C4FF1D
:1016D00005E0204600F0E0F8204600F0C1F90020C7
:1016E000207720680069C0F3C000D8B12068C068C6
:1016F000C0F3C000B0B16FF0080021680861042099
:1017000020772068C06900F0030018B12046FFF779
:10171000A3FF05E0204600F0BFF8204600F0A0F946
:101720000020207720680069C0F30010D8B120683D
:10173000C068C0F30010B0B16FF0100021680861FC
:10174000082020772068C06900F4407018B1204656
:10175000FFF782FF05E0204600F09EF8204600F0EB
:101760007FF9002020772068006900F0010058B15F
:101770002068C06800F0010030B16FF001002168FE
:101780000861204600F0E4F920680069C0F3C01049
:1017900058B12068C068C0F3C01030B16FF080004D
:1017A000216808612046FFF7E1FD20680069C0F369
:1017B000801058B12068C068C0F3801030B16FF05D
:1017C000400021680861204600F0C3F920680069E4
:1017D000C0F3401058B12068C068C0F3401030B169
:1017E0006FF02000216808612046FFF7C0FD10BDA2
:1017F00010B586B00446142101A8FEF7B4FD206898
:10180000B0F1804F1DD100BF002000901E4800683D
:1018100040F002001C4908600846006800F0020021
:10182000009000BF00BF082001900220029000201D
:10183000039004900120059001A91448FFF720F8B7
:101840001FE01349206888421BD100BF0020009090
:101850000D48006840F001000B4908600846006828
:1018600000F00100009000BF00BF02200190029034
:101870000020039004900220059001A90548FEF77E
:10188000FFFF06B010BD00003038024000040240E7
:10189000000C00400000024070472DE9F041044672
:1018A0000D461646002700BF94F83C00012802D1DF
:1018B0000220BDE8F081012084F83C0000BF36B171
:1018C000042E1BD0082E31D00C2E5ED145E02946C7
:1018D000206800F079FC2068806940F008002168E9
:1018E00088612068806920F0040021688861206890
:1018F0008069296908432168886148E02946206891
:1019000000F092FC2068806940F4006021688861E2
:101910002068806920F4806021688861206880697F
:10192000296940EA01202168886130E02946206861
:1019300000F0AEFC2068C06940F008002168C86172
:101940002068C06920F004002168C8612068C0696F
:10195000296908432168C86119E02946206800F018
:10196000CBFC2068C06940F400602168C861206831
:10197000C06920F480602168C8612068C069296955
:1019800040EA01202168C86101E0012700BF00BFD3
:1019900000BF002084F83C0000BF384689E710B53E
:1019A00004460CB9012010BD94F83D0028B9002070
:1019B00084F83C00204600F025F8022084F83D0021
:1019C000211D206800F088FB012084F8460000BF3C
:1019D00084F83E0001213F2001554020015541205F
:1019E000015500BF00BF012084F84200432001558B
:1019F000442001554520015500BF012084F83D00D9
:101A00000020D0E708B50168B1F1804F0FD100BFC9
:101A1000002100911049096841F001010E4A11604E
:101A20001146096801F00101009100BF13E00B4A63
:101A3000016891420FD100BF002100910649096859
:101A400041F00801044A11601146096801F00801DB
:101A5000009100BF00BF08BD40380240000C0040AC
:101A60007047000070B504460D4615B994F83E0065
:101A70000BE0042D02D13F20005D06E0082D02D1CD
:101A80004020005D01E04120005D012801D00120DF
:101A900070BD1DB9022084F83E000EE0042D03D174
:101AA00002213F20015508E0082D03D102214020EA
:101AB000015502E0022141200155012229462068FA
:101AC00000F05CFB1D492068884201D1012000E044
:101AD000002028B12068406C40F400402168486430
:101AE00016492068884213D02068B0F1804F0FD08B
:101AF0001349206888420BD012492068884207D0D9
:101B000011492068884203D01049206888420CD1CE
:101B10002068806800F00706062E0CD02068006858
:101B200040F001002168086005E02068006840F08E
:101B30000100216808600020AAE7000000000140C1
:101B40000004004000080040000C0040004001403C
:101B50007047704710B504460CB9012010BDA0694C
:101B600000B100E000BF94F83D0028B9002084F8DF
:101B70003C00204600F028F8242084F83D0020682E
:101B8000C06820F400502168C860204600F000FCC6
:101B90002068006920F4904021680861206840694D
:101BA00020F02A00216848612068C06840F4005095
:101BB0002168C86000202064202084F83D0084F85B
:101BC0003E000020CAE7000010B586B0044614218C
:101BD00001A8FEF7C8FB2A49206888424DD100BF02
:101BE000002000902748006840F010002549086058
:101BF0000846006800F01000009000BF00BF00BF62
:101C0000002000901F481438006840F001001D4972
:101C1000143908600846006800F00100009000BF19
:101C200000BF4FF4C060019002200290002003909A
:101C3000032004900720059001A91348FEF720FE19
:101C40001248134908604FF00060486000211048B6
:101C50008160C1604FF48061016100214161816157
:101C6000C16101624162FEF781FD08B1FEF75AFCD5
:101C700000BF0748A063846300BF06B010BD00002A
:101C8000001001404438024000000240406402401D
:101C90002C01002000BFFEE710B50024802125485C
:101CA000FEF7D2FEC0B140212248FEF7CDFE98B12A
:101CB00020212048FEF7C8FE70B110211D48FEF714
:101CC000C3FE48B108211B48FEF7BEFE20B1042127
:101CD0001848FEF7B9FE20BB1920FEF7BDFD802194
:101CE0001448FEF7B1FE08B9012421E04021114853
:101CF000FEF7AAFE08B902241AE020210D48FEF7DB
:101D0000A3FE08B9032413E010210A48FEF79CFE45
:101D100008B904240CE008210648FEF795FE08B92E
:101D2000052405E004210348FEF78EFE00B90624D1
:101D3000204610BD0000024008B500BF0020009002
:101D40000A48006840F480000849086008460068B6
:101D500000F48000009000BF00BF002211463A202E
:101D6000FEF70AFF3A20FEF7F7FE08BD30380240C2
:101D700000B587B0142102A8FEF7F5FA00BF0020D5
:101D800001903048006840F004002E490860084681
:101D9000006800F00400019000BF00BF00BF0020F9
:101DA00001900846006840F080000860084600681E
:101DB00000F08000019000BF00BF00BF0020019034
:101DC0000846006840F0010008600846006800F01E
:101DD0000100019000BF00BF00BF00200190084635
:101DE000006840F0020008600846006800F0020049
:101DF000019000BF00BF0122C0211348FEF72CFE56
:101E0000FC200290002003900120049002A90F48BA
:101E1000FEF736FD4020029001200390049002203E
:101E2000059002A90848FEF72BFD802002900120B2
:101E3000039004900020059002A90348FEF720FDBE
:101E400007B000BD303802400004024000000240EC
:101E500000B589B00020079008901C216846FEF765
:101E600082FA4FF08040174908600920486000213D
:101E7000144881601449C160002101618161FFF74C
:101E80008EFD08B1FEF74EFB00200790089007A9D1
:101E90000C48FFF76DFA08B1FEF744FB6020009094
:101EA0000020019002900490042269460548FFF743
:101EB000F4FC08B1FEF736FB0248FFF799FC09B0C5
:101EC00000BD0000100000203F0D030000B587B0EA
:101ED0000020039004900590069001900290154810
:101EE0001549086040F2E7304860002112488160DF
:101EF00040F2E731C160002101618161FFF786FA9C
:101F000008B1FEF70FFB4FF48050039003A90A4875
:101F1000FFF71CFB08B1FEF705FB002001900290C3
:101F200001A90548FFF724FA08B1FEF7FBFA07B04C
:101F300000BD0000000400405800002000B589B03A
:101F40000020079008901C216846FEF70CFA1748FD
:101F5000174908600920486000211548816015492B
:101F6000C160002101618161FFF719FD08B1FEF731
:101F7000D9FA00200790089007A90D48FFF7F8F953
:101F800008B1FEF7CFFA6020009000200190029087
:101F90000490042269460648FFF77FFC08B1FEF76B
:101FA000C1FA0348FFF724FC09B000BD000C004053
:101FB000A00000203F0D030010B50B480B4908603E
:101FC0004FF4E1304860002108488160C160016140
:101FD0000C21416100218161C161FFF7BBFD08B1A6
:101FE000FEF7A0FA10BD000000100140E80000203C
:101FF00000BFFEE700BFFEE77047704710B5FEF771
:1020000037FD10BD00B593B0302107A8FEF7ABF93E
:10201000142102A8FEF7A7F900BF00200190234871
:10202000006840F08050214908600846006800F0D0
:102030008050019000BF00BF00BF002001901C48ED
:10204000006840F440401A4908600846006800F4FF
:102050004040019000BF00BF01200790000408909D
:1020600002200D9041050E910C210F9160211091DD
:10207000022111910421129107A8FEF70FFF08B168
:10208000FEF750FA0F2002900220039000200490E7
:102090004FF48050059000200690032102A8FEF71F
:1020A000BDFD08B1FEF73EFA13B000BD4038024056
:1020B000007000400348006840F470000149086067
:1020C0007047000088ED00E010B50248FFF7C5FA40
:1020D00010BD00005800002010B50268204B984247
:1020E0000BD0B0F1804F08D01E4B984205D01E4B4C
:1020F000984202D01D4B984203D122F070024B68E7
:102100001A43174B984214D0B0F1804F11D0154BA1
:1021100098420ED0144B98420BD0144B984208D0E2
:10212000134B984205D0134B984202D0124B984261
:1021300003D122F44072CB681A4322F080034C6929
:1021400043EA040202608B68C3620B688362044B3B
:10215000984201D10B6903630123436110BD000064
:10216000000001400004004000080040000C004056
:1021700000400140004401400048014030B501F0FA
:102180001F05012404FA05F3046A9C430462046AEF
:1021900001F01F0502FA05F52C43046230BD30B58D
:1021A0000C46816821F47F4142EA032525432943F7
:1021B000816030BD0A46816821F0700142F007035A
:1021C000194381607047000030B5056A25F00105AC
:1021D0000562026A4368846924F0700424F00304F1
:1021E0000D682C4322F002028D682A430D4DA8424F
:1021F00006D100BF22F00802CD682A4322F0040273
:10220000084DA84207D123F4807323F400734D696D
:102210002B438D692B43436084614D6845630262A3
:1022200030BD00000000014030B5056A25F0100502
:102230000562026A4368846924F4E04424F440742B
:102240000D6844EA052422F020028D6842EA051256
:102250000E4DA84207D100BF22F08002CD6842EAAD
:10226000051222F04002094DA84209D123F48063EF
:1022700023F400634D6943EA85038D6943EA8503CE
:10228000436084614D688563026230BD0000014097
:1022900030B5056A25F480750562026A4368C46931
:1022A00024F0700424F003040D682C4322F400721F
:1022B0008D6842EA05220F4DA84207D100BF22F4E3
:1022C0000062CD6842EA052222F48062094DA842EC
:1022D00009D123F4805323F400534D6943EA0513D5
:1022E0008D6943EA05134360C4614D68C5630262AA
:1022F00030BD00000000014030B5056A25F480556E
:102300000562036A4468C26922F4E04222F4407222
:102310000D6842EA052223F400538D6843EA053331
:10232000064DA84204D124F480444D6944EA851442
:102330004460C2614D680564036230BD0000014025
:1023400030B50B461446026A056A25F001050562A0
:10235000816921F0F00141EA041122F00A021A43D6
:102360008161026230BD30B50B461446056A25F026
:10237000100505628169026A21F4704141EA043165
:1023800022F0A00242EA03128161026230BD000025
:102390002DE9F84F04462068006920F44050E168B8
:1023A0000843216808612169A068084361690843FE
:1023B000E169084300902068C06849F20C618843D5
:1023C000009908432168C8602068406920F4407083
:1023D000A16908432168486176492068884203D092
:1023E00075492068884203D1FEF7F0FC814602E07F
:1023F000FEF7DCFC8146E069B0F5004F6CD10220AD
:102400006168A0FB015003461920A9FB007001463A
:102410002A463846FDF730FF6421B0FBF1F04FEA61
:10242000001A02206168A0FB01510B461920A9FB8C
:1024300000712A463846FDF71FFF83460220616877
:10244000A0FB015003461920A9FB00712A4638461B
:10245000FDF712FF6421B0FBF1F000EBC00101EBCE
:102460000010ABEB8000322101EBC0006421B0FB17
:10247000F1F000F0F8000AEB400A02206168A0FBCE
:10248000015003461920A9FB007001462A46384630
:10249000FDF7F2FE834602206168A0FB015003466F
:1024A0001920A9FB00712A463846FDF7E5FE642194
:1024B000B0FBF1F000EBC00101EB0010ABEB8000D2
:1024C000322101EBC0006421B0FBF1F000F0070005
:1024D0005044216888606AE004206168A0FB0150D4
:1024E00003461920A9FB007001462A463846FDF72D
:1024F000C3FE824604206168A0FB015003461920F8
:10250000A9FB007001462A463846FDF7B5FE642156
:10251000B0FBF1F000EBC00101EB0010AAEB800072
:10252000322101EB00106421B0FBF1F000F0F00A61
:1025300004206168A0FB017003461920A9FB00512B
:102540003A462846FDF798FE6421B0FBF1F00AEB0D
:10255000001A04206168A0FB01510B461920A9FB59
:1025600000712A463846FDF787FE834604206168DD
:10257000A0FB015003461920A9FB007001462A4622
:102580003846FDF779FE6421B0FBF1F000EBC001A5
:1025900001EB0010ABEB8000322101EB0010642155
:1025A000B0FBF1F000F00F00504421688860BDE8F6
:1025B000F88F0000001001400014014000BFFEE74A
:1025C00002480068C0F30220704700000CED00E0F4
:1025D00010B5002804DB0A07130E054A135406E061
:1025E0000A07140E034A00F00F031B1FD45410BD3A
:1025F00000E400E018ED00E0FEF746FAFFF702FD08
:10260000FFF7B6FBFFF798FBFFF722FCFFF75EFC36
:10261000FFF794FCFFF7D0FC2C48FEF74FFF00F0CB
:1026200057F842F21070FEF717F942F210710020CD
:1026300000F064F844F25061012000F05FF84FF4BC
:102640007A7441E0FFF728FB012807D104F1640008
:1026500080B204460146002000F050F8FFF71CFB52
:10266000022807D1A4F1640080B20446014600208C
:1026700000F044F8FFF710FB032807D104F16400D1
:1026800080B204460146012000F038F8FFF704FB51
:10269000042807D1A4F1640080B204460146012059
:1026A00000F02CF8FFF7F8FA052804D14FF47A71FE
:1026B000002000F023F8FFF7EFFA062804D14FF4CA
:1026C0007A71012000F01AF8BCE7000058000020E1
:1026D00010B504210748FFF7C5F904210648FFF7A4
:1026E000C1F942F210700349096888630249096818
:1026F000886310BD10000020A000002046F2A81240
:10270000914201DB114607E018B9044A126891634F
:1027100002E0034A12689163704700001000002035
:10272000A00000204FF04070E1EE100A7047000654
:102730001016000610160000000000000000010244
:10274000030406070809000000000102030400005A
:10275000702700080000002010000000D4010008CD
:102760008027000810000020E0070000F0010008AA
:102770000000000010000000010000000024F40030
:040000050800019955
:00000001FF
