:020000040800F2
:1000000040070020AD010008A92B0008A724000824
:10001000192A0008B90200082D3A00080000000063
:100020000000000000000000000000001B3000087D
:10003000E703000800000000193000081D30000828
:10004000C7010008C7010008C7010008C701000870
:10005000C7010008C7010008C7010008C701000860
:10006000C7010008C7010008C7010008C701000850
:10007000C7010008C7010008C7010008C701000840
:10008000C7010008C7010008C70100080000000000
:10009000000000000000000000000000C701000890
:1000A000C7010008C7010008C7010008C701000810
:1000B000ED300008FD3000080D310008C7010008D0
:1000C000C7010008C7010008C7010008C7010008F0
:1000D000C70100081D3A0008C70100080000000021
:1000E000C7010008C7010008C701000800000000A0
:1000F000000000000000000000000000C701000830
:1001000000000000C70100081D310008C7010008F9
:1001100000000000000000000000000000000000DF
:10012000C7010008C7010008BD020008C701000898
:10013000C7010008000000000000000000000000EF
:10014000000000000000000000000000C7010008DF
:10015000C7010008C7010008CD020008C701000858
:10016000C7010008C70100080000000000000000EF
:10017000000000000000000000000000000000007F
:1001800000000000C701000800000000000000009F
:10019000C7010008C7010008DFF80CD000F07AF8AA
:1001A00000480047893A0008400700200648804779
:1001B00006480047FEE7FEE7FEE7FEE7FEE7FEE74C
:1001C000FEE7FEE7FEE7FEE7D930000899010008E8
:1001D0002DE9F05F0546002092469B46884606467C
:1001E000814640241BE0284641464746224600F00F
:1001F00041F853465A46C01A914110D31146184649
:10020000224600F028F82D1A67EB01084F462246D7
:100210000120002100F01FF817EB00094E41201EBD
:10022000A4F10104DFDC484631462A464346BDE8D6
:10023000F09FD2B201E000F8012B491EFBD27047BB
:100240000022F6E710B513460A4604461946FFF7A2
:10025000F0FF204610BD202A04DB203A00FA02F10C
:10026000002070479140C2F1200320FA03F31943A4
:1002700090407047202A04DB203A21FA02F0002146
:10028000704721FA02F3D040C2F1200291400843A6
:1002900019467047064C074D06E0E06840F0010340
:1002A00094E8070098471034AC42F6D3FFF778FF84
:1002B000E84100080842000800BFFEE710B5024808
:1002C00000F000F910BD00009001002010B50248B8
:1002D00000F0F8F810BD0000F00100200146087899
:1002E00010381823B0FBF3F20848805CC865032A75
:1002F00005D908686FF30900001D886503E00868E8
:100300006FF309008865886D70470000C83B0008DE
:10031000014600208A6A8B69CBB932B1012A0DD01F
:10032000022A03D0032A10D10EE000BFCB6A03F0EB
:100330008073B3F1807F00D1012007E0CB6AB3F175
:10034000C07F00D1012001E000E000BF34E08B69F4
:10035000B3F5005F1AD132B1012A07D0022A03D0C7
:10036000032A11D10AE000BF01200EE0CB6A03F09E
:100370008073B3F1807F00D1012006E0CB6AB3F136
:10038000C07F00D1012000E000BF15E032B1012A9A
:1003900005D0022A04D0032A0CD103E000BF00BF1D
:1003A000012008E0CB6A03F08073B3F1807F00D1B5
:1003B000012000E000BF00BF704730B5046824682A
:1003C00024F4802405682C60046863608468402CF1
:1003D00004D10468A2600468E16003E00468A160DD
:1003E0000468E26030BD704772B600BFFEE770B5CA
:1003F0000446A56D00F038FB064694F83500022847
:1004000008D08020606500BF002084F8340000BF61
:10041000012070BD2068006820F016002168086087
:100420002068406920F0800021684861206C08B98C
:10043000A06C28B12068006820F0080021680860DE
:100440002068006820F001002168086010E000F0DA
:100450000BFB801B05280BD920206065032084F846
:10046000350000BF002084F8340000BF0320D0E72F
:100470002068006800F001000028E8D194F85C10C2
:100480003F208840A860012084F8350000BF00208C
:1004900084F8340000BF00BFBBE7014691F8350087
:1004A000022803D08020486501207047052081F88C
:1004B00035000868006820F001000A68106000201C
:1004C000F3E70000F8B50446002000908C4800686F
:1004D0004FF41651B0FBF1F7A56D2E6894F85C103F
:1004E00008208840304098B12068006800F004007F
:1004F00070B12068006820F004002168086094F85A
:100500005C1008208840A860606D40F001006065C4
:1005100094F85C1001208840304068B12068406940
:1005200000F0800040B194F85C1001208840A86081
:10053000606D40F00200606594F85C100420884013
:10054000304068B12068006800F0020040B194F8C3
:100550005C1004208840A860606D40F00400606575
:1005600094F85C1010208840304078B32068006810
:1005700000F0080050B394F85C1010208840A86088
:100580002068006800F4802080B12068006800F4D2
:10059000002028B9206CC8B12046216C884715E09E
:1005A000A06C98B12046A16C88470FE020680068D5
:1005B00000F4807028B92068006820F008002168E5
:1005C0000860206C10B12046216C884794F85C10BC
:1005D000202088403040002865D02068006800F066
:1005E000100000285FD094F85C1020208840A8609C
:1005F00094F83500052828D12068006820F01600FE
:10060000216808602068406920F080002168486106
:10061000206C08B9A06C28B12068006820F00800A0
:100620002168086094F85C103F208840A860012091
:1006300084F8350000BF002084F8340000BF206D2E
:1006400010B12046216D8847F8BD2068006800F48D
:10065000802080B12068006800F4002028B9606C18
:1006600010B12046616C88471DE0E06BD8B1204690
:10067000E16B884717E02068006800F4807068B973
:100680002068006820F0100021680860012084F8CC
:10069000350000BF002084F8340000BFE06B10B1CB
:1006A0002046E16B8847606D38B3606D00F0010053
:1006B000F0B1052084F835002068006820F00100C2
:1006C0002168086000BF0098401C0090B84200D923
:1006D00005E02068006800F001000028F3D100BFA9
:1006E000012084F8350000BF002084F8340000BFEA
:1006F000E06C10B12046E16C884700BFA4E7000021
:100700000C0000202DE9F0410446002500F0ACF972
:10071000074614B90120BDE8F081606A00B100BF4E
:10072000022084F8350000BF002084F8340000BFA8
:100730002068006820F00100216808600AE000F0ED
:1007400093F9C01B052805D920206065032084F893
:100750003500E0E72068006800F001000028EED1D5
:100760002068056821480540D4E901010843E16893
:1007700008432169084361690843A1690843E169A5
:100780000843216A08430543606A042803D1D4E979
:100790000B0108430543206805602068456925F082
:1007A0000705606A0543606A04280DD1A06A054305
:1007B000E06A48B12046FFF7ABFD28B140206065F4
:1007C000012084F83500A6E7206845612046FFF740
:1007D00085FD064694F85C103F208840B0600020FC
:1007E0006065012084F83500002094E73F8010F018
:1007F0002DE9F04704460D4616461F464FF0000807
:10080000D4F8589000BF94F83400012802D1022097
:10081000BDE8F087012084F8340000BF94F835006B
:10082000012825D1022084F83500002060653B4670
:10083000324629462046FFF7C0FD94F85C103F2061
:100840008840C9F808002068006840F01600216858
:100850000860206C28B12068006840F0080021681A
:1008600008602068006840F001002168086006E028
:1008700000BF002084F8340000BF4FF0020840465B
:10088000C6E70000F8B502460B460025002400200C
:100890000021C7E0012606FA01F51E6806EA0504F4
:1008A000AC4274D11E7906F00306012E04D01E79E5
:1008B00006F00306022E13D190684F000326BE40B7
:1008C000B0434F00DE68BE40304390605068012660
:1008D0008E40B0431E79C6F300168E403043506000
:1008E0001E7906F00306032E09D0D0684F000326B8
:1008F000BE40B0434F009E68BE403043D0601E797A
:1009000006F00306022E13D1CF0802F1200656F896
:1009100027004E07F70E0F26BE40B0434F07FF0ECD
:100920001E69BE403043CF0802F1200646F827007A
:1009300010684F000326BE40B0431E7906F0030640
:100940004F00BE40304310605E6806F44036002E13
:1009500067D000BF00260096344E366846F48046C5
:10096000324F3E603E46366806F48046009600BF31
:1009700000BF2F4E8F0856F827008E07370F0F261F
:10098000BE40B0432B4EB24202D1002615E048E0F3
:10099000294EB24201D101260FE0284EB24201D1C8
:1009A00002260AE0264EB24201D1032605E0254E7A
:1009B000B24201D1042600E007268F073F0FBE4058
:1009C00030431B4E8F0846F827001F4E3068A04367
:1009D0005E6806F4801606B120431B4E3060361D5B
:1009E0003068A0435E6806F4001606B12043164E38
:1009F000361D3060144E361F3068A0435E6806F422
:100A0000003606B12043104E361F3060361F306866
:100A1000A0435E6806F4803606B120430A4E083EC5
:100A20003060491C1029FFF435AFF8BD443802404E
:100A30000838014000000240000402400008024063
:100A4000000C024000100240083C014002461369BD
:100A50000B400BB1012000E0002070470AB181611A
:100A600001E00B0483617047014800687047000093
:100A70000000002003480068034909780844014940
:100A800008607047000000200800002010B50D48E5
:100A9000006840F400700B4908600846006840F4A4
:100AA000806008600846006840F480700860032099
:100AB00000F0A2F80F2000F007F800F02BF800205B
:100AC00010BD0000003C024070B504460E4800789E
:100AD0004FF47A71B1FBF0F00C490968B1FBF0F505
:100AE000284600F02BFC08B1012070BD102C07D265
:100AF00000222146501E00F041F80548046001E044
:100B00000120F2E70020F0E7080000200C000020A0
:100B10000400002008B500BF002000900E480068C7
:100B200040F480400C4908600846006800F48040AA
:100B3000009000BF00BF00BF00200090081F0068A9
:100B400040F08050091F08600846006800F080509F
:100B5000009000BF00BF08BD44380240014608466F
:100B6000002809DB00F01F0301229A4043099B0083
:100B700003F1E023C3F8002100BF70472DE9F05FC7
:100B800080460D461646002702F052FF07463946BA
:100B90002A46334601F00700C0F1070ABAF1040FF4
:100BA00002D94FF0040A01E0C0F1070AD14600F172
:100BB000040ABAF1070F02D24FF0000A01E0A0F1D7
:100BC000030AD4464FF0010A0AFA09FAAAF1010A07
:100BD0000AEA020A0AFA0CFA4FF0010B0BFA0CFBB4
:100BE000ABF1010B0BEA030B4AEA0B04214640462A
:100BF00002F026FFBDE8F09F00BF00F00702064BA1
:100C000019684FF6FF031940044B0B4343EA0221D6
:100C1000014B196000BF70470CED00E00000FA05C1
:100C200070B504460D460CB9012070BD58480068E7
:100C300000F00700A84209D255490D700846006827
:100C400000F00700A84201D00120EEE7207800F074
:100C5000020002281DD1207800F00400042805D1EC
:100C60004C48006840F4E0504A490860207800F0A1
:100C70000800082805D14748006840F4604045490D
:100C800008604448006820F0F000A168084341492A
:100C90000860207800F00100A8B36068012807D13F
:100CA0003C4808380068C0F34040B8B90120BCE7B0
:100CB0006068022802D06068032807D135480838E8
:100CC0000068C0F3406048B90120AEE731480838F9
:100CD0000068C0F3400008B90120A6E72D4800686D
:100CE00020F00300616808432A490860FFF7BCFE52
:100CF000064609E0FFF7B8FE801B41F288318842C2
:100D000002D9032091E707E02248006800F00C00B8
:100D10006168B0EB810FEDD11D48006800F007005D
:100D2000A84209D91A490D700846006800F007006A
:100D3000A84201D0012078E7207800F004000428C0
:100D400007D11448006820F4E050E16808431149D5
:100D50000860207800F00800082808D10D480068D5
:100D600020F46040216940EAC1000A49086000F0AF
:100D70003FF808490968C1F30311074A515CC840AC
:100D80000649086006480068FFF79EFE00204CE711
:100D9000003C024008380240D03B00080C00002014
:100DA0000400002001480068704700000C0000208B
:100DB00000B5FFF7F7FF04490968C1F38221034A30
:100DC000515CC84000BD000008380240E03B00080C
:100DD00000B5FFF7E7FF04490968C1F34231034A50
:100DE000515CC84000BD000008380240E03B0008EC
:100DF0002DE9F047002400250026A146254800687B
:100E000000F00C0020B1042805D008283AD105E0F4
:100E1000DFF8849039E0DFF8849036E01D48001F49
:100E2000006800F03F041B48001F006800F48000C9
:100E300078B11A481749091F0968C1F38811A0FB46
:100E400001700146224600233846FFF7C1F90546E6
:100E50000EE011480F49091F0968C1F38811A0FB72
:100E600001700146224600233846FFF7B1F90546D6
:100E70000848001F0068C0F30140401C4600B5FB55
:100E8000F6F902E0DFF8109000BF00BF4846BDE869
:100E9000F0870000083802400024F40040787D010B
:100EA000F8B504460CB90120F8BD207800F0010027
:100EB000002874D0F948006800F00C0004280DD018
:100EC000F648006800F00C00082813D1F348001F12
:100ED000006800F48000B0F5800F0BD1EF480838AF
:100EE0000068C0F34040002859D06068002856D1FF
:100EF0000120D9E700BF6068B0F5803F08D1E7481E
:100F00000838006840F48030E449083908601EE081
:100F10006068B0F5A02F0DD1E0480838006840F4B3
:100F20008020DE49083908600846006840F48030B7
:100F300008600CE0D9480838006820F48030D749B0
:100F4000083908600846006820F48020086000BF67
:100F5000606890B1FFF788FD054606E0FFF784FD65
:100F6000401B642801D903209EE7CC48083800685C
:100F7000C0F340400028F1D011E0FFF775FD0546B1
:100F800006E0FFF771FD401B642801D903208BE7C1
:100F9000C24808380068C0F340400028F1D12078EA
:100FA00000F0020002285FD1BC48006800F00C008D
:100FB00058B1BA48006800F00C0008281CD1B748A6
:100FC000001F006800F48000B0B9B4480838006819
:100FD000C0F3400020B1E068012801D0012063E7A0
:100FE000AE480838006820F0F800216940EAC100E6
:100FF000AA490839086037E0E06800B30120A84931
:101000000860FFF731FD054606E0FFF72DFD401BA8
:10101000022801D9032047E7A04808380068C0F338
:1010200040000028F1D09D480838006820F0F80002
:10103000216940EAC10099490839086014E000209C
:1010400097490860FFF710FD054606E0FFF70CFD25
:10105000401B022801D9032026E790480838006881
:10106000C0F340000028F1D1207800F008000828E3
:101070002CD16069A8B101208A490860FFF7F4FC0F
:10108000054606E0FFF7F0FC401B022801D90320CB
:101090000AE782486C300068C0F340000028F1D0B5
:1010A00014E000207F490860FFF7DEFC054606E0FB
:1010B000FFF7DAFC401B022801D90320F4E6774849
:1010C0006C300068C0F340000028F1D1207800F0B7
:1010D0000400042870D1002770483830006800F000
:1010E000805090B900BF002000906C4838300068F4
:1010F00040F080506949383108600846006800F0C7
:101100008050009000BF00BF01276748006800F4CE
:101110008070B0B96448006840F48070624908602B
:10112000FFF7A2FC054606E0FFF79EFC401B0228E5
:1011300001D90320B8E65C48006800F480700028FC
:10114000F2D000BFA068012808D154486830006878
:1011500040F001005149683108601DE0A068052891
:101160000DD14E486830006840F004004B496831AA
:1011700008600846006840F0010008600CE047483D
:101180006830006820F00100444968310860084672
:10119000006820F00400086000BFA068A8B1FFF755
:1011A00063FC054609E0FFF75FFC401B41F2883114
:1011B000884202D9032077E626E038486830006884
:1011C000C0F340000028EED013E0FFF74DFC0546C9
:1011D00008E0FFF749FC401B41F28831884201D901
:1011E000032061E62D4868300068C0F34000002805
:1011F000EFD1012F07D129483830006820F0805006
:1012000026493831086000BFA069002845D023482E
:10121000006800F00C0008285DD0A069022845D1C4
:1012200000201F490866FFF71FFC054606E0FFF790
:101230001BFC401B022801D9032035E6174808385B
:101240000068C0F340600028F1D1D4E907010843E9
:10125000616A40EA81110122A06AC2EB500041EAB2
:1012600000412C20005D41EA00600C49091F086024
:1012700001200B490866FFF7F7FB054606E0FFF77C
:10128000F3FB401B022801D903200DE60348083870
:101290000068C0F340600028F1D049E008380240FF
:1012A00000004742800E4742007000400020214964
:1012B0000866FFF7D9FB054606E0FFF7D5FB401BA4
:1012C000022801D90320EFE51B480068C0F3406005
:1012D0000028F2D12CE0A069012800D1E4E51648ED
:1012E000001D0668A069012820D006F48001E0698D
:1012F00081421BD106F03F01206A814216D147F698
:10130000C0703040616AB0EB811F0FD106F44031EC
:101310000122A06AC2EB5000B1EB004F06D106F0EB
:1013200070612C20005DB1EB006F01D00120BBE5A6
:101330000020B9E5000047420038024070B504467D
:101340002546681EB0F1807F01D301200FE0681EA2
:101350004FF0E02148610F214FF0FF3002F070FBA9
:1013600000204FF0E021886107200861002070BD57
:101370007047704730B502460B4600BF92F83C00FC
:10138000012801D1022030BD012082F83C0000BFBD
:10139000022082F83D00106844681068816824F0DB
:1013A00070041868044310684460144D1068A84223
:1013B00013D01068B0F1804F0FD0114D1068A842C3
:1013C0000BD0104D1068A84207D00F4D1068A842EE
:1013D00003D00E4D1068A84205D121F08001586855
:1013E000014310688160012082F83D0000BF0020A9
:1013F00082F83C0000BF00BFC5E7000000000140CC
:101400000004004000080040000C00400040014083
:1014100010B504460CB9012010BD94F83D0028B960
:10142000002084F83C00204600F026F8022084F8D2
:101430003D00211D206801F079FE012084F846005E
:1014400000BF84F83E0001213F2001554020015596
:101450004120015500BF00BF012084F84200432015
:101460000155442001554520015500BF012084F855
:101470003D000020D0E7000038B504460E49206842
:10148000884217D100BF002000900C48006840F04F
:1014900004000A4908600846006800F00400009053
:1014A00000BF00BF002201211E20FFF767FB1E20A6
:1014B000FFF754FB38BD00000008004040380240F0
:1014C000014691F83D00012801D00120704702201B
:1014D00081F83D000868C06840F001000B68D860E2
:1014E000164B0868984213D00868B0F1804F0FD0AF
:1014F000134B086898420BD0124B0868984207D0EB
:10150000114B0868984203D0104B086898420CD1E0
:101510000868806800F00702062A0CD00868006896
:1015200040F001000B68186005E00868006840F0B2
:1015300001000B6818600020C8E7000000000140AF
:101540000004004000080040000C00400040014042
:101550002DE9F04104460D46002700BF94F83C00F9
:10156000012802D10220BDE8F081012084F83C006E
:1015700000BF022084F83D002068866826F07706C8
:1015800026F47F46206886602868502833D00CDC1B
:10159000202850D004DC00284BD0102851D149E03D
:1015A000302849D040284CD139E060282DD070280F
:1015B00007D0B0F5805F03D0B0F5005F41D10DE0FA
:1015C00041E0D5E902136A68206801F012FE206844
:1015D000866846F077062068866034E0D5E9021315
:1015E0006A68206801F005FE2068806840F4804049
:1015F0002168886027E0EA686968206801F0CAFE0F
:101600005021206801F000FE1DE0EA68696820684A
:1016100001F0D3FE6021206801F0F6FD13E0EA68D6
:101620006968206801F0B6FE4021206801F0ECFDF9
:1016300009E000BF00BF00BF2968206801F0E4FD99
:1016400001E0012700BF00BF012084F83D0000BF7A
:10165000002084F83C0000BF384684E72DE9F041C3
:1016600004460D4614B90120BDE8F08194F83D0010
:1016700028B9002084F83C00204600F053F80220EE
:1016800084F83D002068806844F20701884321689F
:101690008860211D206801F049FD2068D0F808808D
:1016A000206886692068076A286840EA080840F2CE
:1016B00003308643A969A86840EA0120064340F642
:1016C0000C4086434FF2F0008643E969E86840EA3F
:1016D0000120064328690001296A40EA01300643D7
:1016E00027F0220727F088076969686840EA011037
:1016F00007432068C0F80880206886612068076278
:10170000012084F8460084F83E0001213F20015565
:10171000012084F8420043200155012084F83D0057
:101720000020A1E710B586B00446142101A8FEF7F9
:1017300087FD2068B0F1804F56D100BF0020009097
:101740004848006840F001004649086008460068C3
:1017500000F00100009000BF00BF00BF002000901B
:1017600040481038006840F001003E4910390860D8
:101770000846006800F00100009000BF00BF00BFF5
:10178000002000900846006840F00200086008460B
:10179000006800F00200009000BF00BF4FF400405E
:1017A0000190022002900120039003200490012068
:1017B000059001A92C48FFF765F808200190022048
:1017C000029001200390032004900120059001A9BC
:1017D0002648FFF757F8002211461C20FFF7CEF9E4
:1017E0001C20FFF7BBF93BE021492068884237D134
:1017F00000BF002000901B48006840F00800194915
:1018000008600846006800F00800009000BF00BFB4
:1018100000BF0020009013481038006840F001001D
:101820001049103908600846006800F00100009077
:1018300000BF00BF0320019002200290012003900E
:10184000032004900220059001A90748FFF71AF829
:10185000002211463220FFF791F93220FFF77EF97E
:1018600006B010BD403802400000024000040240B3
:10187000000C00402DE9F04304460D4694F83E600C
:101880003F20075D94F84280432010F804906DB922
:10189000012E02D1B8F1010F02D00120BDE8F08382
:1018A000022084F83E0084F8420025E0042D0CD18B
:1018B000012F02D1B9F1010F01D00120EEE7022181
:1018C0003F2001554320015516E0012E07D1012F7D
:1018D00005D1B8F1010F02D1B9F1010F01D00120FA
:1018E000DCE7022084F83E0002213F20015502205F
:1018F00084F842004320015515B1042D0CD105E0B8
:1019000001220021206801F063FC10E00122042183
:10191000206801F05DFC0AE001220021206801F04E
:1019200057FC01220421206801F052FC00BF00BFD7
:101930002068006840F00100216808600020ADE7E1
:10194000704710B5044620680069C0F34000D8B164
:101950002068C068C0F34000B0B16FF00200216899
:101960000861012020772068806900F0030018B129
:101970002046FFF7E5FF05E0204600F0FDF8204691
:1019800000F0D4F90020207720680069C0F38000BF
:10199000D8B12068C068C0F38000B0B16FF0040017
:1019A00021680861022020772068806900F4407077
:1019B00018B12046FFF7C4FF05E0204600F0DCF830
:1019C000204600F0B3F90020207720680069C0F3BA
:1019D000C000D8B12068C068C0F3C000B0B16FF0DB
:1019E000080021680861042020772068C06900F0A1
:1019F000030018B12046FFF7A3FF05E0204600F0E2
:101A0000BBF8204600F092F900202077206800699A
:101A1000C0F30010D8B12068C068C0F30010B0B1A6
:101A20006FF0100021680861082020772068C069E5
:101A300000F4407018B12046FFF782FF05E0204611
:101A400000F09AF8204600F071F900202077206815
:101A5000006900F0010058B12068C06800F0010082
:101A600030B16FF0010021680861204600F0D6F91E
:101A700020680069C0F3C01058B12068C068C0F386
:101A8000C01030B16FF08000216808612046FFF778
:101A90006FFC20680069C0F3801058B12068C068EE
:101AA000C0F3801030B16FF040002168086120461B
:101AB00000F038FA20680069C0F3401058B120687F
:101AC000C068C0F3401030B16FF020002168086199
:101AD0002046FFF74EFC10BD10B586B00446142119
:101AE00001A8FEF7ADFB2049206888423AD100BF2B
:101AF000002000901D48006840F001001B4908606C
:101B00000846006800F00100009000BF00BF00BF61
:101B1000002000900846006840F002000860084677
:101B2000006800F00200009000BF00BF402001905C
:101B300002200290012003900320049002200590CF
:101B400001A90B48FEF79EFE202001900220029082
:101B500001200390032004900220059001A905486C
:101B6000FEF790FE06B010BD000400403038024081
:101B7000000002400004024070472DE9F041044695
:101B80000D461646002700BF94F83C00012802D1FC
:101B90000220BDE8F081012084F83C0000BF36B18E
:101BA000042E1BD0082E31D00C2E5ED145E02946E4
:101BB000206801F033FB2068806940F0080021684C
:101BC00088612068806920F00400216888612068AD
:101BD0008069296908432168886148E029462068AE
:101BE00001F04CFB2068806940F400602168886146
:101BF0002068806920F4806021688861206880699D
:101C0000296940EA01202168886130E0294620687E
:101C100001F068FB2068C06940F008002168C861D5
:101C20002068C06920F004002168C8612068C0698C
:101C3000296908432168C86119E02946206801F034
:101C400085FB2068C06940F400602168C861206895
:101C5000C06920F480602168C8612068C069296972
:101C600040EA01202168C86101E0012700BF00BFF0
:101C700000BF002084F83C0000BF384689E710B55B
:101C800004460CB9012010BD94F83D0028B900208D
:101C900084F83C00204600F025F8022084F83D003E
:101CA000211D206801F042FA012084F8460000BF9F
:101CB00084F83E0001213F2001554020015541207C
:101CC000015500BF00BF012084F8420043200155A8
:101CD000442001554520015500BF012084F83D00F6
:101CE0000020D0E738B504460E492068884217D155
:101CF00000BF002000900C48006840F002000A4934
:101D000008600846006800F00200009000BF00BFB5
:101D1000002201211D20FEF731FF1D20FEF71EFFCE
:101D200038BD000000040040403802407047000009
:101D300070B504460D4615B994F83E000BE0042D2D
:101D400002D13F20005D06E0082D02D14020005D59
:101D500001E04120005D012801D0012070BD1DB9C6
:101D6000022084F83E000EE0042D03D102213F2022
:101D7000015508E0082D03D102214020015502E061
:101D800002214120015501222946206801F020FA54
:101D90001D492068884201D1012000E0002028B1BF
:101DA0002068406C40F4004021684864164920686F
:101DB000884213D02068B0F1804F0FD013492068BB
:101DC00088420BD012492068884207D01149206808
:101DD000884203D01049206888420CD1206880686E
:101DE00000F00706062E0CD02068006840F00100C5
:101DF0002168086005E02068006840F00100216863
:101E000008600020AAE70000000001400004004034
:101E100000080040000C00400040014010B504469E
:101E2000334920680968884261D132480068406AB5
:101E300000B200EE100AB8EEC00A2F4880ED020A88
:101E400000202C49096848622C480068406A00B2AA
:101E500000EE100AB8EEC00A294880ED020A002000
:101E6000264909684862244890ED020ADFED250AF8
:101E700020EE200ADFED240A80EE201A80ED031AFE
:101E80001F4890ED020ADFED1F0A20EE200ADFED69
:101E90001E0A80EE201A80ED031A1748D0ED030ABF
:101EA000B0EE600A194801F05FFE1548D0ED030A54
:101EB000B0EE600A164801F057FE0F4A1549164861
:101EC00000F0DEFF0E4A1549154800F0D9FF114811
:101ED000D0ED060AB0EE600A074800F029FE0F4870
:101EE000D0ED060AB0EE600A054800F021FE10BDF4
:101EF000A80000201800002020030020F00000208F
:101F0000300300200000C84200008244D0020020BC
:101F1000F8020020500200206C02002090020020F5
:101F2000AC0200207047F8B504460E46174694F8F8
:101F30003E00202836D106B10FB90120F8BD00BF00
:101F400094F83C00012801D10220F7E7012084F831
:101F50003C0000BF20633A463146204601F0C6FCF3
:101F60000546EDB9206B012819D100BF0020009073
:101F700020680068009020684068009000BF00BFA3
:101F800000BF00BF21680C3151E8001F41F0100074
:101F900021680C3141E80002002AF3D100E001255C
:101FA0002846CBE70220C9E770B505460C461B4919
:101FB0002868096888422FD1042C20D1184800785D
:101FC0002C281CD116484078122818D1601E1449BC
:101FD000085C5B2813D108468078012802D111499A
:101FE000087005E00E488078022801D10D4908707C
:101FF0000B48827801230021022000F05DFE1422AC
:1020000007490648FFF78FFF07480068006820F07F
:10201000080005490968086070BD00004C010020F7
:1020200038010020100000209001002070470000BF
:102030002DE9F84F0446206805682068C6682068C6
:1020400047694FF00009CA4605F00F09B9F1000FC2
:102050000AD105F0200038B106F0200020B120465A
:1020600001F0B2FABDE8F88FB9F1000F7CD007F0AB
:10207000010018B906F49070002875D005F0010031
:1020800030B106F4807018B1206C40F0010020647B
:1020900005F0040030B107F0010018B1206C40F0E9
:1020A0000200206405F0020030B107F0010018B111
:1020B000206C40F00400206405F0080048B106F0F0
:1020C000200010B907F0010018B1206C40F00800A2
:1020D0002064206C002846D005F0200028B106F0CE
:1020E000200010B1204601F06FFA20684069C0F36B
:1020F000801A206C00F0080010B9BAF1000F2DD042
:10210000204601F008FA2068406900F040004028AD
:1021100020D100BF00BF2168143151E8001F21F019
:1021200040002168143141E80002002AF3D100BFC9
:10213000A06B50B17548A16B0865A06BFEF7ADF9B7
:1021400088B1A06B016D88470DE02046FFF76EFF58
:1021500009E009E02046FFF769FF04E02046FFF7A9
:1021600065FF002020647DE7206B012876D105F013
:102170001000002872D006F010000028FAD000BF2E
:10218000002000902068006800902068406800905F
:1021900000BF00BF2068406900F0400040285ED1C9
:1021A000A06B006840681FFA80F8B8F1000F54D0A7
:1021B000A08D404551DDA4F82E80A06BC069B0F51C
:1021C000807F43D000BF00BF21680C3151E8001F61
:1021D00021F4807021680C3141E80002002AF3D11B
:1021E00000BF00BF00BF2168143151E8001F21F07B
:1021F00001002168143141E80002002AF3D100BF38
:1022000000BF00BF2168143151E8001F21F04000D9
:102210002168143141E80002002AF3D100BF2020D8
:1022200084F83E000020206300BF00BF21680C310D
:1022300051E8001F21F0100021680C3141E8000234
:10224000002AF3D100BFA06BFEF7D1F8A08DE28D7C
:10225000801A81B22046FFF7A7FE03E740E0A08D79
:10226000E18D401A1FFA80F8E08DC0B3B8F1000F7D
:1022700035D000BF00BF21680C3151E8001F21F4A8
:10228000907021680C3141E80002002AF3D100BFB0
:1022900000BF00BF2168143151E8001F21F0010088
:1022A0002168143141E80002002AF3D100BF202048
:1022B00084F83E000020206300BF00BF21680C317D
:1022C00051E8001F21F0100021680C3141E80002A4
:1022D000002AF3D100BF41462046FFF765FEC1E664
:1022E00005F0800030B106F0800018B1204601F002
:1022F00065FBB7E605F0400030B106F0400018B1CC
:10230000204601F03EF9ADE600BFABE6E33300083E
:1023100010B504460CB9012010BDA06900B100E061
:1023200000BF94F83D0028B9002084F83C00204606
:1023300000F028F8242084F83D002068C06820F4CC
:1023400000502168C860204601F0BAF92068006991
:1023500020F49040216808612068406920F02A003C
:10236000216848612068C06840F400502168C86056
:1023700000202064202084F83D0084F83E000020E6
:10238000CAE7000010B586B00446142101A8FDF785
:1023900057FF3D492068884274D100BF002000905B
:1023A0003A48006840F01000384908600846006864
:1023B00000F01000009000BF00BF00BF00200090A0
:1023C00032481438006840F0010030491439086080
:1023D0000846006800F00100009000BF00BF4FF405
:1023E000C06001900220029000200390032004901E
:1023F0000720059001A92648FEF744FA25482649FA
:1024000008604FF000604860002123488160C1608F
:102410004FF480610161002141618161C16101620C
:102420004162FEF76FF908B1FDF7DEFF00BF1A4801
:10243000A063846300BF17487830184908604FF0E4
:10244000006048604021154881600021C1604FF460
:1024500080610161002141618161C161016241626C
:10246000FEF750F908B1FDF7BFFF00BF0B486063EE
:10247000846300BF002202212520FEF77FFB252078
:10248000FEF76CFB06B010BD00100140443802405E
:10249000000002404064024090010020F001002052
:1024A00070477047704700BFFEE700EB40024FF6F1
:1024B000FF7303EA420100BF0A1EA1F1010399B2B2
:1024C000FAD1704700B585B014216846FDF7B8FE13
:1024D0008020009000200190029003200390694624
:1024E0000248FEF7CFF905B000BD0000000402402D
:1024F00000B585B014216846FDF7A2FE802000904B
:1025000001200190002002900320039069460248B8
:10251000FEF7B8F905B000BD0004024010B5FFF7A2
:10252000E7FF012280210C48FEF798FA01224021A2
:102530000948FEF793FA0120FFF7B7FF0022802138
:102540000548FEF78BFA0120FFF7AFFF002240217C
:102550000148FEF783FA10BD0004024010B5FFF7F2
:10256000C7FF002240210C48FEF778FA00228021A4
:102570000948FEF773FA0120FFF797FF0122402177
:102580000548FEF76BFA012280210348FEF766FA40
:102590000120FFF78AFF10BD0004024010B54FF480
:1025A0007A74012280211348FEF758FAFFF78AFF58
:1025B0000120FFF77AFF012240210E48FEF74EFA74
:1025C0000120FFF772FF07E0601E80B2041E03D0F7
:1025D000FFF7C4FFFF2010BD80210648FEF736FA42
:1025E0000028F1D1002240210248FEF737FA0020EE
:1025F000F1E700000004024070B50446FFF778FFE1
:10260000002240211448FEF729FA002521E004F0B9
:10261000800028B1012280210F48FEF71FFA04E054
:10262000002280210C48FEF719FA6006040E0120F2
:10263000FFF73BFF012240210748FEF70FFA012078
:10264000FFF733FF002240210348FEF707FA681C1A
:10265000C5B2082DDBDB70BD0004024070B5064634
:102660000C461546FFF75AFF3046FFF7C5FFFFF748
:1026700095FFFF2800D170BD2046FFF7BDFFFFF793
:102680008DFFFF2800D1F6E72846FFF7B5FFFFF7DB
:1026900085FFFF2800D1EEE7FFF760FF0020EAE7A3
:1026A00010B50446012C05D10122C1020548FEF7F0
:1026B000D5F905E000224FF400610248FEF7CEF99B
:1026C00010BD00000000024008B500BF00200090CF
:1026D0000E48006840F480000C4908600846006815
:1026E00000F48000009000BF00BF002211463A2095
:1026F000FEF744FA3A20FEF731FA0022114646204E
:10270000FEF73CFA4620FEF729FA08BD30380240B1
:1027100000B587B0142102A8FDF792FD00BF00208C
:1027200001902A48006840F0800028490860084667
:10273000006800F08000019000BF00BF00BF0020D3
:1027400001900846006840F00100086008460068F3
:1027500000F00100019000BF00BF00BF0020019009
:102760000846006840F0020008600846006800F073
:102770000200019000BF00BF00224FF470411448D6
:10278000FEF76CF90122D1021248FEF767F9012227
:10279000C0210F48FEF762F94FF2C00002900120FD
:1027A000039004900220059002A90948FEF76AF8F8
:1027B0004FF40060029001200390049002200590E5
:1027C00002A90448FEF75EF807B000BD30380240A9
:1027D000000402400000024000B58BB0242102A892
:1027E000FDF72EFD0020009001904FF0804017492A
:1027F000086000204860002114488160491EC160C3
:1028000000210161816101200290002003900120DC
:102810000490002005900690079001200890002069
:1028200009900A9002A90948FEF718FF08B1FDF7C0
:10283000DBFD00200090019069460448FEF79AFDF8
:1028400008B1FDF7D1FD0BB000BD0000180000205D
:1028500000B589B00020079008901C216846FDF75C
:10286000EFFC1C481C4908600920486000211A48F8
:1028700081604FF47A71C160002101618161FFF7CD
:10288000FEF908B1FDF7B0FD00200790089007A9F8
:102890001148FEF76FFD08B1FDF7A6FD602000901E
:1028A0000020019002900490002269460A48FFF738
:1028B00064F908B1FDF798FD042269460648FFF760
:1028C0005CF908B1FDF790FD0348FFF705F909B081
:1028D00000BD0000000400406000002000B587B08B
:1028E00000200390049005900690019002901448F7
:1028F0001449086042F20F7048600021114881605D
:102900006321C160002101618161FEF781FD08B191
:10291000FDF76AFD4FF48050039003A90948FEF7C4
:1029200017FE08B1FDF760FD00200190029001A99B
:102930000448FEF71FFD08B1FDF756FD07B000BDC6
:1029400000080040A800002000B58BB0242102A898
:10295000FDF776FC002000900190174817490860A9
:1029600000204860002115488160491EC160002197
:1029700001618161012002900020039001200490F8
:1029800000200590069007900120089000200990F3
:102990000A9002A90948FEF761FE08B1FDF724FD7F
:1029A00000200090019069460448FEF7E3FC08B15E
:1029B000FDF71AFD0BB000BD000C0040F000002038
:1029C00010B51148114908604FF4E130486000210A
:1029D0000E488160C16001610C214161002181616B
:1029E000C161FFF795FC08B1FDF7FEFC1422084910
:1029F0000648FFF798FA07480068006820F00800CA
:102A000004490968086010BD001001404C01002015
:102A1000380100209001002000BFFEE700B589B01A
:102A20001E48FEF7F5FC1D48FFF729F900211B4859
:102A3000FFF77EF904211948FFF77AF90020059085
:102A40000690079008900190029003900490002156
:102A50001348FEF70FFF04211148FEF70BFF00217A
:102A60001048FEF707FF04210E48FEF703FF0E484B
:102A7000FEF726FD9DED060ABCEEC00A10EE100A18
:102A80000649096848639DED020ABCEEC00A10EED3
:102A9000100A02490968886309B000BD600000207F
:102AA00018000020F0000020A800002070B50546A6
:102AB0000C461C48854218D1012C0AD1002209037A
:102AC0001948FDF7CBFF012251031748FDF7C6FF58
:102AD00026E0012211031448FDF7C0FF00224FF445
:102AE00000511148FDF7BAFF1AE01048854217D18E
:102AF000012C0AD10022A1030B48FDF7AFFF0122F0
:102B0000D1030948FDF7AAFF0AE001229103064814
:102B1000FDF7A4FF00224FF400410348FDF79EFF9C
:102B200070BD00002003002000040240300300209C
:102B300070B52DED028B0546B0EE408AB5EEC08A29
:102B4000F1EE10FA0BD201212846FFF7AFFFB1EEEC
:102B5000480ABCEEC00A10EE100A84B208E0002158
:102B60002846FFF7A3FFBCEEC80A10EE100A84B295
:102B7000B4F57A7F01DD4FF47A740848854203D1B9
:102B800007480068446305E00648854202D10448CE
:102B900000688463BDEC028B70BD00002003002040
:102BA000600000203003002000BFFEE72DE9F04761
:102BB00005460C4616464FF0000AA01CC4B2D1468A
:102BC0003AE005F1B000C2B200217820FFF746FDDF
:102BD0002746E01704EB107000111030C2B200213C
:102BE0007820FFF73BFDE01704EB10700011A4EB19
:102BF0000010C2B200217820FFF730FD4FF000082E
:102C000011E00AEB0610A0F500700E490A5C4021A5
:102C10007820FFF723FD0AF1010000F0FF0A08F118
:102C2000010000F0FF08B8F1080FEADB681CC5B22C
:102C300009F1010000F0FF09B9F1020FC1DBBDE8A5
:102C4000F0870000E83B00082DE9F04107460D46FB
:102C50001446002609E014F8012BA819C006010E3D
:102C60003846FFF7A3FF701CC6B220780028F2D1C7
:102C7000BDE8F08170B5B0241BE022460021782029
:102C8000FFF7ECFC102200217820FFF7E7FC002280
:102C900011467820FFF7E2FC002506E000224021E3
:102CA0007820FFF7DBFC681CC5B2842DF6DB601CC6
:102CB000C4B2B82CE1DB70BD2DE9F04781460E4669
:102CC00017461C46B846002517E00A2098FBF0F18D
:102CD00000FB118030301FFA80FA3019401E401B73
:102CE000C006010E52464846FFF760FF0A2098FBD7
:102CF000F0F01FFA80F8681CC5B2A542E5DBBDE81C
:102D0000F08710B5AE2200217820FFF7A7FC8D22B6
:102D100000217820FFF7A2FC102200217820FFF785
:102D20009DFC10BD10B5AE2200217820FFF796FC67
:102D3000002211467820FFF791FC10220021782014
:102D4000FFF78CFCD52200217820FFF787FC80223A
:102D500000217820FFF782FCA82200217820FFF7CD
:102D60007DFC3F2200217820FFF778FCD322002150
:102D70007820FFF773FC002211467820FFF76EFCE5
:102D8000B02200217820FFF769FC40220021782042
:102D9000FFF764FC8D2200217820FFF75FFC1422EE
:102DA00000217820FFF75AFCA12200217820FFF7AC
:102DB00055FCC82200217820FFF750FCDA220021C0
:102DC0007820FFF74BFC122200217820FFF746FC09
:102DD000812200217820FFF741FCFF22002178208A
:102DE000FFF73CFCD92200217820FFF737FCF122C5
:102DF00000217820FFF732FCDB2200217820FFF74A
:102E00002DFC302200217820FFF728FC2022002111
:102E10007820FFF723FC002211467820FFF71EFCE4
:102E2000A42200217820FFF719FCA6220021782097
:102E3000FFF714FCAF2200217820FFF70FFC10BD34
:102E400010B5FFF75EFFFFF715FFFFF76BFFFFF70A
:102E500011FF10BD80ED000AC0ED010A80ED021ADD
:102E6000C0ED061A80ED082ADFED042AC0ED052A20
:102E7000DFED022AC0ED032A7047000000000000C9
:102E800090ED030A80ED040A92ED010AD2ED030AE7
:102E900030EE600A80ED030A90ED050AD0ED030ADA
:102EA00030EE200A80ED050A90ED050AD0ED060A05
:102EB000B4EEE00AF1EE10FA03DB90ED060A80EDC5
:102EC000050A90ED000AD0ED030A20EE200AD0EDAD
:102ED000010A90ED051A00EE810AD0ED030A90ED8B
:102EE000041A70EEC10A90ED021A01EE200A80ED7C
:102EF000070A92ED010AD2ED030A30EE600A82ED74
:102F0000010A90ED070AD0ED080AB4EEE00AF1EEEE
:102F100010FA04DB90ED080A80ED070A10E090ED4E
:102F2000070AD0ED080AF1EE600AB4EEE00AF1EE0D
:102F300010FA05D890ED080AB1EE400A80ED070AB4
:102F400091ED040A81ED050A91ED030A81ED040A71
:102F500090ED070AD2ED030A30EE600A81ED030A14
:102F600091ED030AD1ED040A30EE600AD1ED000ABA
:102F700020EE200AD1ED030A91ED011A00EE810A3C
:102F8000D1ED030A91ED041AF0EE001A41EEC10AE8
:102F900091ED051A70EE810A91ED021A00EE810A98
:102FA000D1ED060A30EE200A81ED060A91ED060AFF
:102FB000DFED0C0AB4EEE00AF1EE10FA04DD9FED4D
:102FC000090A81ED060A0CE091ED060ADFED060A1A
:102FD000B4EEE00AF1EE10FA03D29FED030A81EDA0
:102FE000060A70470000FA430000FAC380ED000AA9
:102FF000C0ED010A80ED021ADFED061AC0ED041AD9
:10300000DFED041AC0ED051ADFED021AC0ED061A55
:1030100070470000000000007047704710B5FDF7D2
:1030200029FD10BD00B593B0302107A8FDF708F9C0
:10303000142102A8FDF704F900BF002001902448E4
:10304000006840F08050224908600846006800F09F
:103050008050019000BF00BF00BF002001901D48BC
:10306000006840F440401B4908600846006800F4CE
:103070004040019000BF00BF0220079001200A904D
:1030800010200B9002200D9000210E9108210F912D
:1030900064211091022111910421129107A8FDF7DA
:1030A000FFFE08B1FDF7A0F90F2002900220039067
:1030B000002004904FF480500590002006900321DA
:1030C00002A8FDF7ADFD08B1FDF78EF913B000BD04
:1030D00040380240007000400348006840F470002F
:1030E000014908607047000088ED00E010B5024813
:1030F000FEF727FC10BD00001800002010B50248A4
:10310000FEF71FFC10BD00006000002010B5024853
:10311000FEF717FC10BD0000A800002010B5024803
:10312000FEF70FFC10BD0000F000002010B5026893
:10313000204B98420BD0B0F1804F08D01E4B9842E4
:1031400005D01E4B984202D01D4B984203D122F06D
:1031500070024B681A43174B984214D0B0F1804F5D
:1031600011D0154B98420ED0144B98420BD0144BF3
:10317000984208D0134B984205D0134B984202D086
:10318000124B984203D122F44072CB681A4322F0CA
:1031900080034C6943EA040202608B68C3620B68D7
:1031A0008362044B984201D10B690363012343619D
:1031B00010BD000000000140000400400008004075
:1031C000000C004000400140004401400048014024
:1031D00030B501F01F05012404FA05F3046A9C438D
:1031E0000462046A01F01F0502FA05F52C4304622B
:1031F00030BD30B50C46816821F47F4142EA032599
:1032000025432943816030BD0A46816821F0700161
:1032100042F00703194381607047000030B5056A2A
:1032200025F001050562026A4368846924F0700490
:1032300024F003040D682C4322F002028D682A4317
:103240000D4DA84206D100BF22F00802CD682A43E6
:1032500022F00402084DA84207D123F4807323F41E
:1032600000734D692B438D692B43436084614D6826
:103270004563026230BD00000000014030B5056AC0
:1032800025F010050562026A4368846924F4E0446D
:1032900024F440740D6844EA052422F020028D686D
:1032A00042EA05120E4DA84207D100BF22F080026B
:1032B000CD6842EA051222F04002094DA84209D128
:1032C00023F4806323F400634D6943EA85038D6929
:1032D00043EA8503436084614D688563026230BDC3
:1032E0000000014030B5056A25F480750562026A68
:1032F0004368C46924F0700424F003040D682C436F
:1033000022F400728D6842EA05220F4DA84207D1CF
:1033100000BF22F40062CD6842EA052222F48062F6
:10332000094DA84209D123F4805323F400534D6979
:1033300043EA05138D6943EA05134360C4614D6890
:10334000C563026230BD00000000014030B5056A6F
:1033500025F480550562036A4468C26922F4E0429C
:1033600022F440720D6842EA052223F400538D686E
:1033700043EA0533064DA84204D124F480444D6944
:1033800044EA85144460C2614D680564036230BD3F
:103390000000014030B50B461446026A056A25F06C
:1033A00001050562816921F0F00141EA041122F072
:1033B0000A021A438161026230BD30B50B461446E1
:1033C000056A25F0100505628169026A21F47041E1
:1033D00041EA043122F0A00242EA03128161026252
:1033E00030BD70B50546AC6B0020E085E08420461A
:1033F000FEF71CFE70BD70B506460025B46B206854
:103400004069C0F3C01594F83D00212805D125B1CD
:103410000020E084204600F0C4F820684069C0F332
:10342000801594F83E00222805D125B10020E085C2
:10343000204600F070F8206C40F010002064204618
:10344000FEF7F4FD70BD70B50546AC6B28680068EA
:1034500000F48070002842D1E08500BF00BF2168E1
:103460000C3151E8001F21F4807021680C3141E8D3
:103470000002002AF3D100BF00BF00BF2168143151
:1034800051E8001F21F001002168143141E80002D9
:10349000002AF3D100BF00BF00BF2168143151E8FA
:1034A000001F21F040002168143141E80002002A89
:1034B000F3D100BF202084F83E00206B01280ED1FC
:1034C00000BF00BF21680C3151E8001F21F010003F
:1034D00021680C3141E80002002AF3D100BF206BC3
:1034E000012804D1A18D2046FEF75EFD02E02046B2
:1034F000FEF7D6FF70BD70B50546AC6B206B01289A
:1035000005D1A08D41082046FEF74EFD02E0204681
:10351000FEF7C7FF70BD00BF00BF02680C3252E863
:10352000002F22F4907102680C3242E80013002B45
:10353000F3D100BF00BF00BF0268143252E8002F71
:1035400022F001010268143242E80013002BF3D18B
:1035500000BF016B01290ED100BF00BF02680C3211
:1035600052E8002F22F0100102680C3242E80013EA
:10357000002BF3D100BF202180F83E100021016311
:10358000704710B504462068C06820F040002168EC
:10359000C860202084F83D002046FEF783FF00200D
:1035A00010BD00BF00BF02680C3252E8002F22F0AD
:1035B000C00102680C3242E80013002BF3D100BFB7
:1035C000202180F83D107047F8B5044694F83E007D
:1035D000222873D1A068B0F5805F0CD1206950B962
:1035E0000025A66A20684068C0F308003080A06A01
:1035F000801CA06215E0A56A0026A068B0F5805F77
:1036000003D0A06828B9206918B9206840682870DC
:1036100004E02068406800F07F002870A06A401C29
:10362000A062E08D401E80B2E085002844D1206871
:10363000C06820F020002168C8602068C06820F4BD
:1036400080702168C8602068406920F0010021680E
:103650004861202084F83E00206B012826D10020FC
:10366000206300BF00BF21680C3151E8001F21F02A
:10367000100021680C3141E80002002AF3D100BF9C
:103680002068006800F0100010280AD100BF002058
:10369000009020680068009020684068009000BF9B
:1036A00000BFA18D2046FEF77FFC02E02046FEF71A
:1036B000F7FE0020F8BD01E00020FBE70220F9E75B
:1036C0002DE9F84F04462068006920F44050E16875
:1036D0000843216808612169A068084361690843BB
:1036E000E169084300902068C06849F20C61884392
:1036F000009908432168C8602068406920F4407040
:10370000A16908432168486176492068884203D04E
:1037100075492068884203D1FDF75AFB814602E0D3
:10372000FDF746FB8146E069B0F5004F6CD1022001
:103730006168A0FB015003461920A9FB00700146F7
:103740002A463846FCF744FD6421B0FBF1F04FEA0D
:10375000001A02206168A0FB01510B461920A9FB49
:1037600000712A463846FCF733FD83460220616823
:10377000A0FB015003461920A9FB00712A463846D8
:10378000FCF726FD6421B0FBF1F000EBC00101EB7A
:103790000010ABEB8000322101EBC0006421B0FBD4
:1037A000F1F000F0F8000AEB400A02206168A0FB8B
:1037B000015003461920A9FB007001462A463846ED
:1037C000FCF706FD834602206168A0FB015003461A
:1037D0001920A9FB00712A463846FCF7F9FC642140
:1037E000B0FBF1F000EBC00101EB0010ABEB80008F
:1037F000322101EBC0006421B0FBF1F000F00700C2
:103800005044216888606AE004206168A0FB015090
:1038100003461920A9FB007001462A463846FCF7EA
:10382000D7FC824604206168A0FB015003461920A2
:10383000A9FB007001462A463846FCF7C9FC642102
:10384000B0FBF1F000EBC00101EB0010AAEB80002F
:10385000322101EB00106421B0FBF1F000F0F00A1E
:1038600004206168A0FB017003461920A9FB0051E8
:103870003A462846FCF7ACFC6421B0FBF1F00AEBB9
:10388000001A04206168A0FB01510B461920A9FB16
:1038900000712A463846FCF79BFC83460420616889
:1038A000A0FB015003461920A9FB007001462A46DF
:1038B0003846FCF78DFC6421B0FBF1F000EBC00151
:1038C00001EB0010ABEB8000322101EB0010642112
:1038D000B0FBF1F000F00F00504421688860BDE8B3
:1038E000F88F0000001001400014014077B581B04E
:1038F000044615460298A062A58500202064222077
:1039000084F83E002A48A16BC8632A48A16B08646A
:103910002948A16BC8640020A16B086502AE32681B
:103920002368191D2B46A06BFCF762FF00BF002027
:10393000009020680068009020684068009000BFF8
:1039400000BF00BF002084F83C0000BF206970B1B8
:1039500000BF00BF21680C3151E8001F41F48070A6
:1039600021680C3141E80002002AF3D100BF00BFFA
:1039700000BF2168143151E8001F41F001002168A7
:10398000143141E80002002AF3D100BF00BF00BF9C
:103990002168143151E8001F41F0400021681431C2
:1039A00041E80002002AF3D100BF002004B070BD3E
:1039B00047340008F7340008F7330008014691F84F
:1039C0003D00212828D18868B0F5805F0BD10869B7
:1039D00048B90A6A1088C0F308000B685860086A82
:1039E000801C086205E00B6A581C086218780B6896
:1039F0005860C88C401E80B2C88458B90868C06836
:103A000020F080000B68D8600868C06840F0400073
:103A10000B68D860002070470220FCE710B5024810
:103A2000FEF706FB10BD00004C01002000BFFEE7C2
:103A300002480068C0F30220704700000CED00E06F
:103A400010B5002804DB0A07130E054A135406E0DC
:103A50000A07140E034A00F00F031B1FD45410BDB5
:103A600000E400E018ED00E002E008C8121F08C101
:103A7000002AFAD170477047002001E001C1121FEF
:103A8000002AFBD170470000FDF700F8FFF7CAFAE3
:103A9000FEF73EFEFEF718FEFEF79EFEFEF7D8FE8E
:103AA000FEF71CFFFEF750FFFEF78AFFFEF7B6FF9A
:103AB000FFF7C6F91FA200210846FFF7C5F89FEDE2
:103AC0001E1ADFED1E0A9FED1E0A1E48FFF78EFA32
:103AD0009FED1D2ADFED1C1A9FED171ADFED1B0A63
:103AE000B7EE000A1A48FFF7B5F99FED131ADFED9C
:103AF000130A9FED130A1748FFF778FA9FED122A71
:103B0000DFED111A9FED0C1ADFED100AB7EE000A77
:103B10001148FFF79FF90120FEF7C2FD9FED060A4D
:103B20000E4880ED010A9FED0E0A0E4880ED010A55
:103B300000BFFEE74F6B6B00000000000000344246
:103B40000000E143500200200000C842CDCC4C3FB1
:103B50006C02002090020020AC0200202003002014
:103B6000CDCCCC3D3003002001B52DED020B9FEDF7
:103B7000150AF0EE400A0A2113E04A1E00EB820209
:103B800092ED000A00EB810282ED000A4A1E00EB72
:103B9000820292ED000A30EE200AF0EE400A4A1E40
:103BA000D1B20029E9DC9DED000A80ED0A0A9DED05
:103BB000000A30EE800AF0EE400AB2EE041A80EEFF
:103BC000810A0EBD00000000000610160006101647
:103BD00000000000000000000102030406070809BD
:103BE00000000000010203040000000000000000CB
:103BF0000000000000000000000038FCFC3800005D
:103C00000000000D0D000000000E1E00001E0E0042
:103C1000000000000000000020F8F820F8F8200064
:103C2000020F0F020F0F0200387C444747CC980068
:103C30000306041C1C07030030300080C060300005
:103C40000C060301000C0C0080D87CE4BCD84000BA
:103C5000070F0808070F080000101E0E00000000E4
:103C600000000000000000000000F0F80C0400005C
:103C7000000003070C0800000000040CF8F000002E
:103C80000000080C0703000080A0E0C0C0E0A08096
:103C90000002030101030200008080E0E080800058
:103CA000000000030300000000000000000000000E
:103CB0000000101E0E000000808080808080800048
:103CC00000000000000000000000000000000000F4
:103CD0000000000C0C00000000000080C0603000FC
:103CE0000C06030100000000F8FC04C424FCF800EA
:103CF000070F0908080F0700001018FCFC0000005F
:103D00000008080F0F080800080C84C4643C180061
:103D10000E0F0908080C0C00080C444444FCB800C1
:103D2000040C0808080F0700C0E0B098FCFC8000F5
:103D3000000000080F0F08007C7C4444C4C48400C9
:103D4000040C0808080F0700F0F84C4444C0800039
:103D5000070F0808080F07000C0C0484C47C3C0003
:103D600000000F0F00000000B8FC444444FCB80001
:103D7000070F0808080F0700387C444444FCF8008B
:103D8000000808080C0703000000003030000000A5
:103D900000000006060000000000003030000000B7
:103DA0000000080E060000000080C0603018080007
:103DB00000000103060C0800404040404040400025
:103DC00002020202020202000008183060C08000F5
:103DD00000080C0603010000181C04C4E43C180091
:103DE0000000000D0D000000F0F808C8C8F8F00051
:103DF000070F080B0B0B0100E0F0988C98F0E00027
:103E00000F0F0000000F0F0004FCFC4444FCB8003E
:103E1000080F0F08080F0700F0F80C04040C180036
:103E200003070C08080C060004FCFC040CF8F00066
:103E3000080F0F080C07030004FCFC44E40C1C00F2
:103E4000080F0F08080C0E0004FCFC44E40C1C00D6
:103E5000080F0F0800000000F0F80C84848C980014
:103E600003070C0808070F00FCFC404040FCFC0066
:103E70000F0F0000000F0F00000004FCFC04000006
:103E80000000080F0F08000000000004FCFC040004
:103E9000070F08080F07000004FCFCC0F03C0C00F2
:103EA000080F0F00010F0E0004FCFC0400000000CE
:103EB000080F0F08080C0E00FCFC387038FCFC00E2
:103EC0000F0F0000000F0F00FCFC3870E0FCFC003E
:103ED0000F0F0000000F0F00F0F80C040CF8F000BA
:103EE00003070C080C07030004FCFC44447C380066
:103EF000080F0F0800000000F8FC040404FCF800A0
:103F0000070F080E3C3F270004FCFC44C4FC3800AB
:103F1000080F0F00000F0F00183C6444C49C1800E9
:103F2000060E0808080F0700001C0CFCFC0C1C0007
:103F30000000080F0F080000FCFC000000FCFC0063
:103F4000070F0808080F0700FCFC000000FCFC003D
:103F50000103060C06030100FCFC008000FCFC00D1
:103F6000030F0E030E0F03000C3CF0C0F03C0C00DE
:103F70000C0F0300030F0C00003C7CC0C07C3C0015
:103F80000000080F0F0800001C0C84C4643C1C00D7
:103F90000E0F0908080C0E000000FCFC04040000D1
:103FA00000000F0F080800003870E0C0800000001B
:103FB0000000000103070E0000000404FCFC0000E8
:103FC000000008080F0F0000080C0603060C08008C
:103FD00000000000000000000000000000000000E1
:103FE00020202020202020200000030704000000C3
:103FF000000000000000000000A0A0A0E0C0000041
:10400000070F0808070F080004FCFC2060C08000B0
:10401000080F0708080F0700C0E0202020604000BC
:10402000070F0808080C040080C06024FCFC000096
:10403000070F0808070F0800C0E0A0A0A0E0C0001C
:10404000070F0808080C040040F8FC440C18000096
:10405000080F0F0800000000C0E02020C0E0200092
:10406000276F48487F3F000004FCFC4020E0C00070
:10407000080F0F00000F0F00000020ECEC00000004
:104080000000080F0F0800000000000020ECEC000A
:1040900000307040407F3F0004FCFC80C060200086
:1040A000080F0F01030E0C00000004FCFC000000D0
:1040B0000000080F0F080000E0E060C060E0C000F2
:1040C0000F0F000F000F0F0020E0C02020E0C00005
:1040D000000F0F00000F0F00C0E0202020E0C00004
:1040E000070F0808080F070020E0C02020E0C000EC
:1040F000407F7F48080F0700C0E02020C0E020007C
:10410000070F08487F7F400020E0C0602060C000AB
:10411000080F0F080000000040E0A02020604000D1
:10412000040C09090B0E04002020F8FC20200000DC
:104130000000070F080C0400E0E00000E0E00000D1
:10414000070F0808070F080000E0E00000E0E000AB
:104150000003070C0C070300E0E0000000E0E000B3
:10416000070F0C070C0F07002060C080C060200004
:10417000080C0703070C0800E0E0000000E0E00086
:10418000474F4848683F1F00606020A0E060200063
:104190000C0E0B09080C0C00004040F8BC04040095
:1041A000000000070F080800000000BCBC00000071
:1041B0000000000F0F000000000404BCF8404000A5
:1041C0000008080F07000000080C040C080C04008D
:1041D000000000000000000080C0603060C080006F
:1041E0000707040404070700084200080000002035
:1041F00018000000683A000820420008180000205B
:1042000028070000783A00080000000010000000B5
:10421000010000000024F400000000000000000085
:040000050800019955
:00000001FF
