:020000040800F2
:100000001807002089010008C51C0008BB1700085C
:10001000C11C0008F30200080322000800000000D1
:10002000000000000000000000000000951F000814
:10003000F702000800000000691F0008D51F000833
:10004000A3010008A3010008A3010008A301000800
:10005000A3010008A3010008A3010008A3010008F0
:10006000A3010008A3010008A3010008A3010008E0
:10007000A3010008A3010008A3010008A3010008D0
:10008000A3010008A3010008A3010008A3010008C0
:10009000A3010008A3010008A3010008A3010008B0
:1000A000A3010008A3010008A301000845200008DF
:1000B000A3010008A3010008A3010008A301000890
:1000C000A3010008A3010008A3010008A301000880
:1000D000A3010008A3010008A3010008A301000870
:1000E000A3010008A3010008A301000800F002F822
:1000F00000F03AF80AA090E8000C82448344AAF188
:100100000107DA4501D100F02FF8AFF2090EBAE885
:100110000F0013F0010F18BFFB1A43F0010318473B
:10012000D0270000F0270000103A24BF78C878C11B
:10013000FAD8520724BF30C830C144BF04680C60ED
:10014000704700000023002400250026103A28BF35
:1001500078C1FBD8520728BF30C148BF0B60704739
:100160001FB51FBD10B510BD00F08AF81146FFF78E
:10017000F7FF02F07DF800F0A8F803B4FFF7F2FFF4
:1001800003BC00F0AFF80000094880470948004769
:10019000FEE7FEE7FEE7FEE7FEE7FEE7FEE7FEE737
:1001A000FEE7FEE704480549054A064B7047000094
:1001B00043200008ED000008180100201807002067
:1001C000180300201803002010B5203AC0F00B805F
:1001D000B1E81850203AA0E81850B1E81850A0E84B
:1001E0001850BFF4F5AF5FEA027C24BFB1E81850A5
:1001F000A0E8185044BF18C918C0BDE810405FEA15
:10020000827C24BF51F8043B40F8043B08BF704790
:10021000D20728BF31F8023B48BF11F8012B28BF95
:1002200020F8023B48BF00F8012B70474FF0000256
:1002300000B5134694469646203922BFA0E80C50DC
:10024000A0E80C50B1F12001BFF4F7AF090728BFB7
:10025000A0E80C5048BF0CC05DF804EB890028BF33
:1002600040F8042B08BF704748BF20F8022B11F05C
:10027000804F18BF00F8012B7047704770477047D8
:10028000754600F02BF8AE4605006946534620F04F
:100290000700854618B020B5FFF784FFBDE8204071
:1002A0004FF000064FF000074FF000084FF0000B32
:1002B00021F00701AC46ACE8C009ACE8C009ACE8E5
:1002C000C009ACE8C0098D46704710B50446AFF3CD
:1002D00000802046BDE81040FFF74FBF0048704740
:1002E000B800002001491820ABBEFEE7260002003E
:1002F000704700BFFEE7704772B600BFFEE7000020
:1003000070B5044600F0A6F906462546681C10B1F3
:1003100004480078054400BF00F09CF9801BA84207
:10032000FAD370BD080000202DE9F84703460022EB
:1003300094466EE14FF0010808FA02F4D1F800800B
:1003400008EA0400A0427DD1DFF8DCA2D1F80480E5
:10035000A8EB0A09D0453AD014DCB8F1030F50D00D
:1003600009DCB8F1000F31D0B8F1010F1CD0B8F1A1
:10037000020F49D120E0B8F1110F18D0B8F1120FD7
:1003800042D11EE0B9F5881F25D006DCB9F5803FC3
:1003900020D0B9F5801F37D11AE0B9F5001F18D069
:1003A000B9F5041F30D117E0D1F80CC02DE0D1F819
:1003B0000C8008F1040C28E0D1F80C8008F1080C3E
:1003C00023E0D1F80C8008F10C0C1EE000BF00BF48
:1003D00000BF00BF00BF00BFD1F80880B8F1000F18
:1003E00002D14FF0040C0BE0D1F80880B8F1010FF6
:1003F00003D14FF0080C1C6102E04FF0080C5C6167
:1004000003E04FF0000C00E000BF00BFFF2801D860
:10041000984601E003F104084646FF2802D84FEA57
:10042000820803E0A2F108084FEA88084746D6F898
:1004300000804FF00F0909FA07F928EA09080CFAB9
:1004400007F900E088E048EA0908C6F80080D1F81A
:10045000048008F08058B8F1805F7DD100BFDFF8DC
:10046000CC81D8F8188048F00108DFF8C091C9F8AD
:100470001880C846D8F8188008F00108CDF8008028
:1004800000BF00BF4FEAB9384FEA920958F8295027
:100490004FEA82784FEA18794FF00F0808FA09F806
:1004A00025EA0805DFF88881434502D14FF00008AE
:1004B00016E0DFF88081434502D14FF001080FE0DC
:1004C000DFF87481434502D14FF0020808E0DFF8FD
:1004D0006C81434502D14FF0030801E04FF004085E
:1004E0004FEA82794FEA197908FA09F848EA0505CE
:1004F000DFF84C814FEA920948F82950D1F804807E
:1005000008F48018B8F5801F0AD1DFF83881D8F8D0
:10051000008048EA0008DFF82C91C9F8008009E063
:10052000DFF82081D8F8008028EA0008DFF814916D
:10053000C9F80080D1F8048008F40018B8F5001F4D
:1005400010D1DFF8008108F10408D8F8008048EAEB
:100550000008DFF8F09000E05AE009F10409C9F85A
:1005600000800DE0DFF8DC8008F10408D8F8008096
:1005700028EA0008DFF8CC9009F10409C9F80080E6
:10058000D1F8048008F40038B8F5003F0ED1DFF848
:10059000B480A8F10408D8F8008048EA0008DFF821
:1005A000A490A9F10409C9F800800DE0DFF8948057
:1005B000A8F10408D8F8008028EA0008DFF8849041
:1005C000A9F10409C9F80080D1F8048008F4803842
:1005D000B8F5803F0ED1DFF86C80A8F10808D8F894
:1005E000008048EA0008DFF85C90A9F10809C9F822
:1005F00000800DE0DFF84C80A8F10808D8F80080F2
:1006000028EA0008DFF83C90A9F10809C9F8008041
:10061000521CD1F8008028FA02F8B8F1000F7FF4DC
:1006200089AEBDE8F88700000000111000100240FC
:1006300000080140000C014000100140001401407E
:1006400008000140080401400AB1016101E00B0407
:1006500003617047014800687047000000000020F7
:1006600070B504460CB9012070BD94F83D0028B95E
:10067000002084F83C00204600F08CF9242084F807
:100680003D002068006820F00100216808602068B3
:10069000006840F40040216808602068006820F489
:1006A00000402168086000F043FB05465C49606833
:1006B000884206D85B48854201D2012007E000202D
:1006C00005E05948854201D2012000E000200128C0
:1006D00000D1C9E75548B5FBF0F62068406820F026
:1006E0003F003043216848604D496068884201D826
:1006F000701C07E04FF4967070434FF47A71B0FBB2
:10070000F1F0401C2168096A21F03F01084321688B
:10071000086243496068884214D8681E61684900CD
:10072000B0FBF1F0401CC0F30B00042801D2042000
:100730003DE0681E61684900B0FBF1F0401CC0F369
:100740000B0034E0A06838B9681E616801EB410114
:10075000B0FBF1F0401C0AE0681E616801EBC102C9
:1007600002EB0111B0FBF1F0401C40F48040C0F3FB
:100770000B0008B901201AE0A06848B9681E61683A
:1007800001EB4101B0FBF1F0401CC0F30B000CE0A9
:10079000681E616801EBC10202EB0111B0FBF1F0D0
:1007A000401CC0F30B0040F4804040F4004021683E
:1007B000C9694CF6FF72914308432168C861D4E9C6
:1007C000070108432168096821F0C0010843216836
:1007D0000860D4E9031008432168896848F2FF32B1
:1007E0009143084321688860D4E9050108432168E2
:1007F000C96821F0FF0108432168C86020680068CB
:1008000040F001002168086000202064202084F866
:100810003D000020206384F83E0000BF24E7000074
:10082000A086010080841E0000093D0040420F00A8
:100830002DE9FC5F04460F4690469946DDE90CAB76
:100840000E9EFFF707FF054694F83D0020287DD156
:10085000192301224D492046009501F072F810B18C
:100860000220BDE8FC9F00BF94F83C00012801D1A4
:100870000220F6E7012084F83C0000BF20680068F1
:1008800000F0010028B92068006840F001002168EC
:1008900008602068006820F400602168086021205A
:1008A00084F83D00402084F83E0000202064C4F815
:1008B00024A0A4F82AB0608D20853548E0624B461C
:1008C000424639462046CDE9006500F097FF08B161
:1008D0000120C6E731E02A463146204601F00DF9F5
:1008E00050B1206C042805D12068006840F40070E5
:1008F000216808600120B4E7606A00782168086117
:10090000606A401C6062208D401E2085608D401E04
:10091000608520684069C0F3800070B1208D60B1AF
:10092000606A007821680861606A401C6062208DFE
:10093000401E2085608D401E6085208D0028CAD114
:100940002A463146204600F0C9FF00E01CE050B1C5
:10095000206C042805D12068006840F400702168EC
:10096000086001207DE72068006840F4007021687D
:100970000860202084F83D00002084F83E0000BF7D
:1009800084F83C0000BF6CE702206AE70200100018
:100990000000FFFF10B586B00446002002900390CF
:1009A0000490059015492068884225D100BF14485D
:1009B000806940F00800124988610846806900F0AB
:1009C0000800019000BF00BFC020029012200390D9
:1009D0000320059002A90B48FFF7A6FC00BF0848BA
:1009E000C06940F400100649C8610846C06900F4B7
:1009F0000010019000BF00BF06B010BD00540040C1
:100A000000100240000C01400348006803490978C7
:100A100008440149086070470000002008000020D9
:100A200010B50848006840F010000649086003202F
:100A300000F09EF8002000F007F800F02BF80020EE
:100A400010BD00000020024070B504460E4800783A
:100A50004FF47A71B1FBF0F00C490968B1FBF0F585
:100A6000284600F0DFFB08B1012070BD102C07D232
:100A700000222146501E00F03DF80548046001E0C8
:100A80000120F2E70020F0E7080000200C00002021
:100A90000400002008B500BF0D48806940F0010047
:100AA0000B4988610846806900F00100009000BF92
:100AB00000BF00BF0846C06940F08050C8610846CA
:100AC000C06900F08050009000BF00BF08BD00006A
:100AD0000010024001460846002809DB00F01F0311
:100AE00001229A4043099B0003F1E023C3F800214F
:100AF00000BF70472DE9F05F80460D46164600277F
:100B000001F082FB074639462A46334601F00700CA
:100B1000C0F1070ABAF1040F02D94FF0040A01E04C
:100B2000C0F1070AD14600F1040ABAF1070F02D258
:100B30004FF0000A01E0A0F1030AD4464FF0010A89
:100B40000AFA09FAAAF1010A0AEA020A0AFA0CFAEE
:100B50004FF0010B0BFA0CFBABF1010B0BEA030B93
:100B60004AEA0B042146404601F056FBBDE8F09FDF
:100B700000BF00F00702064B19684FF6FF0319404B
:100B8000044B0B4343EA0221014B196000BF70473D
:100B90000CED00E00000FA0570B504460D460CB9F6
:100BA000012070BD5A48006800F00700A8420ED22C
:100BB0005748006820F00700284355490860084658
:100BC000006800F00700A84201D00120E9E7207882
:100BD00000F0020002281DD1207800F00400042853
:100BE00005D14C48406840F4E0604A4948602078AC
:100BF00000F00800082805D14648406840F46050DD
:100C0000444948604348406820F0F000A168084328
:100C100040494860207800F0010078B360680128FE
:100C200006D13C48006800F4003090B90120B8E7D4
:100C30006068022806D13748006800F0007040B9AB
:100C40000120AEE73348006800F0020008B9012037
:100C5000A7E73048406820F00300616808432D4949
:100C60004860FFF7F7FC064609E0FFF7F3FC801B3E
:100C700041F28831884202D9032092E707E02548F3
:100C8000406800F00C006168B0EB810FEDD12048A6
:100C9000006800F00700A8420ED91D48006820F047
:100CA000070028431A4908600846006800F007005A
:100CB000A84201D0012074E7207800F00400042845
:100CC00007D11448406820F4E060E1680843114906
:100CD0004860207800F00800082808D10D484068D6
:100CE00020F46050216940EAC1000A49486000F0E0
:100CF0002FF808494968C1F30311074A515CC840FD
:100D00000649086006480068FFF79EFE002048E795
:100D10000020024000100240D62200080C000020F3
:100D20000400002001480068704700000C0000200B
:100D300000B5FFF7F7FF04494968C1F30221034AF0
:100D4000515CC84000BD000000100240E6220008CF
:100D500070B500210022002400230020134D696893
:100D600001F00C05F5B1042D02D0082D19D101E0D8
:100D70000F4819E00F4DC1F38346AB5D01F4803598
:100D800055B10A4D6D68C5F340450B4E725D084D77
:100D90005D43B5FBF2F402E0084D03FB05F4204689
:100DA00002E000BF024800BF00BF70BD001002405B
:100DB00000127A00C4220008D422000800093D0075
:100DC000F8B504460CB90120F8BD207800F0010008
:100DD000002878D0F848406800F00C0004280CD0B7
:100DE000F548406800F00C00082811D1F24840682E
:100DF00000F48030B0F5803F0AD1EF48006800F47D
:100E0000003000285FD0606800285CD10120DBE75B
:100E100000BF6068B0F5803F06D1E748006840F445
:100E20008030E549086028E0606858B9E248006809
:100E300020F48030E04908600846006820F48020F3
:100E400008601AE06068B0F5A02F0BD1DA4800689E
:100E500040F48020D84908600846006840F480309B
:100E600008600AE0D448006820F48030D249086065
:100E70000846006820F48020086000BF606888B1E0
:100E8000FFF7E8FB054606E0FFF7E4FB401B64289C
:100E900001D9032098E7C848006800F40030002812
:100EA000F2D010E0FFF7D6FB054606E0FFF7D2FBD5
:100EB000401B642801D9032086E7BF48006800F47E
:100EC00000300028F2D1207800F00200022857D12B
:100ED000B948406800F00C0050B1B748406800F0D5
:100EE0000C00082818D1B448406800F4803098B944
:100EF000B148006800F0020020B12069012801D04B
:100F0000012061E7AC48006820F0F800616940EA20
:100F1000C100A949086033E02069E8B10120A74970
:100F20000860FFF797FB054606E0FFF793FB401BC1
:100F3000022801D9032047E79F48006800F002001B
:100F40000028F2D09C48006820F0F800616940EA6F
:100F5000C1009949086013E0002098490860FFF734
:100F600079FB054606E0FFF775FB401B022801D917
:100F7000032029E79048006800F002000028F2D121
:100F8000207800F0080008282DD1A069B8B1012010
:100F90008B490860FFF75EFB054606E0FFF75AFB4A
:100FA000401B022801D903200EE78348406A00F065
:100FB00002000028F2D0012000F0D8FF13E000204A
:100FC0007F490860FFF746FB054606E0FFF742FB56
:100FD000401B022801D90320F6E67748406A00F05A
:100FE00002000028F2D1207800F00400042873D118
:100FF00000277148C06900F0805070B900BF6E488A
:10100000C06940F080506C49C8610846C06900F072
:101010008050009000BF00BF01276A48006800F4BC
:101020008070B0B96748006840F480706549086016
:10103000FFF710FB054606E0FFF70CFB401B64289A
:1010400001D90320C0E65F48006800F480700028E2
:10105000F2D000BFE068012806D15748006A40F08E
:1010600001005549086227E0E06858B95248006A13
:1010700020F00100504908620846006A20F0040090
:10108000086219E0E06805280BD14B48006A40F07F
:101090000400494908620846006A40F001000862FD
:1010A0000AE04548006A20F001004349086208460A
:1010B000006A20F00400086200BFE068A0B1FFF7FA
:1010C000C9FA054609E0FFF7C5FA401B41F288312D
:1010D000884202D9032077E622E03748006A00F010
:1010E00002000028EFD012E0FFF7B4FA054608E04E
:1010F000FFF7B0FA401B41F28831884201D9032042
:1011000062E62D48006A00F002000028F0D1012FAD
:1011100005D12948C06920F080502749C86100BF27
:10112000E069C8B32448406800F00C00082860D08B
:10113000E069022848D1002020490866FFF78AFAB2
:10114000054606E0FFF786FA401B022801D9032076
:101150003AE61948006800F000700028F2D1206AD1
:10116000B0F5803F07D11448406820F40030A168F2
:10117000084311494860D4E9080108430E49496809
:1011800021F4741108430C49486001200B4908669A
:10119000FFF760FA054607E03DE0FFF75BFA401B0A
:1011A000022801D903200FE60348006800F0007010
:1011B0000028F2D02FE00000001002400000424260
:1011C0008004424200700040002014490866FFF786
:1011D00041FA054606E0FFF73DFA401B022801D917
:1011E0000320F1E50E48006800F000700028F2D1FD
:1011F00011E0E069012800D1E6E50948466806F4F7
:101200008031206A814204D106F47011606A814203
:1012100001D00120D8E50020D6E5000000004242C0
:101220000010024070B504462546681EB0F1807F6C
:1012300001D301200FE0681E4FF0E02148610F212B
:101240004FF0FF3000F0E8FF00204FF0E021886110
:1012500007200861002070BD7047704730B5024616
:101260000B4600BF92F83C00012801D1022030BD9E
:10127000012082F83C0000BF022082F83D00106887
:1012800044681068816824F070041868044310688A
:101290004460104D1068A8420BD01068B0F1804F28
:1012A00007D00D4D1068A84203D00C4D1068A8421D
:1012B00005D121F080015868014310688160012048
:1012C00082F83D0000BF002082F83C0000BF00BF54
:1012D000CDE70000002C0140000400400008004061
:1012E00010B504460CB9012010BD94F83D0028B992
:1012F000002084F83C00204600F025F8022084F805
:101300003D00211D206800F0A5FE012084F8460064
:1013100000BF84F83E0001213F20015540200155C7
:101320004120015500BF00BF012084F84200432046
:101330000155442001554520015500BF012084F886
:101340003D000020D0E7704770472DE9F04104468A
:101350000D461646002700BF94F83C00012802D134
:101360000220BDE8F081012084F83C0000BF96B95E
:10137000EB68D5E90012206800F0B8FE20688069AB
:1013800020F00C002168886120688069A968084302
:101390002168886141E0042E13D1EB68D5E9001281
:1013A000206800F0D7FE2068806920F44060216842
:1013B000886120688069A96840EA01202168886105
:1013C0002BE0082E12D1EB68D5E90012206800F05E
:1013D000DEFE2068C06920F00C002168C86120682A
:1013E000C069A96808432168C86116E00C2E13D1B2
:1013F000EB68D5E90012206800F0E5FE2068C069BE
:1014000020F440602168C8612068C069A96840EA8A
:1014100001202168C86100E0012700BF002084F896
:101420003C0000BF38469CE710B504460CB90120CB
:1014300010BD94F83D0028B9002084F83C002046F7
:1014400000F026F8022084F83D00211D206800F0FD
:1014500001FE012084F8460000BF84F83E0001210F
:101460003F200155402001554120015500BF00BFDC
:10147000012084F8420043200155442001554520B5
:10148000015500BF012084F83D000020D0E7000096
:1014900010B586B004460020029003900490059099
:1014A0001849206888422BD100BF1748806940F452
:1014B0000060154988610846806900F40060019069
:1014C00000BF00BF00BF0846806940F0040088618B
:1014D0000846806900F00400019000BF00BF481575
:1014E000029000200390049002A90848FEF71CFF18
:1014F000002211461B20FFF7FDFA1B20FFF7EAFA36
:1015000006B010BD002C0140001002400008014050
:101510002DE9F04104460D4615B994F83E000BE064
:10152000042D02D13F20005D06E0082D02D14020AD
:10153000005D01E04120005D074615B994F84200C6
:101540000BE0042D02D14320005D06E0082D02D1FE
:101550004420005D01E04520005D8046012F02D15E
:10156000B8F1010F02D00120BDE8F0811DB90220C1
:1015700084F83E000EE0042D03D102213F200155E6
:1015800008E0082D03D102214020015502E002218C
:10159000412001551DB9022084F842000EE0042DBF
:1015A00003D102214320015508E0082D03D1022177
:1015B0004420015502E0022145200155012229461F
:1015C000206800F081FD1249206888420BD0206815
:1015D000B0F1804F07D00F492068884203D00E49F0
:1015E000206888420CD12068806800F00706062E2B
:1015F0000CD02068006840F001002168086005E018
:101600002068006840F00100216808600020ABE716
:10161000002C0140000400400008004010B50446C2
:1016200020680069C0F34000D8B12068C068C0F3EA
:101630004000B0B16FF002002168086101202077FE
:101640002068806900F0030018B12046FFF77CFE97
:1016500005E0204600F0ADF8204600F0ABF8002091
:10166000207720680069C0F38000D8B12068C06886
:10167000C0F38000B0B16FF004002168086102205F
:1016800020772068806900F4407018B12046FFF789
:101690005BFE05E0204600F08CF8204600F08AF85A
:1016A0000020207720680069C0F3C000D8B120680E
:1016B000C068C0F3C000B0B16FF0080021680861D5
:1016C000042020772068C06900F0030018B120468C
:1016D000FFF73AFE05E0204600F06BF8204600F0E8
:1016E00069F80020207720680069C0F30010D8B1A5
:1016F0002068C068C0F30010B0B16FF0100021681E
:101700000861082020772068C06900F4407018B193
:101710002046FFF719FE05E0204600F04AF8204673
:1017200000F048F8002020772068006900F00100F0
:1017300058B12068C06800F0010030B16FF00100BE
:1017400021680861204600F036F820680069C0F37F
:10175000C01058B12068C068C0F3C01030B16FF03D
:101760008000216808612046FFF776FD2068006947
:10177000C0F3801058B12068C068C0F3801030B149
:101780006FF0400021680861204600F015F82068DD
:101790000069C0F3401058B12068C068C0F3401021
:1017A00030B16FF02000216808612046FFF755FD39
:1017B00010BD704770477047704700BFFEE7014695
:1017C00008684069C0F38020B0B16FF480600A6897
:1017D000506100200863202081F83D00002081F83E
:1017E0003E00086C40F00400086400BF002081F84F
:1017F0003C0000BF012070470020FCE72DE9F843C2
:101800000446884615469946DDE908672068006861
:1018100040F4807021680860334600224FF00111C7
:101820002046009700F08DF860B12068006800F451
:101830008070B0F5807F02D14FF4007020640320E7
:10184000BDE8F88308F0FE00216808613B46324697
:101850002149204600F0D4F808B10120F0E700BF8C
:101860000020009020684069009020688069009006
:1018700000BF00BF3A463146204600F03EF950B165
:10188000206C042805D12068006840F400702168AD
:1018900008600120D4E7B9F1010F03D1E8B2216853
:1018A000086117E0C5F30720216808613A46314610
:1018B000204600F022F950B1206C042805D12068A0
:1018C000006840F40070216808600120B8E7E8B2C1
:1018D000216808610020B3E70200010070B50446EA
:1018E0000D46164625E02046FFF769FF08B10120A6
:1018F00070BD681CE8B1FEF7ADFE801BA84200D8A1
:10190000BDB920684069C0F3800090B90020206311
:10191000202084F83D00002084F83E00206C40F038
:101920002000206400BF002084F83C0000BF01209C
:10193000DEE720684069C0F380000028D3D0002093
:10194000D6E72DE9F04104460D4617461E46DDF860
:10195000188038E0701CA8B3FEF77CFEA0EB0800EE
:10196000B04200D876BBC5F3074001280AD12068F1
:101970004069A9B20840A9B2884201D101200BE018
:10198000002009E020688069A9B20840A9B2884215
:1019900001D1012000E00020B84214D100202063D2
:1019A000202084F83D00002084F83E00206C40F0A8
:1019B0002000206400BF002084F83C0000BF01200C
:1019C000BDE8F081FFE7C5F3074001280AD1206890
:1019D0004069A9B20840A9B2884201D101200BE0B8
:1019E000002009E020688069A9B20840A9B28842B5
:1019F00001D1012000E00020B842ABD00020DFE799
:101A00002DE9F04104460D4616461F4658E0206871
:101A10004069C0F38020E8B12068006840F400709D
:101A2000216808606FF480602168486100202063AD
:101A3000202084F83D00002084F83E00206C40F017
:101A40000400206400BF002084F83C0000BF012097
:101A5000BDE8F081701C90B3FEF7FCFDC01BB042E6
:101A600000D866BBC5F3074001280AD12068406949
:101A7000A9B20840A9B2884201D101200BE00020A0
:101A800009E020688069A9B20840A9B2884201D162
:101A9000012000E0002090B900202063202084F87D
:101AA0003D00002084F83E00206C40F020002064BF
:101AB00000BF002084F83C0000BF0120C8E7FFE71A
:101AC000C5F3074001280AD120684069A9B208403F
:101AD000A9B2884201D101200BE0002009E0206872
:101AE0008069A9B20840A9B2884201D1012000E072
:101AF000002000288BD00020AAE770B504460D46D0
:101B0000164625E02046FFF75AFE08B1012070BDB9
:101B1000681CE8B1FEF79EFD801BA84200D8BDB945
:101B200020684069C0F3C01090B9002020632020D5
:101B300084F83D00002084F83E00206C40F0200036
:101B4000206400BF002084F83C0000BF0120DEE7D5
:101B500020684069C0F3C0100028D3D00020D6E729
:101B600000B585B00020019002900390049000BF62
:101B70002348806940F01000214988610846806947
:101B800000F01000009000BF00BF00BF0846806951
:101B900040F0200088610846806900F02000009035
:101BA00000BF00BF00BF0846806940F004008861A4
:101BB0000846806900F00400009000BF00BF00BF2D
:101BC0000846806940F0080088610846806900F096
:101BD0000800009000BF00BF002209150948FEF769
:101BE00033FD4FF4806001900120029003900320A8
:101BF000049001A90348FEF797FB05B000BD000063
:101C0000001002400008014010B50B480B49086065
:101C10000B484860002109488160C1604FF4804151
:101C20000161002141618161C1610162FEF718FD1E
:101C300008B1FEF761FB10BD005400401000002009
:101C4000A086010000B587B00020059006900190A5
:101C500002900390049018481849086041F61F400C
:101C600048600021154881604FF6FF71C160002176
:101C7000016141618161FFF7D7FB08B1FEF73CFBD1
:101C800000200590069005A90C48FFF7E7FA08B177
:101C9000FEF732FB0020019001200290002003900B
:101CA0000490042201A90548FFF74FFB08B1FEF795
:101CB00023FB07B000BD0000002C014064000020A1
:101CC00000BFFEE700BFFEE72DE9FF4705460C46D3
:101CD00016464FF00009A01CC4B2C84665E005F1E5
:101CE000B000C0B28DF80C002046E11704EB117172
:101CF00009111031C9B28DF80D10E11704EB117103
:101D00000911A4EB0111C9B28DF80E104FF47A70CD
:101D1000012103AA0B46CDE900210290002278217F
:101D20002448FEF785FD4FF47A7101220DF10D0074
:101D30001346CDE901210090002278211D48FEF7CD
:101D400077FD4FF47A7101220DF10E001346CDE9B3
:101D500001210090002278211648FEF769FD002736
:101D60001BE009EB0610A0F500701349085C8DF824
:101D70000F004FF47A7101220DF10F001346CDE9E7
:101D800001210090402278210A48FEF751FD09F117
:101D9000010000F0FF09781CC7B2082FE1DB681CC6
:101DA000C5B208F1010000F0FF08B8F1020F96DBA0
:101DB000BDE8FF8710000020EE2200082DE9F04169
:101DC00007460D461446002609E014F8012BA81911
:101DD000C006010E3846FFF777FF701CC6B22078A8
:101DE0000028F2D1BDE8F08110B586B026A00068C9
:101DF0000490B020059040E04FF47A70012105AACC
:101E00000B46CDE900210290002278211F48FEF701
:101E10000FFD4FF47A70012104AA0B46CDE9002191
:101E20000290002278211948FEF702FD4FF47A71E2
:101E300001220DF111001346CDE90121009000228D
:101E400078211248FEF7F4FC00240FE04FF47A7179
:101E500001220DF111001346CDE90121009040222D
:101E600078210A48FEF7E4FC601CC4B2842CEDDB48
:101E70009DF81400401CC0B205909DF81400B828CD
:101E8000BADB06B010BD00001000000010000020FA
:101E90002DE9F04781460E4617461C46B8460025F8
:101EA00017E00A2098FBF0F100FB118030301FFA98
:101EB00080FA3019401E401BC006010E52464846AB
:101EC000FFF702FF0A2098FBF0F01FFA80F8681C69
:101ED000C5B2A542E5DBBDE8F08700001FB508A04C
:101EE000006803904FF47A70032103AA0123CDE91F
:101EF00000210290002278210248FEF799FC1FBDC4
:101F0000AE8D10001000002000B58BB01C2209A17E
:101F100004A8FEF759F94FF47A701C2104AA012392
:101F2000CDE900210290002278210948FEF780FCCB
:101F30000BB000BDAE0010D580A83FD300B0408DDF
:101F400014A1C8DA1281FFD9F1DB302000A4A6AFBA
:101F50001000002010B5FFF7C1FFFFF745FFFFF7A6
:101F6000D3FFFFF741FF10BD7047000008B50849D7
:101F70000968C9084FF47A72B1FBF2F1414300914C
:101F800000BF00BF00994A1E00920029F9D108BD88
:101F90000C0000207047000010B50448FFF7A0F9BE
:101FA00004210248FFF7B4FA10BD000064000020CD
:101FB00010B5012291020648FEF746FB0F2000F003
:101FC0003FF900224FF480610148FEF73DFB10BD50
:101FD0000008014010B5FEF717FD10BD00B58FB029
:101FE000282105A8FEF722F914216846FEF71EF9FC
:101FF0000120059000040690002007900120099020
:1020000002200C90C1030D914FF4E0110E9105A830
:10201000FEF7D6FE08B1FEF76FF90F200090022000
:102020000190002002904FF4806003900020049003
:1020300002216846FEF7B0FD08B1FEF75DF90FB06A
:1020400000BD704710B50248FFF7E8FA10BD000068
:102050006400002010B50268184B984208D0B0F117
:10206000804F05D0164B984202D0164B984203D1B0
:1020700022F070024B681A43104B984208D0B0F11E
:10208000804F05D00E4B984202D00E4B984203D1A0
:1020900022F44072CB681A4322F080034C6943EA71
:1020A000040202608B68C3620B688362034B984230
:1020B00001D10B6903630123436110BD002C014072
:1020C000000400400008004030B501F01F05012465
:1020D00004FA05F3046A9C430462046A01F01F05D4
:1020E00002FA05F52C43046230BD000070B50C46C1
:1020F0001546026A066A26F0010606628169124EDA
:10210000B04208D0B0F1804F05D0104EB04202D09E
:102110000F4EB04201D1012600E000261EB121F091
:102120000301294301E041F0010121F0F001F02613
:1021300006EA0316314322F00A0204F00A0632438B
:102140008161026270BD0000002C0140000400406B
:102150000008004070B50C461546026A066A26F073
:1021600010060662816921F4407141EA052121F4DB
:1021700070414FF4704606EA0336314322F0A00264
:10218000A02606EA041632438161026270BD70B572
:102190000C461546026A066A26F480760662C16914
:1021A00021F00301294321F0F001F02606EA03168D
:1021B000314322F400724FF4007606EA04263243DB
:1021C000C161026270BD70B50C461546026A066AAE
:1021D00026F480560662C16921F4407141EA052166
:1021E00021F470414FF4704606EA0336314322F47D
:1021F00000524FF4005606EA04363243C1610262CF
:1022000070BD00BFFEE7000002480068C0F3022076
:10221000704700000CED00E010B5002804DB0A0751
:10222000130E054A135406E00A07140E034A00F081
:102230000F031B1FD45410BD00E400E018ED00E0B4
:1022400000EBC001C9004FF0E02251610021916113
:102250000521116100BF4FF0E021096901F48031CF
:102260000029F8D004214FF0E022116170470000EE
:10227000FEF7D6FBFFF7B2FEFFF772FCFFF7E2FCBA
:10228000FFF7C2FCFFF766FEFFF786FE09A20021FA
:102290000846FFF793FD0BE0FFF78AFE0120FEF7EB
:1022A0002FF807484289042302210846FFF7F0FD72
:1022B000F2E7000044697374616E6365000000001A
:1022C000AC00002002030405060708090A0B0C0DE8
:1022D0000E0F1010010200000000000000000102BB
:1022E00003040607080900000000010203040000BF
:1022F00000000000000000000000000000000000DE
:1023000038FCFC3800000000000D0D000000000E3D
:102310001E00001E0E00000000000000000020F85B
:10232000F820F8F82000020F0F020F0F0200387C8F
:10233000444747CC98000306041C1C0703003030B8
:102340000080C06030000C060301000C0C0080D837
:102350007CE4BCD84000070F0808070F08000010F5
:102360001E0E000000000000000000000000000041
:10237000F0F80C040000000003070C080000000047
:10238000040CF8F000000000080C0703000080A017
:10239000E0C0C0E0A0800002030101030200008051
:1023A00080E0E080800000000003030000000000E7
:1023B0000000000000000000101E0E0000008080E1
:1023C000808080808000000000000000000000008D
:1023D0000000000000000000000C0C0000000000E5
:1023E0000080C06030000C06030100000000F8FC13
:1023F00004C424FCF800070F0908080F07000010A8
:1024000018FCFC0000000008080F0F080800080C6A
:1024100084C4643C18000E0F0908080C0C00080C5A
:10242000444444FCB800040C0808080F0700C0E04E
:10243000B098FCFC8000000000080F0F08007C7CB6
:102440004444C4C48400040C0808080F0700F0F8D2
:102450004C4444C08000070F0808080F07000C0C0C
:102460000484C47C3C0000000F0F00000000B8FC96
:10247000444444FCB800070F0808080F0700387CE4
:10248000444444FCF800000808080C07030000005E
:1024900000303000000000000006060000000000D0
:1024A0000030300000000000080E06000000008030
:1024B000C0603018080000000103060C080040400E
:1024C00040404040400002020202020202000008B6
:1024D000183060C0800000080C0603010000181CC2
:1024E00004C4E43C18000000000D0D000000F0F8EA
:1024F00008C8C8F8F000070F080B0B0B0100E0F04C
:10250000988C98F0E0000F0F0000000F0F0004FC03
:10251000FC4444FCB800080F0F08080F0700F0F84F
:102520000C04040C180003070C08080C060004FC3B
:10253000FC040CF8F000080F0F080C07030004FC63
:10254000FC44E40C1C00080F0F08080C0E0004FCEF
:10255000FC44E40C1C00080F0F0800000000F0F819
:102560000C84848C980003070C0808070F00FCFCFF
:10257000404040FCFC000F0F0000000F0F00000067
:1025800004FCFC0400000000080F0F08000000001D
:102590000004FCFC0400070F08080F07000004FCFF
:1025A000FCC0F03C0C00080F0F00010F0E0004FCF3
:1025B000FC0400000000080F0F08080C0E00FCFCD3
:1025C000387038FCFC000F0F0000000F0F00FCFCFF
:1025D0003870E0FCFC000F0F0000000F0F00F0F857
:1025E0000C040CF8F00003070C080C07030004FCB3
:1025F000FC44447C3800080F0F0800000000F8FC81
:10260000040404FCF800070F080E3C3F270004FCFC
:10261000FC44C4FC3800080F0F00000F0F00183CEA
:102620006444C49C1800060E0808080F0700001C2C
:102630000CFCFC0C1C000000080F0F080000FCFC48
:10264000000000FCFC00070F0808080F0700FCFC56
:10265000000000FCFC000103060C06030100FCFC6A
:10266000008000FCFC00030F0E030E0F03000C3C67
:10267000F0C0F03C0C000C0F0300030F0C00003CFA
:102680007CC0C07C3C000000080F0F0800001C0C40
:1026900084C4643C1C000E0F0908080C0E000000E6
:1026A000FCFC0404000000000F0F08080000387054
:1026B000E0C0800000000000000103070E000000E1
:1026C0000404FCFC0000000008080F0F0000080CC8
:1026D0000603060C080000000000000000000000D7
:1026E00000000000000020202020202020200000EA
:1026F000030704000000000000000000000000A02C
:10270000A0A0E0C00000070F0808070F080004FCA5
:10271000FC2060C08000080F0708080F0700C0E019
:10272000202020604000070F0808080C040080C02B
:102730006024FCFC0000070F0808070F0800C0E039
:10274000A0A0A0E0C000070F0808080C040040F893
:10275000FC440C180000080F0F0800000000C0E047
:102760002020C0E02000276F48487F3F000004FC85
:10277000FC4020E0C000080F0F00000F0F00000019
:1027800020ECEC0000000000080F0F080000000023
:10279000000020ECEC0000307040407F3F0004FC63
:1027A000FC80C0602000080F0F01030E0C00000029
:1027B00004FCFC0000000000080F0F080000E0E02F
:1027C00060C060E0C0000F0F000F000F0F0020E09E
:1027D000C02020E0C000000F0F00000F0F00C0E07D
:1027E000202020E0C000070F0808080F070020E0A5
:1027F000C02020E0C000407F7F48080F0700C0E0F5
:102800002020C0E02000070F08487F7F400020E024
:10281000C0602060C000080F0F080000000040E00A
:10282000A02020604000040C09090B0E04002020A9
:10283000F8FC202000000000070F080C0400E0E076
:102840000000E0E00000070F0808070F080000E0A4
:10285000E00000E0E0000003070C0C070300E0E0EC
:10286000000000E0E000070F0C070C0F07002060DD
:10287000C080C0602000080C0703070C0800E0E0DF
:10288000000000E0E000474F4848683F1F006060DC
:1028900020A0E06020000C0E0B09080C0C0000408A
:1028A00040F8BC040400000000070F080800000006
:1028B00000BCBC0000000000000F0F00000000047E
:1028C00004BCF84040000008080F07000000080C96
:1028D000040C080C0400000000000000000080C090
:1028E000603060C080000707040404070700000090
:1028F0001029000800000020100000002801000836
:1029000020290008100000200807000044010008EA
:102910000000000010000000010000000024F4008E
:04000005080000ED02
:00000001FF
