:020000040800F2
:1000000098060020890100086B120008631100089F
:10001000691200088F02000869160008000000003D
:100020000000000000000000000000009314000821
:1000300091020008000000006D12000895140008ED
:10004000A3010008A3010008A3010008A301000800
:10005000A3010008A3010008A3010008A3010008F0
:10006000A3010008A3010008A3010008A3010008E0
:10007000A3010008A3010008A3010008A3010008D0
:10008000A3010008A3010008A3010008A3010008C0
:10009000A3010008A3010008A3010008A3010008B0
:1000A000A3010008A3010008A3010008A3010008A0
:1000B000A3010008A3010008A3010008A301000890
:1000C000A3010008A3010008A3010008A301000880
:1000D000A3010008A3010008A3010008A301000870
:1000E000A301000871120008A301000800F002F843
:1000F00000F03AF80AA090E8000C82448344AAF188
:100100000107DA4501D100F02FF8AFF2090EBAE885
:100110000F0013F0010F18BFFB1A43F0010318473B
:100120007816000098160000103A24BF78C878C1ED
:10013000FAD8520724BF30C830C144BF04680C60ED
:10014000704700000023002400250026103A28BF35
:1001500078C1FBD8520728BF30C148BF0B60704739
:100160001FB51FBD10B510BD00F058F81146FFF7C0
:10017000F7FF01F09BFA00F076F803B4FFF7F2FF07
:1001800003BC00F07DF8000009488047094800479B
:10019000FEE7FEE7FEE7FEE7FEE7FEE7FEE7FEE737
:1001A000FEE7FEE704480549054A064B7047000094
:1001B00019150008ED00000898000020980600209E
:1001C00098020020980200204FF0000200B513466C
:1001D00094469646203922BFA0E80C50A0E80C5067
:1001E000B1F12001BFF4F7AF090728BFA0E80C5018
:1001F00048BF0CC05DF804EB890028BF40F8042B11
:1002000008BF704748BF20F8022B11F0804F18BF7D
:1002100000F8012B7047704770477047754600F033
:100220002BF8AE4605006946534620F00700854688
:1002300018B020B5FFF7B6FFBDE820404FF000062C
:100240004FF000074FF000084FF0000B21F00701BE
:10025000AC46ACE8C009ACE8C009ACE8C009ACE801
:10026000C0098D46704710B50446AFF300802046A4
:10027000BDE81040FFF781BF004870473400002000
:1002800001491820ABBEFEE7260002007047FEE7DA
:10029000704772B6FEE7000070B5044600F004F93E
:1002A0000546601C02D004480078044400F0FCF8C5
:1002B000401BA042FAD370BD100000202DE9F84F7A
:1002C000DFF8B8910024A9F1040B23460F2709F1A8
:1002D000040AABF1040EC9E00125A5402A40AA4258
:1002E0007DD1674ED1F804C0ACEB0608B44532D0DE
:1002F00014DCBCF1030F3AD009DCBCF1000F2AD0AA
:10030000BCF1010F1CD0BCF1020F31D11DE0BCF1DA
:10031000110F17D0BCF1120F2AD119E0B8F5881FC0
:1003200019D006DCB8F5803F15D0B8F5801F1FD175
:1003300011E0B8F5001F0ED0B8F5041F18D10AE07F
:10034000CB6815E0CB681B1D12E0CB6808330FE0CB
:10035000CB680C330CE08B682BB1012B4FF00803FA
:1003600003D0456104E0042302E0056100E00023BE
:10037000FF2A01D8064601E000F104064FEA840591
:1003800001D9A5F12005D6F8008007FA05FC28EA76
:100390000C0803FA05F548EA0508C6F800804D6820
:1003A000ED0062D5374DAE6946F00106AE61AD692C
:1003B00024F0030605F001050095334D06EB050C0E
:1003C000DCF80850A607360F07FA06F825EA0805F4
:1003D000DFF8B880404503D14FF0000817E044E053
:1003E000DFF8AC80404502D14FF001080FE0DFF8A4
:1003F000A480404502D14FF0020808E0DFF8988061
:10040000404502D14FF0030801E04FF0040808FA1C
:1004100006F848EA0508CCF808804D68D9F800606D
:10042000ED024D4601D5164300E096432E604D681F
:10043000DAF80060AD02554601D5164300E0964358
:100440002E604D68DBF80060AD035D4601D51643B4
:1004500000E096432E604D68DEF80060ED037546BF
:1004600001D5164300E096432E60641C0D682A46B1
:10047000E5407FF431AFBDE8F88F0000080401408B
:10048000000011100010024000000140000801406F
:10049000000C014000100140001401400AB101614C
:1004A00070470904FBE700000148806870470000BE
:1004B0001000002002488168027811448160704772
:1004C00010000020074810B5016841F010010160DC
:1004D000032000F06DF80F2000F006F800F024F87B
:1004E000002010BD0020024070B50D4D04464FF4B1
:1004F0007A712878B1FBF0F00A490968B1FBF0F095
:1005000000F01BFE48B9102C07D200222146501ED5
:1005100000F02EF800206C6070BD012070BD00005E
:10052000100000201C000020094808B5816941F036
:1005300001018161816901F001010091C16941F00E
:100540008051C161C06900F08050009008BD00007A
:1005500000100240002809DB00F01F020121914039
:100560004009800000F1E020C0F800117047000051
:10057000F0B40E4B1B680C46C3F30223C3F107050E
:10058000042D00D90425191D072901D2002300E0FC
:10059000DB1E012606FA05F1491E214099409E40C6
:1005A000761E16403143F0BC01F05FB80CED00E060
:1005B000064900F0070208684FF6FF03184040EABA
:1005C0000220034A10430860704700000CED00E071
:1005D0000000FA05014901200862704700000E4240
:1005E00010B501460020234C012922D0022939D020
:1005F00010291DD161682268D20119D51E48C1F3A6
:100600008342C903805C0AD561681B4AC1F340413B
:10061000921E515C194AB2FBF1F1484301E01849BE
:1006200048436168490203D440000321B0FBF1F064
:1006300010BD226AC2F30121012903D1920701D51D
:10064000C80310BD022905D1626A920702D549F696
:10065000404010BD0329FCD121688903F9D54FF230
:10066000244010BD00F01AF96168C1F38131491CC2
:100670004900DBE7001002405817000800127A001A
:1006800000093D002DE9F84305460078354CC007C8
:1006900054D0E0690026C00008D4E06940F08050E2
:1006A000E061E069012600F0805000902E4801686A
:1006B000C90512D40168804641F480710160FFF7DA
:1006C000F3FE074605E000BFFFF7EEFEC01B6428FF
:1006D00023D8D8F80000C005F6D5206A10F4407081
:1006E00021D0A98801F4407181421CD0206A1F49A1
:1006F000012220F440700A6000220A602062C007D4
:1007000011D0FFF7D1FE074641F2883808E000BF5C
:10071000FFF7CAFEC11B414502D90320BDE8F8839B
:10072000206A8007F4D5206A696820F44070084385
:1007300020621EB1E06920F08050E06128788007D7
:1007400005D56068A96820F44040084360602878B7
:10075000C00605D56068E96820F480000843606041
:100760000020DBE7001002400070004040044242DD
:100770002DE9F0470F46050061D0434E306800F088
:100780000700B84209D2306820F0070038433060D3
:10079000306800F00700B84251D128683B4C81070F
:1007A00012D5400703D5606840F4E06060602878A7
:1007B000000703D5606840F4605060606068A96815
:1007C00020F0F000084360602878C00728D06868EF
:1007D000012810D02168022810D0890700292EDABC
:1007E000616821F0030101436160FFF75DFE80460F
:1007F00041F288390DE021688903EFE78901EDE7CF
:10080000FFF752FEA0EB0801494502D90320BDE8DD
:10081000F0876068696800F00C00B0EB810FEFD1E1
:10082000306800F00700B8420BD9306820F00700AC
:1008300038433060306800F00700B84201D0012032
:10084000E5E72878400705D56068E96820F4E060AE
:10085000084360602878000706D56068296920F49D
:10086000605040EAC100606000F028F86168084A02
:10087000C1F30311515CC84006490860064800688E
:10088000FFF732FE0020C2E70020024000100240C5
:10089000681700081C0000201400002004480549C7
:1008A00000684968044AC1F3C221515CC8407047DE
:1008B0001C00002000100240781700080E4A516802
:1008C0000E4801F00C03042B11D0082B0FD10C485B
:1008D000C1F38343C903C05C0AD55168084AC1F318
:1008E0004041921E515C054A5043B0FBF1F0704705
:1008F00004494843704700000010024000127A008B
:100900004617000800093D002DE9F84F040070D09B
:100910002078C04DC00749D06868C0F38100012825
:1009200007D06868C0F38100022809D16868C00355
:1009300006D52868800339D560680028E7D035E0FF
:100940006068B0F5803F0BD010B1B0F5A02F11D08A
:10095000286820F480302860286820F4802002E095
:10096000286840F480302860606890B1FFF79CFDF3
:1009700006460AE0286840F480202860F0E700BFBF
:10098000FFF792FD801B642873D828688003F7D591
:100990000CE0FFF789FD064605E000BFFFF784FD88
:1009A000801B6428F0D828688003F7D420789A4EFA
:1009B00080074FF001094FF0000839D5686810F042
:1009C0000C0F07D06868C0F38100022809D168685D
:1009D000C00306D42868800714D52069012808D1EF
:1009E00010E02069B0B1C6F80090FFF75DFD074642
:1009F00005E00AE1FFF758FDC01B0228C4D82868AB
:100A00008007F7D52868616920F0F80040EAC10046
:100A100028600DE0C6F80080FFF746FD074604E0B9
:100A2000FFF742FDC01B022823D828688007F7D4AF
:100A3000207800072CD57948A169D9B1C0F8009079
:100A4000FFF732FD074604E0FFF72EFDC01B02282A
:100A50000FD8686A8007F7D571484FF4FA510068DB
:100A6000B0FBF1F0009000BF0098411E0091FAD257
:100A70000EE080E0C0F80080FFF716FD074604E0B6
:100A8000FFF712FDC01B022875D8686A8007F7D4EB
:100A90002078400760D5E8690027C00008D4E869DD
:100AA00040F08050E861E869012700F08050009034
:100AB0005C480168C90513D40168834641F480711C
:100AC0000160FFF7F1FC824606E000BFFFF7ECFC97
:100AD000A0EB0A0064284ED8DBF80000C005F5D56D
:100AE000E06801280AD008B1052813D0286A20F050
:100AF00001002862286A20F0040002E0286A40F021
:100B000001002862E06841F2883B98B1FFF7CCFC15
:100B100082460BE0286A40F004002862EEE700BF3E
:100B2000FFF7C2FCA0EB0A0159455AD8286A800792
:100B3000F6D50CE0FFF7B8FC824605E0FFF7B4FC01
:100B4000A0EB0A0159454CD8286A8007F6D41FB19A
:100B5000E86920F08050E861E06988B36968C1F312
:100B60008101022944D00228C6F8608004D0FFF732
:100B70009BFC044638E034E0FFF796FC074604E0AF
:100B8000FFF792FCC01B02282BD828688001F7D4FD
:100B9000206AB0F5803F05D16868A16820F4003074
:100BA00008436860D4E908010843696821F47411B6
:100BB00008436860C6F86090FFF776FC044606E0DC
:100BC00025E000BFFFF770FC001B022809D8286849
:100BD0008001F7D51BE000BFFFF766FC001B022871
:100BE00002D90320BDE8F88F28688001F4D40EE014
:100BF0000128F7D06868226A00F48031914204D15C
:100C0000616A00F47010884201D00120EAE70020F8
:100C1000E8E7000000100240000042428004424227
:100C20001C0000200070004010B5044600220C4952
:100C300000F05DF800220B49204600F031F808482A
:100C400009498078401CC2B28A703C2A01D1002038
:100C500088702046BDE810400022034900F022B908
:100C600000000020030000200800002010B504460A
:100C70000068016889070AD54068800707D52046C3
:100C8000FFF7D2FF2068416821F00201416003496B
:100C90004FF4003008600120607410BD140401405E
:100CA000F8B505004FF0000016460C46009006D03F
:100CB0002CB100226946284600F019F808B101203D
:100CC000F8BD287B2070E87BE070697B6170A97BB0
:100CD000A17056B100F0DBFAE070607800F0D7FA4E
:100CE0006070A07800F0D3FAA0700020F8BD2DE964
:100CF000F04791460C465FEA00084AD084B3D8F822
:100D000000004068400744D4404600F05FFB4FF4C9
:100D100061620546B0FBF2F1B0FBF2F302FB135047
:100D20003C23B0FBF3F0B5FBF2F6607002FB16500B
:100D3000B0FBF3F203FB1200A070182931D3182086
:100D4000B1FBF0F7B1FBF0F200FB1210207040464F
:100D500000F035FB411C04D0A84202D9461B02E03A
:100D600017E04FF0FF36A7EB071000EB4000C0EB99
:100D7000001005EBC0152946404600F076FB40B94F
:100D8000701C01D0711900E03146404600F059FB5B
:100D900010B10120BDE8F0873946404600F082FAE4
:100DA00000E02170B9F1000F0BD0207800F06FFA4D
:100DB0002070607800F06BFA6070A07800F067FA3D
:100DC000A0700020E6E7000070B5040003D0607C4E
:100DD000002610B105E0012070BD2674204600F009
:100DE0003DF802206074204600F08AF9042550BBCB
:100DF000204600F0AEFA30BB2068416821F00701C0
:100E00004160A06820B11448016821F0010101602F
:100E10001148001F0168A26821F46071114301604C
:100E20006068411C04D10120FFF7DAFB58B1401E75
:100E30002268C0F303419160216880B2C8602046F7
:100E400000F0A2FA08B16574C5E7E673012060738B
:100E5000A0736074002070BD306C004008B500685D
:100E60000D49884217D1FFF7B5FB0C48C16941F025
:100E70000061C161C0690A4900F000600090012072
:100E80000860002211462920FFF772FBBDE80840E8
:100E90002920FFF75FBB08BD00280040001002407A
:100EA0003C0442422DE9F8434FF0000617460D4638
:100EB000040000960FD075B1207C01280ED04FF0B1
:100EC000010984F8109002206074002269462046CF
:100ED000FFF70DFF20B10120BDE8F8830220FBE7FA
:100EE0009DF800004FF4616148439DF80110C1EB8B
:100EF000011100EB81009DF8021000EB0108287839
:100F0000E7B100F0BBF94FF4616100FB01F76878CD
:100F100000F0B4F9C0EB001007EB8007A87800F0F0
:100F2000ADF93918414501D217480144204600F077
:100F300088FA70B1042060742674CCE74FF46161C4
:100F400048436978C1EB011100EB8100A9780144A5
:100F5000E8E72068416821F00201416020680168EB
:100F600041F0020101600948016841F4003101606B
:100F700006480830016841F40031016084F811909E
:100F800026740020A8E70000805101000004014001
:100F90002DE9F0410D4604003BD0C5B3207C01286B
:100FA0003AD04FF0010884F8108002206074E8788D
:100FB00072B300F063F9E073687800F05FF9607372
:100FC000A87800F05BF9A073C2B2617BE07B00F00F
:100FD0000DFA20732870204600F0F8F94FF4616193
:100FE000B0FBF1F1002518292DD91822B1FBF2F13F
:100FF000A1EB011101EB4101C1EB011100EBC116A5
:101000003146204600F031FA0427C8B90BE000E071
:1010100004E00120BDE8F0810220FBE7E07368787E
:101020006073A878CFE7204600F0C9F9411C0AD0C8
:10103000B04208D206490144204600F002FA10B13D
:1010400067742574E5E784F8118025740020E1E7D2
:10105000805101002DE9F0410D46040024D01DB35C
:10106000207C012823D04FF0010884F81080022052
:1010700060742878EAB100F001F94FF4616100FB77
:1010800001F6687800F0FAF8C0EB001006EB800675
:10109000A87800F0F3F835182946204600F0E5F965
:1010A0000026042710BB0FE00120BDE8F0810220DC
:1010B000FBE74FF4616148436978C1EB011100EB34
:1010C0008100A9784518E7E72068416821F005010B
:1010D0004160204600F073F9411C0AD0A84208D2B2
:1010E00006490144204600F0ACF910B1677426743B
:1010F000DAE784F8118026740020D6E780510100D9
:1011000070B504000AD02068416821F008014160F0
:10111000FFF7CAF905464FF47A7608E0012070BD62
:10112000FFF7C2F9401BB04201D9032070BD20680F
:1011300040680007F4D5002070BD10B5401EB0F126
:10114000807F01D3012010BD4FF0E02460610F21AA
:10115000601700F08AFA0020A061072020610020BB
:1011600010BDFEE770B586B00024184800940194C5
:1011700002940394816941F010018161816901F059
:1011800010010491816941F020018161816901F0C0
:1011900020010491816941F00401816180690C4E54
:1011A00000F004004FF4C055049000222946304658
:1011B000FFF774F901200095CDE9010403200390A5
:1011C00069463046FFF77AF806B070BD001002405D
:1011D000000801401CB50024214801941F490094D7
:1011E0000160611E41604FF480718160FFF7ECFD8A
:1011F00008B1FFF74EF80E208DF8040032208DF86C
:1012000005008DF80640002201A91548FFF722FFCE
:1012100008B1FFF73EF803208DF8000007208DF895
:1012200001000C208DF8020017208DF80300002229
:1012300069460B48FFF7ACFE08B1FFF72AF80948EA
:101240000022014604704470847044600448FFF733
:1012500029FE002801D0FFF71CF81CBD0028004023
:101260002000002008000020FEE7FEE77047000095
:101270000148FFF7FBBC000020000020010901EB42
:10128000810100F00F0000EB4100C0B27047002167
:1012900002E00A38C0B2491C0A28FAD2090740EA1B
:1012A000116070472DE9F04104460025C07B627B48
:1012B000A37B42E0012A16D0032A14D0052A12D0BB
:1012C000072A10D0082A0ED00A2A0CD00C2A0AD0DD
:1012D000042A10D0062A0ED0092A0CD00B2A0AD0D4
:1012E000022A0DD028E01F2B0CD30C2A05D1012295
:1012F0001346401C20E01E2B04D30123521C1BE08C
:101300001C2B02D203F1010316E011D183B29E0718
:1013100010D16426B3FBF6F706FB173636B94FF447
:10132000C876B3FBF6F706FB17331BB91D2303E0A2
:101330001D2B01D1032201236D1C8D42BAD3D1B2E2
:10134000E0736173DAB2A27300F050F82073BDE865
:10135000F08170B50446FFF7A7F805464FF47A769A
:1013600006E0FFF7A1F8401BB04201D9032070BD91
:10137000206840688006F4D52068416841F010017B
:101380004160002070BD000070B5044600684168EF
:1013900021F010014160FFF787F805464FF47A7697
:1013A00007E000BFFFF780F8401BB04201D90320DF
:1013B00070BD206840688006F4D5002070BD0168CB
:1013C000086A496A89B241EA004070470068816949
:1013D0008AB2C1698BB2816989B28A4203D0C0697D
:1013E00061F31F40704743EA02407047F0B5642440
:1013F000C1EBC1030927A500072603EB011303294D
:10140000B3FBF7F100F5FA60114401440AD2401E23
:10141000B0FBF4F201EB9001B0FBF5F0891A08443F
:10142000001D08E0B0FBF4F201EB9001B0FBF5F019
:10143000891A0844801CB0FBF6F106FB1100C0B20B
:10144000F0BD70B50D4606460024FFF782FF48B98F
:101450003168280C08623168A8B248623046FFF74C
:1014600093FF00B10124204670BD70B50D460646BD
:101470000024FFF76EFF48B93168280C8861316895
:10148000A8B2C8613046FFF77FFF00B101242046B3
:1014900070BD7047FFF70EB870B594B0282168464C
:1014A000FEF792FE14210AA8FEF78EFE00250F9586
:1014B0000920012410950090119512954FF4803069
:1014C00004940694CDE901050226CDE907604FF4A6
:1014D000E01009906846FFF717FA08B172B6FEE708
:1014E0000F20CDE90A064FF48060CDE90C500221AF
:1014F0000AA80E95FFF73CF908B172B6FEE74FF463
:101500000070CDE90F400FA8FFF7BCF8002801D00C
:1015100072B6FEE714B070BD704710B5044600F017
:1015200011F8204600F052F8BDE8104000F030B845
:1015300010B54020FFF7F1FFBDE810408D20FFF708
:10154000ECBF000070B50122104DD40221462846A0
:10155000FEF7A4FF0122160331462846FEF79EFF40
:10156000022000F092F8002231462846FEF796FF4E
:10157000022000F08AF8002221462846FEF78EFF5E
:10158000BDE87040022000F080B800000008014073
:1015900070B50D4D4FF48054002221462846FEF7C9
:1015A0007DFF0122D1022846FEF778FF022000F0DD
:1015B0006CF8012221462846FEF770FFBDE8704016
:1015C000022000F062B80000000801402DE9F0415F
:1015D0001A4D064600244FF480584FF4006700224D
:1015E00039462846FEF75AFF052000F04EF826FA45
:1015F00004F0C00701D0012200E000224146284645
:10160000FEF74CFF052000F040F80122394628463D
:10161000FEF744FF052000F038F8641CE4B2082C03
:10162000DDD3002239462846FEF738FF41462846DA
:10163000BDE8F0410022FEF731BF00000008014084
:1016400070B50D460446FFF77DFFC034E0B2FFF7EA
:10165000BDFF0448405DFFF7B9FFBDE87040FFF7EC
:1016600097BF000080170008FEE70907090E002851
:1016700004DB00F1E02080F80014704700F00F0058
:1016800000F1E02080F8141D704700EBC000C1009D
:101690004FF0E02041610021816105210161016974
:1016A000C903FCD50421016170470000FEF70AFF61
:1016B000FFF7F2FEFFF756FDFFF78CFDFFF738FF4F
:1016C0001F4E0A24F51EB078B0FBF4F10020FFF79E
:1016D000B7FFB078B0FBF4F104FB11010120FFF774
:1016E000AFFF2878B0FBF4F10220FFF7A9FF2878BC
:1016F000B0FBF4F104FB11010320FFF7A1FF6878B0
:10170000B0FBF4F10420FFF79BFF6878B0FBF4F125
:1017100004FB11010520FFF793FFA878B0FBF4F15B
:101720000620FFF78DFFA878B0FBF4F104FB110150
:101730000720FFF785FF0A20FEF7AEFDC3E7000094
:1017400003000020010202030405060708090A0B32
:101750000C0D0E0F10100102020304050607080904
:101760000A0B0C0D0E0F101000000000000000000E
:101770000102030406070809000000000102030437
:101780003F065B4F666D7D077F6FBF86DBCFE6ED63
:10179000FD87FFEF00000000B817000800000020E0
:1017A0002000000028010008D817000820000020B1
:1017B000780600004401000800000000000000005E
:1017C0000000000000000000010000001000000008
:0817D000000000000024F400F9
:04000005080000ED02
:00000001FF
