:020000040800F2
:10000000C80600208901000823110008E10D00083E
:1000100021110008F3020008C713000800000000C7
:100020000000000000000000000000006113000854
:10003000F5020008000000005F13000863130008C9
:10004000A3010008A3010008A3010008A301000800
:10005000A3010008A3010008A3010008A3010008F0
:10006000A3010008A3010008A3010008A3010008E0
:10007000A3010008A3010008A3010008A3010008D0
:10008000A3010008A3010008A3010008A3010008C0
:10009000A3010008A3010008A3010008A3010008B0
:1000A000A3010008A3010008A3010008A3010008A0
:1000B000A3010008A3010008A3010008A301000890
:1000C000A3010008A3010008A3010008A301000880
:1000D000A3010008A3010008A3010008A301000870
:1000E000A3010008A3010008A301000800F002F822
:1000F00000F03AF80AA090E8000C82448344AAF188
:100100000107DA4501D100F02FF8AFF2090EBAE885
:100110000F0013F0010F18BFFB1A43F0010318473B
:100120001C1900003C190000103A24BF78C878C19F
:10013000FAD8520724BF30C830C144BF04680C60ED
:10014000704700000023002400250026103A28BF35
:1001500078C1FBD8520728BF30C148BF0B60704739
:100160001FB51FBD10B510BD00F08AF81146FFF78E
:10017000F7FF01F039F900F0A8F803B4FFF7F2FF38
:1001800003BC00F0AFF80000094880470948004769
:10019000FEE7FEE7FEE7FEE7FEE7FEE7FEE7FEE737
:1001A000FEE7FEE704480549054A064B7047000094
:1001B000C5130008ED000008C8000020C806002094
:1001C000C8020020C802002010B5203AC0F00B8001
:1001D000B1E81850203AA0E81850B1E81850A0E84B
:1001E0001850BFF4F5AF5FEA027C24BFB1E81850A5
:1001F000A0E8185044BF18C918C0BDE810405FEA15
:10020000827C24BF51F8043B40F8043B08BF704790
:10021000D20728BF31F8023B48BF11F8012B28BF95
:1002200020F8023B48BF00F8012B70474FF0000256
:1002300000B5134694469646203922BFA0E80C50DC
:10024000A0E80C50B1F12001BFF4F7AF090728BFB7
:10025000A0E80C5048BF0CC05DF804EB890028BF33
:1002600040F8042B08BF704748BF20F8022B11F05C
:10027000804F18BF00F8012B7047704770477047D8
:10028000754600F02BF8AE4605006946534620F04F
:100290000700854618B020B5FFF784FFBDE8204071
:1002A0004FF000064FF000074FF000084FF0000B32
:1002B00021F00701AC46ACE8C009ACE8C009ACE8E5
:1002C000C009ACE8C0098D46704710B50446AFF3CD
:1002D00000802046BDE81040FFF74FBF0048704740
:1002E0006400002001491820ABBEFEE72600020092
:1002F0007047FEE7704772B6FEE700002DE9F84F41
:10030000DFF8B8910024A9F1040B23460F2709F167
:10031000040AABF1040EC9E00125A5402A40AA4217
:100320007DD1674ED1F804C0ACEB0608B44532D09D
:1003300014DCBCF1030F3AD009DCBCF1000F2AD069
:10034000BCF1010F1CD0BCF1020F31D11DE0BCF19A
:10035000110F17D0BCF1120F2AD119E0B8F5881F80
:1003600019D006DCB8F5803F15D0B8F5801F1FD135
:1003700011E0B8F5001F0ED0B8F5041F18D10AE03F
:10038000CB6815E0CB681B1D12E0CB6808330FE08B
:10039000CB680C330CE08B682BB1012B4FF00803BA
:1003A00003D0456104E0042302E0056100E000237E
:1003B000FF2A01D8064601E000F104064FEA840551
:1003C00001D9A5F12005D6F8008007FA05FC28EA36
:1003D0000C0803FA05F548EA0508C6F800804D68E0
:1003E000ED0062D5374DAE6946F00106AE61AD69EC
:1003F00024F0030605F001050095334D06EB050CCE
:10040000DCF80850A607360F07FA06F825EA0805B3
:10041000DFF8B880404503D14FF0000817E044E012
:10042000DFF8AC80404502D14FF001080FE0DFF863
:10043000A480404502D14FF0020808E0DFF8988020
:10044000404502D14FF0030801E04FF0040808FADC
:1004500006F848EA0508CCF808804D68D9F800602D
:10046000ED024D4601D5164300E096432E604D68DF
:10047000DAF80060AD02554601D5164300E0964318
:100480002E604D68DBF80060AD035D4601D5164374
:1004900000E096432E604D68DEF80060ED0375467F
:1004A00001D5164300E096432E60641C0D682A4671
:1004B000E5407FF431AFBDE8F88F0000080401404B
:1004C000000011100010024000000140000801402F
:1004D000000C0140001001400014014001488068F8
:1004E000704700000000002070B5040025D094F88B
:1004F0003D00002520B984F83C50204600F050F91A
:10050000242084F83D002068016821F00101016089
:100510002068016841F4004101602068016821F40D
:100520000041016000F082FA4D4A6168914201D8B1
:100530004C4900E04C49884201D2012070BD4B4932
:100540002368B0FBF1F15E6826F03F060E435E6063
:100550006368934206D94FF4967359434FF47A7304
:10056000B1FBF3F12368491C1E6A26F03F063143B4
:1005700019626168914210D84900401EB0FBF1F247
:10058000521CC2F30B02042A01D2042022E0B0FB69
:10059000F1F0401CC0F30B001CE0A268F2B301EBC9
:1005A000C10303EB0116431EB3FBF6F35B1C43F4DC
:1005B00080431B0549D092B301EBC10202EB01114C
:1005C000401EB0FBF1F0401CC0F30B0040F4804033
:1005D00040F400402168CA694CF6FF739A43104307
:1005E000C861D4E9071001432068026822F0C00204
:1005F00011430160D4E9030101432068826848F295
:10060000FF339A4311438160D4E90501084321680F
:10061000CA6822F0FF021043C86001E00EE016E055
:100620002068016841F0010101602564202084F800
:100630003D00256384F83E50002070BD01EB41066B
:10064000431EB3FBF6F35B1CB3E70120C2E701EBEB
:100650004101401EB0FBF1F0401CC0F30B00B7E7B6
:10066000A086010080841E0000093D0040420F006A
:100670002DE9FF4F83B09A46DDE911979346044672
:10068000DDF84080FFF72AFF054694F83D0020285A
:100690007FD11923012240492046009500F038FC03
:1006A000002876D194F83C00012872D0012084F80B
:1006B0003C0020680168C90703D1016841F00101CD
:1006C00001602068016821F400610160212084F844
:1006D0003D00402084F83E0000262664C4F82480B3
:1006E000A4F82A90608D20852C48E062CDE9007541
:1006F00053465A462046049900F08AFB70B930E010
:100700002A463946204600F0A9FC58B1206C04283E
:1007100004D12068016841F400710160012007B034
:10072000BDE8F08F606A216800780861606A401C4B
:100730006062218D491E89B22185628D521E6285BB
:1007400022685369DB435B070BD469B10078106101
:10075000606A401C6062208D401E2085608D401EB6
:100760006085208D0028CBD12A463946204600F0EE
:10077000A3FB0028CAD154F83D0B016841F4007175
:100780000160202004F81E09E67766770020C6E79E
:10079000FFE70220C3E70000020010000000FFFF97
:1007A00010B586B00021009101910291039100687B
:1007B0000F4988421AD10F4CA06940F00800A0618F
:1007C000A069694600F008000490C0200090122043
:1007D0000190032003900848FFF790FDE06940F482
:1007E0000010E061E06900F40010049006B010BD54
:1007F0000054004000100240000C01400248816893
:10080000027811448160704700000020074810B54D
:10081000016841F010010160032000F05FF80F2033
:1008200000F006F800F024F8002010BD002002407F
:1008300070B50D4D04464FF47A712878B1FBF0F095
:100840000A490968B1FBF0F000F0B6FA48B9102C7B
:1008500007D200222146501E00F020F800206C60D4
:1008600070BD012070BD0000000000200C000020C1
:10087000094808B5816941F001018161816901F090
:1008800001010091C16941F08051C161C06900F06E
:100890008050009008BD000000100240F0B40E4BE4
:1008A0001B680C46C3F30223C3F10705042D00D9CE
:1008B0000425191D072901D2002300E0DB1E0126B3
:1008C00006FA05F1491E214099409E40761E1640C9
:1008D0003143F0BC00F078BD0CED00E0064900F0BB
:1008E000070208684FF6FF03184040EA0220034A57
:1008F00010430860704700000CED00E00000FA05AE
:100900002DE9F0470F46050061D0434E306800F0F6
:100910000700B84209D2306820F007003843306041
:10092000306800F00700B84251D128683B4C81077D
:1009300012D5400703D5606840F4E0606060287815
:10094000000703D5606840F4605060606068A96883
:1009500020F0F000084360602878C00728D068685D
:10096000012810D02168022810D0890700292EDA2A
:10097000616821F0030101436160FFF7AFFD80462C
:1009800041F288390DE021688903EFE78901EDE73D
:10099000FFF7A4FDA0EB0801494502D90320BDE8FB
:1009A000F0876068696800F00C00B0EB810FEFD150
:1009B000306800F00700B8420BD9306820F007001B
:1009C00038433060306800F00700B84201D00120A1
:1009D000E5E72878400705D56068E96820F4E0601D
:1009E000084360602878000706D56068296920F40C
:1009F000605040EAC100606000F028F86168084A71
:100A0000C1F30311515CC8400649086006480068FC
:100A1000FFF70EFF0020C2E7002002400010024056
:100A2000221400080C00002004000020044805499E
:100A300000684968044AC1F30221515CC84070470C
:100A40000C00002000100240321400080E4A5168C9
:100A50000E4801F00C03042B11D0082B0FD10C48C9
:100A6000C1F38343C903C05C0AD55168084AC1F386
:100A70004041921E515C054A5043B0FBF1F0704773
:100A800004494843704700000010024000127A00F9
:100A90001214000800093D002DE9F84F040070D041
:100AA0002078C04DC00749D06868C0F38100012894
:100AB00007D06868C0F38100022809D16868C003C4
:100AC00006D52868800339D560680028E7D035E06E
:100AD0006068B0F5803F0BD010B1B0F5A02F11D0F9
:100AE000286820F480302860286820F4802002E004
:100AF000286840F480302860606890B1FFF7EEFC11
:100B000006460AE0286840F480202860F0E700BF2D
:100B1000FFF7E4FC801B642873D828688003F7D5AE
:100B20000CE0FFF7DBFC064605E000BFFFF7D6FC54
:100B3000801B6428F0D828688003F7D420789A4E68
:100B400080074FF001094FF0000839D5686810F0B0
:100B50000C0F07D06868C0F38100022809D16868CB
:100B6000C00306D42868800714D52069012808D15D
:100B700010E02069B0B1C6F80090FFF7AFFC07465F
:100B800005E00AE1FFF7AAFCC01B0228C4D82868C8
:100B90008007F7D52868616920F0F80040EAC100B5
:100BA00028600DE0C6F80080FFF798FC074604E0D7
:100BB000FFF794FCC01B022823D828688007F7D4CD
:100BC000207800072CD57948A169D9B1C0F80090E8
:100BD000FFF784FC074604E0FFF780FCC01B0228F7
:100BE0000FD8686A8007F7D571484FF4FA5100684A
:100BF000B0FBF1F0009000BF0098411E0091FAD2C6
:100C00000EE080E0C0F80080FFF768FC074604E0D3
:100C1000FFF764FCC01B022875D8686A8007F7D408
:100C20002078400760D5E8690027C00008D4E8694B
:100C300040F08050E861E869012700F080500090A2
:100C40005C480168C90513D40168834641F480718A
:100C50000160FFF743FC824606E000BFFFF73EFC61
:100C6000A0EB0A0064284ED8DBF80000C005F5D5DB
:100C7000E06801280AD008B1052813D0286A20F0BE
:100C800001002862286A20F0040002E0286A40F08F
:100C900001002862E06841F2883B98B1FFF71EFC32
:100CA00082460BE0286A40F004002862EEE700BFAD
:100CB000FFF714FCA0EB0A0159455AD8286A8007AF
:100CC000F6D50CE0FFF70AFC824605E0FFF706FCCC
:100CD000A0EB0A0159454CD8286A8007F6D41FB109
:100CE000E86920F08050E861E06988B36968C1F381
:100CF0008101022944D00228C6F8608004D0FFF7A1
:100D0000EDFB044638E034E0FFF7E8FB074604E07B
:100D1000FFF7E4FBC01B02282BD828688001F7D41A
:100D2000206AB0F5803F05D16868A16820F40030E2
:100D300008436860D4E908010843696821F4741124
:100D400008436860C6F86090FFF7C8FB044606E0F9
:100D500025E000BFFFF7C2FB001B022809D8286866
:100D60008001F7D51BE000BFFFF7B8FB001B02288E
:100D700002D90320BDE8F88F28688001F4D40EE082
:100D80000128F7D06868226A00F48031914204D1CA
:100D9000616A00F47010884201D00120EAE7002067
:100DA000E8E7000000100240000042428004424296
:100DB0000C0000200070004010B5401EB0F1807F94
:100DC00001D3012010BD4FF0E02460610F216017B6
:100DD00000F0FAFA0020A06107202061002010BD79
:100DE000FEE701684A69D24352050FD46FF480626E
:100DF0004A61002140F8301F20224273817302694A
:100E000042F0040202610173012070470020704724
:100E10002DE9F843044600680D46DDE908970168AE
:100E20009846164641F4807101604B4600224FF00F
:100E300001112046009700F06BF848B12068006867
:100E4000C00502D54FF4007020640320BDE8F8838C
:100E5000216805F0FE0008613B464A4615492046D8
:100E600000F09EF888B920684169806900903A4690
:100E70004946204600F0F2F848B1206C042804D11D
:100E80002068016841F4007101600120DEE7F5B2DD
:100E9000B8F1010F09D02168300A08613A46494685
:100EA000204600F0DBF80028E7D12068056100202B
:100EB000CCE700000200010070B516460D4604465E
:100EC0001EE02046FFF78DFF08B1012070BD681CB1
:100ED00016D0FFF703FB801BA84200D885B9206815
:100EE0004069C04340070BD5002044F8300F202153
:100EF0006173A073216941F0200121612073E4E74F
:100F000020684069C0434007DBD4002070BD00006A
:100F10002DE9F047984617460D460446C1F30746AB
:100F2000DDF820902AE000BFB8F1FF3F26D0FFF7A0
:100F3000D5FAA0EB0901414502D8B8F1000F1DD147
:100F40002068012E16D0806925EA00000004000CFC
:100F500012D00020B84211D1002044F8300F2021D7
:100F60006173A073216941F0200121612073012088
:100F7000BDE8F0874069E7E70120EBE72068012E34
:100F80000AD0806925EA00000004000C06D0002089
:100F9000B842C9D00020EBE74069F3E70120F7E74A
:100FA0002DE9F047984616460D4604464FF00009D5
:100FB0004FF0200AC1F3074723E020684069C0438F
:100FC000400515D42068016841F400710160216872
:100FD0006FF480604861C4F8309084F83DA084F8D4
:100FE0003E90216C41F00401216484F83C9021E0A2
:100FF000701C06D0FFF772FAA0EB0800B04203D8CD
:1010000016B1012F1FD021E02068012F15D0806973
:1010100025EA00000004000C18D000BF44F8309FFF
:1010200084F80DA084F80E90216941F0200121611F
:1010300084F80C900120BDE8F087406925EA0000A3
:101040000004000CEAD12068406901E02068806952
:1010500025EA00000004000CAFD1ECE770B516469D
:101060000D4604461EE02046FFF7BBFE08B10120F6
:1010700070BD681C16D0FFF731FA801BA84200D85B
:1010800085B920684069C04300060BD5002044F8AC
:10109000300F20216173A073216941F0200121618B
:1010A0002073E4E720684069C0430006DBD40020D9
:1010B00070BD0000094808B5816941F020018161D7
:1010C000816901F020010091816941F0080181618D
:1010D000806900F00800009008BD00000010024088
:1010E0000D4810B50B4901600C49416000214FF4D7
:1010F00080428160C0E9031241618161C161016286
:10110000FFF7F2F9002803D0BDE81040FFF7F3B86D
:1011100010BD00000054004010000020A086010017
:10112000FEE7FEE72DE9F74F0446891CC8B21021FF
:1011300088B001EB101100F00F00CDE90601002688
:101140000DF10D000590401CDFF8B0B037464FF4AC
:101150007A7A4FF001080DF10F09049004F1B00004
:101160008DF80C0007988DF80D00069803A9CDE9BD
:1011700000188DF80E00554601230022CDF808A076
:1011800078211F48FFF774FA0599CDE9001801236B
:101190000022029578211A48FFF76AFA0499CDE9EE
:1011A000001801230022029578211548FFF760FA04
:1011B00000250A98012306EB001101EB0B00A0F5B6
:1011C0008050402290F8000ECDE900988DF80F0075
:1011D00078210B48CDF808A0FFF74AFA761C6D1C61
:1011E000EDB2F6B2082DE4D3641C7F1CFFB2E4B26A
:1011F000022FB3D30BB0BDE8F08F00003A14000803
:10120000100000202DE9F04186B021A00DF110085A
:1012100000680490B0208DF80C004FF47A7501241A
:101220000DF1110703A88DE8310001230022782178
:101230001848FFF71DFACDF800800123002278211D
:101240001448CDE90145FFF713FA00970123002266
:1012500078211048CDE90145FFF70AFA00260097EA
:101260000123402278210B48CDE90145FFF700FA20
:10127000761CF6B2842EF2D39DF80C00401CC0B24E
:101280008DF80C00B828CDD306B0BDE8F081000081
:1012900010000000100000202DE9F0471E46002439
:1012A000814615464FF00A088F190FE0B5FBF8F19B
:1012B00008FB1152381BC0000838C1B24846303212
:1012C000FFF730FFB5FBF8F5641CE4B2B442EDD390
:1012D000BDE8F0871FB508A04FF47A72006803904C
:1012E000032103A88DE80700012300227821034889
:1012F000FFF7BEF91FBD0000AE8D100010000020EA
:1013000000B58BB01C2209A103A8FEF75DFF4FF4C6
:101310007A721C2103A88DE807000123002278219E
:101320000948FFF7A5F90BB000BD0000AE0010D5CD
:1013300080A83FD300B0408D14A1C8DA1281FFD934
:10134000F1DB302000A4A6AF1000002010B5FFF79D
:10135000C1FFFFF757FFBDE81040FFF7D1BF70474F
:101360007047FFF74BBA30B58FB028216846FEF7BB
:101370005DFF14210AA8FEF759FF01210804CDE9F9
:1013800000100024029402250491CDE907504FF487
:10139000E01009906846FFF77FFB08B172B6FEE7E0
:1013A0000F20CDE90A054FF48060CDE90C40022101
:1013B0000AA80E94FFF7A4FA002801D072B6FEE73F
:1013C0000FB030BD7047FEE70907090E002804DBA7
:1013D00000F1E02080F80014704700F00F0000F1E9
:1013E000E02080F8141D7047FFF710FAFFF7BBFFED
:1013F000FFF760FEFFF774FEFFF7A8FFFFF702FF9D
:10140000042340F2D24201210020FFF745FFFEE70E
:10141000010202030405060708090A0B0C0D0E0F52
:101420001010000000000000000001020304060785
:101430000809000000000102030400000000000091
:1014400000000000000000000000000038FCFC3834
:1014500000000000000D0D000000000E1E00001E28
:101460000E00000000000000000020F8F820F8F84E
:101470002000020F0F020F0F0200387C444747CCB8
:1014800098000306041C1C07030030300080C06075
:1014900030000C060301000C0C0080D87CE4BCD8A2
:1014A0004000070F0808070F080000101E0E00007C
:1014B000000000000000000000000000F0F80C0434
:1014C0000000000003070C0800000000040CF8F006
:1014D00000000000080C0703000080A0E0C0C0E08E
:1014E000A0800002030101030200008080E0E08090
:1014F0008000000000030300000000000000000066
:1015000000000000101E0E0000008080808080809F
:10151000800000000000000000000000000000004B
:1015200000000000000C0C00000000000080C06003
:1015300030000C06030100000000F8FC04C424FC89
:10154000F800070F0908080F0700001018FCFC003E
:1015500000000008080F0F080800080C84C4643C51
:1015600018000E0F0908080C0C00080C444444FC39
:10157000B800040C0808080F0700C0E0B098FCFC95
:101580008000000000080F0F08007C7C4444C4C4A5
:101590008400040C0808080F0700F0F84C4444C00D
:1015A0008000070F0808080F07000C0C0484C47C97
:1015B0003C0000000F0F00000000B8FC444444FC55
:1015C000B800070F0808080F0700387C444444FCA3
:1015D000F800000808080C07030000000030300085
:1015E000000000000006060000000000003030008F
:1015F00000000000080E060000000080C0603018E7
:10160000080000000103060C080040404040404034
:10161000400002020202020202000008183060C00C
:10162000800000080C0603010000181C04C4E43C00
:1016300018000000000D0D000000F0F808C8C8F800
:10164000F000070F080B0B0B0100E0F0988C98F0EE
:10165000E0000F0F0000000F0F0004FCFC4444FCEE
:10166000B800080F0F08080F0700F0F80C04040C6E
:10167000180003070C08080C060004FCFC040CF816
:10168000F000080F0F080C07030004FCFC44E40CF6
:101690001C00080F0F08080C0E0004FCFC44E40CAE
:1016A0001C00080F0F0800000000F0F80C84848C68
:1016B000980003070C0808070F00FCFC404040FCA2
:1016C000FC000F0F0000000F0F00000004FCFC04E2
:1016D00000000000080F0F08000000000004FCFCE0
:1016E0000400070F08080F07000004FCFCC0F03CD2
:1016F0000C00080F0F00010F0E0004FCFC0400009A
:101700000000080F0F08080C0E00FCFC387038FCB5
:10171000FC000F0F0000000F0F00FCFC3870E0FC15
:10172000FC000F0F0000000F0F00F0F80C040CF885
:10173000F00003070C080C07030004FCFC44447C85
:101740003800080F0F0800000000F8FC040404FC37
:10175000F800070F080E3C3F270004FCFC44C4FCC3
:101760003800080F0F00000F0F00183C6444C49CA1
:101770001800060E0808080F0700001C0CFCFC0CE3
:101780001C000000080F0F080000FCFC000000FC1B
:10179000FC00070F0808080F0700FCFC000000FC15
:1017A000FC000103060C06030100FCFC008000FCA9
:1017B000FC00030F0E030E0F03000C3CF0C0F03CC6
:1017C0000C000C0F0300030F0C00003C7CC0C07C1D
:1017D0003C000000080F0F0800001C0C84C4643C8F
:1017E0001C000E0F0908080C0E000000FCFC04048D
:1017F000000000000F0F080800003870E0C08000F3
:1018000000000000000103070E0000000404FCFCBF
:101810000000000008080F0F0000080C0603060C6B
:1018200008000000000000000000000000000000B0
:10183000000020202020202020200000030704009A
:101840000000000000000000000000A0A0A0E0C018
:101850000000070F0808070F080004FCFC2060C008
:101860008000080F0708080F0700C0E02020206054
:101870004000070F0808080C040080C06024FCFC2E
:101880000000070F0808070F0800C0E0A0A0A0E0B4
:10189000C000070F0808080C040040F8FC440C18AE
:1018A0000000080F0F0800000000C0E02020C0E08A
:1018B0002000276F48487F3F000004FCFC4020E0E8
:1018C000C000080F0F00000F0F00000020ECEC001C
:1018D00000000000080F0F0800000000000020ECCE
:1018E000EC0000307040407F3F0004FCFC80C06092
:1018F0002000080F0F01030E0C00000004FCFC0088
:1019000000000000080F0F080000E0E060C060E089
:10191000C0000F0F000F000F0F0020E0C02020E0DC
:10192000C000000F0F00000F0F00C0E0202020E0DB
:10193000C000070F0808080F070020E0C02020E0C3
:10194000C000407F7F48080F0700C0E02020C0E0B3
:101950002000070F08487F7F400020E0C060206023
:10196000C000080F0F080000000040E0A020206029
:101970004000040C09090B0E04002020F8FC202074
:1019800000000000070F080C0400E0E00000E0E0A9
:101990000000070F0808070F080000E0E00000E063
:1019A000E0000003070C0C070300E0E0000000E08B
:1019B000E000070F0C070C0F07002060C080C0601C
:1019C0002000080C0703070C0800E0E0000000E01E
:1019D000E000474F4848683F1F00606020A0E0607B
:1019E00020000C0E0B09080C0C00004040F8BC0451
:1019F0000400000000070F080800000000BCBC0045
:101A000000000000000F0F000000000404BCF840BC
:101A100040000008080F07000000080C040C080C28
:101A20000400000000000000000080C0603060C0C2
:101A30008000070704040407070000005C1A000880
:101A40000000002010000000280100086C1A0008A7
:101A500010000020B806000044010008010000004A
:0C1A600010000000000000000024F40052
:04000005080000ED02
:00000001FF
