:020000040800F2
:10000000B004002001010008EF130008570F00089A
:10001000ED13000899010008811500080000000098
:10002000000000000000000000000000F3130008C2
:100030009B01000800000000F1130008F513000800
:100040001B0100081B0100081B0100081B01000820
:100050001B0100081B0100081B0100081B01000810
:100060001B0100081B0100081B0100081B01000800
:100070001B0100081B0100081B0100081B010008F0
:100080001B0100081B0100081B0100081B010008E0
:100090001B0100081B0100081B0100081B010008D0
:1000A0001B0100081B0100081B0100081B010008C0
:1000B0001B0100081B0100081B0100081B010008B0
:1000C0001B0100081B0100081B0100081B010008A0
:1000D0001B0100081B0100081B0100081B01000890
:1000E0001B0100081B0100081B010008DFF80CD0F1
:1000F00000F040F80048004741190008B004002013
:100100000648804706480047FEE7FEE7FEE7FEE7B1
:10011000FEE7FEE7FEE7FEE7FEE7FEE74F14000816
:10012000ED000008D2B201E000F8012B491EFBD21D
:1001300070470022F6E710B513460A4604461946F2
:10014000FFF7F0FF204610BD30B50B4601460020FA
:100150002022012409E021FA02F59D4205D303FA89
:1001600002F5491B04FA02F52844151EA2F101020A
:10017000F1DC30BD064C074D06E0E06840F00103BD
:1001800094E8070098471034AC42F6D3FFF7B2FF6B
:10019000B8190008D8190008FEE7704772B6FEE7E4
:1001A00070B5044600F0FEF80546601C02D0044815
:1001B0000078044400F0F6F8401BA042FAD370BD6A
:1001C000000000202DE9F84FDFF8B8910024A9F1D4
:1001D000040B23460F2709F1040AABF1040EC9E012
:1001E0000125A5402A40AA427DD1674ED1F804C01E
:1001F000ACEB0608B44532D014DCBCF1030F3AD0A6
:1002000009DCBCF1000F2AD0BCF1010F1CD0BCF1FD
:10021000020F31D11DE0BCF1110F17D0BCF1120F4C
:100220002AD119E0B8F5881F19D006DCB8F5803F4F
:1002300015D0B8F5801F1FD111E0B8F5001F0ED002
:10024000B8F5041F18D10AE0CB6815E0CB681B1D78
:1002500012E0CB6808330FE0CB680C330CE08B68FE
:100260002BB1012B4FF0080303D0456104E00423B8
:1002700002E0056100E00023FF2A01D8064601E004
:1002800000F104064FEA840501D9A5F12005D6F84E
:10029000008007FA05FC28EA0C0803FA05F548EA8D
:1002A0000508C6F800804D68ED0062D5374DAE698F
:1002B00046F00106AE61AD6924F0030605F00105C4
:1002C0000095334D06EB050CDCF80850A607360FF9
:1002D00007FA06F825EA0805DFF8B880404503D19B
:1002E0004FF0000817E044E0DFF8AC80404502D151
:1002F0004FF001080FE0DFF8A480404502D14FF035
:10030000020808E0DFF89880404502D14FF003086A
:1003100001E04FF0040808FA06F848EA0508CCF8AE
:1003200008804D68D9F80060ED024D4601D51643AE
:1003300000E096432E604D68DAF80060AD02554645
:1003400001D5164300E096432E604D68DBF800604F
:10035000AD035D4601D5164300E096432E604D681F
:10036000DEF80060ED03754601D5164300E09643C4
:100370002E60641C0D682A46E5407FF431AFBDE86D
:10038000F88F000008040140000011100010024026
:100390000000014000080140000C01400010014035
:1003A00000140140014880687047000000000020F0
:1003B00070B5040025D094F83D00002520B984F8DC
:1003C0003C50204600F0E0F9242084F83D002068ED
:1003D000016821F0010101602068016841F40041D9
:1003E00001602068016821F40041016000F012FB07
:1003F0004D4A6168914201D84C4900E04C4988421D
:1004000001D2012070BD4B492368B0FBF1F15E6859
:1004100026F03F060E435E606368934206D94FF4B0
:10042000967359434FF47A73B1FBF3F12368491C77
:100430001E6A26F03F06314319626168914210D866
:100440004900401EB0FBF1F2521CC2F30B02042A19
:1004500001D2042022E0B0FBF1F0401CC0F30B00FD
:100460001CE0A268F2B301EBC10303EB0116431ECB
:10047000B3FBF6F35B1C43F480431B0549D092B3F6
:1004800001EBC10202EB0111401EB0FBF1F0401C78
:10049000C0F30B0040F4804040F400402168CA697A
:1004A0004CF6FF739A431043C861D4E90710014327
:1004B0002068026822F0C00211430160D4E9030100
:1004C00001432068826848F2FF339A4311438160F8
:1004D000D4E9050108432168CA6822F0FF021043ED
:1004E000C86001E00EE016E02068016841F00101FB
:1004F00001602564202084F83D00256384F83E5087
:10050000002070BD01EB4106431EB3FBF6F35B1CFC
:10051000B3E70120C2E701EB4101401EB0FBF1F05F
:10052000401CC0F30B00B7E7A086010080841E00CA
:1005300000093D0040420F002DE9FF4F83B0002528
:10054000DDE910799A4693460446DDF84880009527
:10055000FFF728FF064694F83D0020287CD1192398
:10056000012285492046009600F08CFD0028F5D137
:1005700094F83C0001286FD0012084F83C002068EA
:100580000168C90703D1016841F0010101602068D9
:10059000016821F400610160222084F83D004020C0
:1005A00084F83E0025646762A4F82A90608D208557
:1005B0007248E062CDE9008653465A4620460499C7
:1005C00000F0E2FC00287DD1208DDFF8B4912027D7
:1005D00068B1012814D00228206801681ED041F4B7
:1005E000806101602068416980690090B6E0206800
:1005F000416981690091016841F400710160ADE0D9
:100600002068016821F48061016072B62068416948
:1006100081690091016841F400710AE041F40061D0
:10062000016072B62068416981690091016821F416
:100630008061016062B691E0032868D801280CD07F
:10064000022843464FF000024946204600960FD04C
:1006500000F018FDB0BB10E08BE03246414620466A
:1006600000F0B6FD70BB20680069616A08706CE03C
:1006700000F008FD30BB72B634E02068016821F458
:100680008061016072B620680069616A0870606A02
:10069000401C6062208D401E2085608D401E60855C
:1006A000384846F2A8110068B0FBF1F0C0EBC0007A
:1006B00000EB80000090401E009008D02068406948
:1006C000C04300E029E040070CD50098F3E744F868
:1006D000305F6773A573206940F02000206162B627
:1006E00025731AE02068016841F4007101602068F8
:1006F0000069616A0870606A401C6062218D491E51
:100700002185618D491E618562B621681BE03246F4
:100710004146204600F05CFD18B1012007B0BDE85D
:10072000F08F20680069616A0870606A401C60622E
:10073000218D491E2185618D491E618521684A6987
:10074000D24352070AD409690170606A401C606292
:10075000208D401E2085608D401E6085208D0028E4
:100760007FF46AAF84F83D7084F83E5084F83C50C2
:10077000D4E70220D2E70000020010000000FFFFD3
:10078000040001000C00002010B586B0002100918B
:1007900001910291039100680F4988421AD10F4CD0
:1007A000A06940F00800A061A069694600F0080057
:1007B0000490C0200090122001900320039008486C
:1007C000FFF700FDE06940F40010E061E06900F42B
:1007D0000010049006B010BD00540040001002400C
:1007E000000C014002488168027811448160704722
:1007F00000000020074810B5016841F010010160B9
:10080000032000F05FF80F2000F006F800F024F855
:10081000002010BD0020024070B50D4D04464FF47D
:100820007A712878B1FBF0F00A490968B1FBF0F061
:1008300000F0C6FA48B9102C07D200222146501EFB
:1008400000F020F800206C6070BD012070BD000039
:10085000000000200C000020094808B5816941F023
:1008600001018161816901F001010091C16941F0DB
:100870008051C161C06900F08050009008BD000047
:1008800000100240F0B40E4B1B680C46C3F3022369
:10089000C3F10705042D00D90425191D072901D22C
:1008A000002300E0DB1E012606FA05F1491E214067
:1008B00099409E40761E16403143F0BC00F072BE57
:1008C0000CED00E0064900F0070208684FF6FF0350
:1008D000184040EA0220034A1043086070470000B5
:1008E0000CED00E00000FA052DE9F0470F46050089
:1008F00061D0434E306800F00700B84209D230683A
:1009000020F0070038433060306800F00700B8423C
:1009100051D128683B4C810712D5400703D5606848
:1009200040F4E06060602878000703D5606840F418
:10093000605060606068A96820F0F0000843606063
:100940002878C00728D06868012810D021680228BC
:1009500010D0890700292EDA616821F003010143D4
:100960006160FFF71FFD804641F288390DE0216884
:100970008903EFE78901EDE7FFF714FDA0EB08011C
:10098000494502D90320BDE8F0876068696800F036
:100990000C00B0EB810FEFD1306800F00700B842D7
:1009A0000BD9306820F0070038433060306800F021
:1009B0000700B84201D00120E5E72878400705D5B7
:1009C0006068E96820F4E060084360602878000708
:1009D00006D56068296920F4605040EAC100606073
:1009E00000F038F86168084AC1F30311515CC8404F
:1009F0000649086006480068FFF70EFF0020C2E7BE
:100A000000200240001002409E1900080C00002047
:100A1000040000200448054900684968044AC1F3FD
:100A20000221515CC84070470C00002000100240B9
:100A3000AE1900080448054900684968044AC1F332
:100A4000C221515CC84070470C00002000100240D9
:100A5000AE1900080E4A51680E4801F00C03042B31
:100A600011D0082B0FD10C48C1F38343C903C05CDC
:100A70000AD55168084AC1F34041921E515C054AAB
:100A80005043B0FBF1F07047044948437047000001
:100A90000010024000127A008E19000800093D0083
:100AA0002DE9F84F040070D02078C04DC00749D020
:100AB0006868C0F38100012807D06868C0F381002E
:100AC000022809D16868C00306D52868800339D593
:100AD00060680028E7D035E06068B0F5803F0BD053
:100AE00010B1B0F5A02F11D0286820F48030286014
:100AF000286820F4802002E0286840F480302860D4
:100B0000606890B1FFF74EFC06460AE0286840F4A2
:100B100080202860F0E700BFFFF744FC801B6428BA
:100B200073D828688003F7D50CE0FFF73BFC064636
:100B300005E000BFFFF736FC801B6428F0D828686A
:100B40008003F7D420789A4E80074FF001094FF0C8
:100B5000000839D5686810F00C0F07D06868C0F33A
:100B60008100022809D16868C00306D4286880077C
:100B700014D52069012808D110E02069B0B1C6F869
:100B80000090FFF70FFC074605E00AE1FFF70AFCBB
:100B9000C01B0228C4D828688007F7D52868616977
:100BA00020F0F80040EAC10028600DE0C6F800809F
:100BB000FFF7F8FB074604E0FFF7F4FBC01B022831
:100BC00023D828688007F7D4207800072CD57948E7
:100BD000A169D9B1C0F80090FFF7E4FB074604E033
:100BE000FFF7E0FBC01B02280FD8686A8007F7D523
:100BF00071484FF4FA510068B0FBF1F0009000BF6B
:100C00000098411E0091FAD20EE080E0C0F800800A
:100C1000FFF7C8FB074604E0FFF7C4FBC01B022830
:100C200075D8686A8007F7D42078400760D5E869EE
:100C30000027C00008D4E86940F08050E861E86906
:100C4000012700F0805000905C480168C90513D46A
:100C50000168834641F480710160FFF7A3FB82467F
:100C600006E000BFFFF79EFBA0EB0A0064284ED809
:100C7000DBF80000C005F5D5E06801280AD008B10E
:100C8000052813D0286A20F001002862286A20F085
:100C9000040002E0286A40F001002862E06841F2A6
:100CA000883B98B1FFF77EFB82460BE0286A40F054
:100CB00004002862EEE700BFFFF774FBA0EB0A0117
:100CC00059455AD8286A8007F6D50CE0FFF76AFB29
:100CD000824605E0FFF766FBA0EB0A0159454CD8B8
:100CE000286A8007F6D41FB1E86920F08050E861D7
:100CF000E06988B36968C1F38101022944D0022800
:100D0000C6F8608004D0FFF74DFB044638E034E0BD
:100D1000FFF748FB074604E0FFF744FBC01B02282F
:100D20002BD828688001F7D4206AB0F5803F05D120
:100D30006868A16820F4003008436860D4E90801BD
:100D40000843696821F4741108436860C6F860902C
:100D5000FFF728FB044606E025E000BFFFF722FB73
:100D6000001B022809D828688001F7D51BE000BFC6
:100D7000FFF718FB001B022802D90320BDE8F88FFB
:100D800028688001F4D40EE00128F7D06868226A50
:100D900000F48031914204D1616A00F470108842FD
:100DA00001D00120EAE70020E8E70000001002403F
:100DB00000004242800442420C00002000700040CB
:100DC00010B5401EB0F1807F01D3012010BD4FF05F
:100DD000E02460610F21601700F0E4FB0020A061B7
:100DE00007202061002010BD70B5040004D094F8E5
:100DF0004100002510B106E0012070BD84F840508C
:100E0000204600F023F8242084F841002068C168BF
:100E100021F40051C160204600F01AFB20680169EE
:100E200021F4904101612068416921F02A0141616A
:100E30002068C16841F40051C1606564202084F8D5
:100E4000410084F842006563002070BD30B585B074
:100E50000024009401940294039400681449884289
:100E600024D11448816941F480418161816901F490
:100E700080410491816941F00401816180690E4DD6
:100E800000F0040004904FF40070009002200190E4
:100E90000320039069462846FFF794F92815CDE909
:100EA0000004694628460294FFF78CF905B030BD6E
:100EB0000038014000100240000801402DE9F843CD
:100EC000044690F841001F4616460D46202802D0E1
:100ED0000220BDE8F8837DB176B100206064212056
:100EE00084F84100FFF75EFAA6848046E684A06895
:100EF000B0F5805F02D003E00120EAE7206910B17D
:100F00002E4600250EE000260CE08021204600F051
:100F1000FBFAA0B9AEB116F8010B21684860E08C6D
:100F2000401EE084E08C43464FF00002009700280A
:100F3000EBD14FF04001204600F0E6FA30B103203B
:100F4000C7E735F8020BC0F30800E6E7202084F875
:100F500041000020BDE7FEE701684A69D24352051F
:100F60000FD46FF480624A61002140F8301F2022C4
:100F700042738173026942F004020261017301202D
:100F800070470020704700002DE9F84F04460068C4
:100F900089460B9D01689846174641F480610160BF
:100FA0002068016841F48071016000954FF0011BD9
:100FB0000022594620460A9B00F064F84FF4007A5C
:100FC00040B120680068C00501D5C4F840A00320E6
:100FD000BDE8F88F216809F0FE0008612B4628491A
:100FE00020460A9A00F096F8F0BB206841698069B3
:100FF00000902A4620460A9900F022F940B1206C60
:1010000004283AD12068016841F40071016034E09D
:10101000FEB2B8F1010F09D02168380A08612A46EA
:1010200020460A9900F00CF90028E8D120680661F2
:101030002A4620460A9900F003F90028DFD12068EB
:10104000016841F4807101600095002259462046F4
:101050000A9B00F017F80028B3D1216809F0FF00BF
:1010600040F00100086100E007E02B4604492046FB
:101070000A9A00F04FF80028AAD00120A8E7000043
:10108000020001002DE9F047984617460D46044638
:10109000C1F30746DDF820902AE000BFB8F1FF3F1A
:1010A00026D0FFF77FF9A0EB0901414502D8B8F13E
:1010B000000F1DD12068012E16D0806925EA00009E
:1010C0000004000C12D00020B84211D1002044F8D6
:1010D000300F20216173A073216941F0200121614B
:1010E00020730120BDE8F0874069E7E70120EBE7C6
:1010F0002068012E0AD0806925EA00000004000C57
:1011000006D00020B842C9D00020EBE74069F3E7E1
:101110000120F7E72DE9F047984616460D460446AC
:101120004FF000094FF0200AC1F3074723E0206881
:101130004069C043400515D42068016841F400713E
:10114000016021686FF480604861C4F8309084F8D1
:101150003DA084F83E90216C41F00401216484F8A4
:101160003C9021E0701C06D0FFF71CF9A0EB0800B2
:10117000B04203D816B1012F1FD021E02068012F03
:1011800015D0806925EA00000004000C18D000BFCB
:1011900044F8309F84F80DA084F80E90216941F046
:1011A0002001216184F80C900120BDE8F08740699E
:1011B00025EA00000004000CEAD12068406901E043
:1011C0002068806925EA00000004000CAFD1ECE73C
:1011D0002DE9F041002590460E460446202728E0E0
:1011E0004069C043C0060CD454F8301B6FF01000A7
:1011F000486144F810596777A577206A20622577FF
:1012000014E0FFF7CFF8A0EB0800B04200D886B991
:1012100020684069C04340060BD544F8305F6773CF
:10122000A573206940F02000206125730120BDE8EE
:10123000F08120684169C9434906D1D40020F6E70E
:1012400070B516460D4604461EE02046FFF784FEA4
:1012500008B1012070BD681C16D0FFF7A3F8801BF1
:10126000A84200D885B920684069C04300060BD564
:10127000002044F8300F20216173A073216941F0F0
:10128000200121612073E4E720684069C043000623
:10129000DBD4002070BD00000EB564238DE80E0085
:1012A000024601239E210248FFF746F90EBD0000C9
:1012B0001400002038B50546002402226946204665
:1012C000FFF7EAFF00282ED19DF8001028700A06CB
:1012D0004FF0010003D52870C843401CC1B2C807B5
:1012E00000D00124880700D5A41C480700D5241D80
:1012F000080700D50834C80600D51034880600D584
:101300002034480600D5403405F8014F9DF801000F
:101310000021820600D50C21420600D519310006B5
:1013200000D53231697038BD114808B5816941F086
:1013300010018161816901F010010091816941F022
:1013400020018161816901F020010091816941F0F2
:1013500004018161816901F004010091816941F01A
:1013600008018161806900F00800009008BD00005C
:10137000001002400D4810B50B4901600C49416056
:1013800000214FF480428160C0E903124161816114
:10139000C1610162FFF70CF8002803D0BDE81040DE
:1013A000FEF7FCBE10BD00000054004014000020F9
:1013B000A08601000C4810B50A4901604FF4E131E4
:1013C0004160002181600C22C160C0E9041281618A
:1013D000C161FFF709FD002803D0BDE81040FEF70A
:1013E000DDBE10BD0038014068000020FEE7FEE7CA
:1013F00070477047FFF7F6B930B58FB028216846BF
:10140000FEF797FE14210AA8FEF793FE01210804B7
:1014100000240491CDE90010CDE9080402940225CE
:1014200007956846FFF73CFB08B172B6FEE70F2050
:101430000A90CDE90B540D9400210AA80E94FFF7F1
:1014400053FA002801D072B6FEE70FB030BD7047E6
:1014500070B5044600680169E26821F44051114307
:1014600001612169A0680843616908432168CA686D
:1014700041F20C639A430243CA6020684169A26941
:1014800021F44071114341611E492068884202D114
:10149000FFF7D0FA01E0FFF7BDFA00EBC00101EB66
:1014A0000012606864218000B2FBF0F3B3FBF1F33B
:1014B0006FF018067343B2FBF0F5B2FBF0F605EBE4
:1014C0008305322303EB0515B5FBF1F5B6FBF1F609
:1014D00005F0F00505EB0615B2FBF0F6B2FBF0F0F7
:1014E000B0FBF1F06FF01802504306EB800003EB05
:1014F0000010B0FBF1F0216800F00F002844886074
:1015000070BD0000003801402DE9F04198461746B3
:101510000E460446069D27E0681C25D02DB1FEF737
:1015200041FFA0EB0800A8421ED920680C3050E80B
:10153000001F21F4D07140E80012002AF5D1206884
:10154000143050E8001F21F0010140E80012002A89
:10155000F5D1202084F8410084F84200002084F86E
:1015600040000320BDE8F0812068006836EA0000F2
:1015700004D00020B842CFD00020F3E70120F9E7E3
:10158000FEE700000FB4054B10B503A9044A02980A
:1015900000F028F810BC5DF814FB000029190008C1
:1015A000100000200907090E002804DB00F1E020EC
:1015B00080F80014704700F00F0000F1E02080F880
:1015C000141D704702E008C8121F08C1002AFAD192
:1015D00070477047002001E001C1121F002AFBD1B3
:1015E000704700002DE9FF4F8BB088460546002666
:1015F00006E025280BD0DDE90D1290476D1C761C06
:1016000028780028F5D10FB03046BDE8F08F0024CF
:10161000A146A2460122AE4900E0044315F8013F6D
:10162000203B02FA03F00842F7D128782A2810D08C
:101630006FF02F022878A0F13001092915D809EBA5
:10164000890102EB410144F0020400EB01096D1C29
:10165000F0E758F8041B5FEA010903D544F400548D
:10166000C9F1000944F002046D1C28782E2817D116
:1016700015F8010F44F004042A280ED06FF02F0251
:101680002878A0F1300109290AD80AEB8A0102EB77
:10169000410100EB010A6D1CF2E758F804AB6D1C28
:1016A00028786C280FD006DC4C2817D068280DD07D
:1016B0006A2814D104E0742810D07A280FD10DE0E4
:1016C00044F400140AE044F4801401E044F44014AB
:1016D0006978814202D104F580146D1C6D1C287854
:1016E000692865D006DC00288DD0632827D06428BF
:1016F00006D15DE06E2808D073282AD0752877D0EF
:10170000DDE90D129047761CE0E0C4F30250022898
:1017100009D003280DD0D8F8001004280DD00E6091
:1017200008F10408D2E0D8F80010F217C1E900620D
:10173000F6E7D8F800100E80F2E70E70F0E718F820
:10174000041B8DF8001000208DF80100EB460120ED
:1017500003E058F804BB4FF0FF3061074FF000077B
:1017600001D40AE07F1C57450DDA8742FADB1BF8EB
:1017700007100029F6D106E07F1C8742FCDB1BF82E
:1017800007100029F8D1DDE90D23A9EB07008146F8
:10179000214600F0B1F83044C61904E0DDE90D122D
:1017A0001BF8010B90477F1EF8D22146484688E07F
:1017B00058F8040BC4F302514FF00A0B032900D16F
:1017C00000B2042900D140B2002802DA40422D21A3
:1017D00002E0210505D52B218DF82410012104E01C
:1017E00006E0E10710D02021F6E708AF089113E0EA
:1017F00058F8040BC4F302514FF00A0B032900D12F
:1018000080B2042900D1C0B20021EEE75946FEF7AC
:101810009BFC303107F8011D0028F7D1ADEB070024
:1018200000F1200B600702D524F4803401E04FF072
:10183000010ADA4502DDAAEB0B0000E00020824637
:1018400000EB0B0108980144A9EB01000A90E003AA
:1018500006D4DDE90D2321460A9800F04DF8064430
:101860004FF0000908E009A911F80900DDE90D129F
:10187000904709F10109761C08998945F3DBE003DB
:101880000CD5DDE90D2321460A9800F035F8064411
:1018900004E0DDE90D1230209047761CBAF100011A
:1018A000AAF1010AF5DC05E0DDE90D1217F8010BDC
:1018B0009047761CBBF10001ABF1010BF4DC0A98F8
:1018C0002146DDE90D2300F005F806446D1C97E67E
:1018D000092801002DE9F041044600251E4617465F
:1018E000880404D405E039462020B0476D1C641EEE
:1018F000F9D52846BDE8F0812DE9F04104460025E0
:101900001E469046C80301D5302700E020278804F2
:1019100004D505E041463846B0476D1C641EF9D534
:101920002846BDE8F081000013B54FF6FF73012291
:1019300069460248FFF7C2FA00981CBD6800002003
:1019400008B5FEF757FFFFF757FDFFF7EDFCFFF770
:1019500011FDFFF72FFD6846FFF7ACFC9DF8010075
:101960009DF8021000EBC00202EB001001EB8001B9
:1019700003A0FFF707FE6420FEF712FCEBE7000070
:1019800054656D703D202532640D0A00010202038A
:101990000405060708090A0B0C0D0E0F10100000B5
:1019A000000000000000010203040607080900000F
:1019B0000000010203040000D81900080000002004
:1019C00014000000C4150008EC19000814000020E1
:1019D0009C040000D4150008010000001000000065
:0C19E000000000000024F40000000000E3
:04000005080000ED02
:00000001FF
